S0140000627269636B4D4C5F74656D702E7372656357
S31500000000B82B0120DD69000009680000D9690000ED
S31500000010D9690000D9690000D9690000D9690000D2
S31500000020000000000000000000000000A50900001C
S31500000030D969000000000000BD090000250A000083
S31500000040C55700003957000051580000915800006C
S31500000050CD61000009630000F5630000B96400008B
S31500000060F121000021220000552200007522000027
S3150000007095220000000000000000000000000000C3
S31500000080000000000000000000000000000000006A
S31500000090000000000000000000000000000000005A
S315000000A0000000000000000000000000000000004A
S315000000B0000000000000000000000000000000003A
S315000000C0000000000000000000000000000000002A
S315000000D0000000000000000000000000000000001A
S315000000E0000000000000000000000000000000000A
S315000000F000000000000000000000000000000000FA
S3150000010000000000000000000000000000000000E9
S3150000011000000000000000000000000000000000D9
S3150000012000000000000000000000000000000000C9
S3150000013000000000000000000000000000000000B9
S3150000014000000000000000000000000000000000A9
S315000001500000000000000000000000000000000099
S315000001600000000000000000000000000000000089
S315000001700000000000000000000000000000000079
S315000001800000000000000000000000000000000069
S315000001900000000000000000000000000000000059
S315000001A00000000000000000000000000000000049
S315000001B00000000000000000000000000000000039
S315000001C0FFFFFFFFFFFFFFFFFFFFFFFFFFFFFFFF39
S315000001D0FFFFFFFFFFFFFFFFFFFFFFFFFFFFFFFF29
S315000001E0FFFFFFFFFFFFFFFFFFFFFFFFFFFFFFFF19
S315000001F0FFFFFFFFFFFFFFFFFFFFFFFFFFFFFFFF09
S3150000020010B5054C237833B9044B13B1044800E00C
S3150000021000BF0123237010BD480400200000000029
S315000002200C06010008B5034B1BB10349034800E067
S3150000023000BF08BD000000004C0400200C060100B1
S31500000240F8B5114B05469E681F68346838465968EC
S31500000250A047B8B90122294638463369984704466B
S3150000026000210A4B5022C3E90011C3E902110848D4
S315000002700AF031FA074806F02BFD0246064B2046E7
S315000002801A60F8BD0446EBE7D0F20000B404002083
S3150000029064040020D8040020D404002030B58C4625
S315000002A08646104913460A6883B001320A600E4A30
S315000002B0916810688C6862467146A047044668B922
S315000002C04FF47A750949034601220868082100950A
S315000002D006F026FD10F0080F08BF1224204603B0D2
S315000002E030BD00BFD0040020D0F20000D4040020AE
S315000002F030B58C468646104913460A6883B00132EB
S315000003000A600E4A916810684C6862467146A047BA
S31500000310044668B94FF47A7509490346012208680C
S315000003200421009506F0FCFC10F0040F08BF12240F
S31500000330204603B030BD00BFCC040020D0F2000040
S31500000340D404002010B504464FF0010C124B22795C
S3150000035082B01968114801AB0CFA02F208F0B8FD38
S315000003602379022B05D0032B0FD0012B07D002B027
S3150000037010BD0B4A13880133138002B010BD094A21
S3150000038013880133138002B010BD074A1388013366
S31500000390138002B010BD00BFD4040020D96E000047
S315000003A0C6040020C4040020C8040020002370B541
S315000003B084B0019383790446013B092B0DD8DFE80D
S315000003C003F00C0C170C0C0C240C19052A4B01A974
S315000003D0186807F0EFF8012800D100BF019B3BB178
S315000003E04FF08052254B5A60BFF34F8FBFF36F8F8C
S315000003F004B070BD224A0023106804F1080101AA66
S3150000040007F064F80128E9D1E7E71E4D02A92B6F32
S315000004109847BDF8083003F47F43B3F5005F1DD05D
S31500000420B3F5045F21D0A38903F47F43B3F5085FD6
S31500000430D4D1154E022231462046AB6C984700288F
S31500000440CCD1E2893388C2F3400162F300033380E2
S315000004503288019B61F341023280C0E7AB6C072210
S3150000046020460A499847019BB9E7EB6C07222046CC
S3150000047006499847019BB2E71806002000ED00E008
S315000004807C0500205CF50000F80400207C010020BB
S3150000049038B50B4B0B491B680B489847054660B9A6
S315000004A00A4C2388DA0705D4012007F0C9FF238800
S315000004B0DB07F9D50122064B1A70284638BD00BF66
S315000004C05CF5000018F3000018500020F804002026
S315000004D0F404002070B50C46014613488023C56815
S315000004E0164612482246A847054660B96EB1721CE8
S315000004F00F4B0FD0A10A02311868C9B207F084F970
S3150000050001280DD01225284670BD012007F098FF5E
S31500000510284670BD3146186807F076F90128F2D1F1
S3150000052000BF284670BD00BF5CF5000018500020D3
S31500000530180600202DE9F04F1D4B83B01B78019063
S3150000054083B364298A4626D900251A4BDFF87090B2
S31500000550D3F80C80184FAAEB050BBBF1640F28BF2C
S315000005604FF0640B019B5E1980235A46314638468C
S31500000570C04704460028F7D10221D9F8000007F049
S3150000058043F90128F0D100BF6435AA45E3D82046D7
S3150000059003B0BDE8F08F0024FFF79CFF204603B0B0
S315000005A0BDE8F08F054C204603B0BDE8F08F00BFD4
S315000005B0F40400205CF5000018500020925F010052
S315000005C01806002010B50446083006F081FB0346E5
S315000005D004F124016360012006F026FFE066BDE811
S315000005E01040FFF755BF00BFF0B5066804460F463A
S315000005F015460121C06E83B0BEB107F005F901288A
S31500000600064601D003B0F0BD23682A469D681868E7
S315000006103946AB689847B0B100231A461946E06ED2
S3150000062003B0BDE8F04006F033BE07F0EDF8012850
S31500000630E8D1324629463846FFF77CFF3346324634
S315000006403146E06EECE700960346324604216068C8
S3150000065006F066FBE0E700BF0EB4002170B5ADF50D
S31500000660037D87AC54F8046B05464FF4FE7203A86D
S3150000067002910AF030F8324623464FF4007102A880
S3150000068001940BF061FE02A80AF080FF024602A95F
S315000006902846D2B2FFF7A8FF0DF5037DBDE87040EE
S315000006A003B07047022800D07047024B02485968D1
S315000006B005F090BAC4F2000074050020FFFFFFFFAA
S315000006C02DE9F04743A7D7E900673F4886B0FFF713
S315000006D079FFDFF808A1DFF80891DFF808813A4DC5
S315000006E017E0DAF80000D9F8004008F06DFD024680
S315000006F00B462046CDE9022308F066FDDDE902231C
S31500000700CDE9000128464146FFF7A6FF142007F071
S3150000071097FE00244420FFF793FD0121224605A8F9
S315000007208DF81440FFF7BAFD652007F089FE2246D2
S31500000730042105A8FFF7DCFD0028D2D19DF814009E
S3150000074000F03F039DF8150000EB032007EE900A2A
S31500000750F8EEE77A17EE900A08F036FD32463B4689
S3150000076008F0B4FE0022194B08F086FD08F096FF4B
S315000007709DF8163004469DF81700C9F8004000EBB6
S315000007800320C0F38D0007EE900AF8EEE77A17EE25
S31500000790900A08F019FD32463B4608F097FE08A37A
S315000007A0D3E9002308F068FD0022094B08F0ACFBF2
S315000007B008F074FFCAF8000097E700BFAFF30080A7
S315000007C00000000000A06440FC0400200000594026
S315000007D0000044400000000080FFCF40700500206C
S315000007E06C050020B8F2000010B50022032482B088
S315000007F00F4B01201146009406F098FC0D4B186033
S3150000080068B1002404210C4B14200C4A009406F015
S315000008108DFC0B4B0146186028B102B010BD014695
S3150000082000F012F8EDE702B0BDE8104000F00CB899
S315000008301C0600201806002080050020C8050020A0
S315000008407C050020FFF7D0BF00BE704738B5164CB8
S315000008504FF0FF31206806F0D7FF012803D00021B2
S315000008602068FFF7F1FF114B1A7802B138BD01225B
S315000008700F4D1A70FFF7E6FF2B68013B2B60002B2C
S31500000880F4D00023206819461A4606F001FD012817
S31500000890F2D000212068FFF7D7FF2B68013B2B60C1
S315000008A0002BEED138BD00BFA8060020A40600200C
S315000008B0F406002038B500230B4D0C4C01214FF4F3
S315000008C080700B4A2B60237006F0A4FC094B18605D
S315000008D028B100F039F807F089FC002038BD014640
S315000008E0FFF7B2FFF5E700BFF4060020A4060020DC
S315000008F0AC060020A80600204FF4006330B4034D78
S31500000900034C05600C60136030BC7047F84600204D
S31500000910F80600204FF4006330B4034D034C056025
S315000009200C60136030BC7047884B0020F82600200E
S3150000093000B583B00190FFF789FF019803B05DF819
S3150000094004EBFFF7BDBE00BF30B501240D480E4ACB
S3150000095003680E4D85B01919CDE901250C4B0160D0
S315000009604FF480520B490C48009407F03DFB0B4BAB
S31500000970186008B105B030BD014605B0BDE830408D
S31500000980FFF762BFF4060020B82B0120405000207C
S3150000099044F300000CF30000310900003C50002035
S315000009A000BEFEE71EF0040F0CBFEFF30880EFF366
S315000009B00980014908470000490A00000F4B1968E1
S315000009C0EFF309821EF0100F08BF22ED108A22E90C
S315000009D0F04FEFF30B8342F8043D0A604FF010002E
S315000009E080F31188BFF34F8FBFF36F8F07F066FD5B
S315000009F04FF0000080F3118800F002B8E4A8002050
S31500000A00074801680A6802CA81F30B88B2E8F04F0A
S31500000A101EF0100F08BFB2EC108A82F309887047E7
S31500000A20E4A8002010B5EFF31184102383F3118896
S31500000A3007F034FD18B14FF08052024B5A6084F330
S31500000A40118810BD00ED00E008B5836913F8023C7B
S31500000A50022B02D0032B04D808BDBDE80840FFF7DF
S31500000A60CFBF40F20541024B024A034805F090FE13
S31500000A7068F4000028F500007CF4000070B440F82B
S31500000A80203C4FF080756FF002040346084E283173
S31500000A9022F0010240F80C6C40F8045C40F8244C4B
S31500000AA040F8082C43F8481D184670BC704700BF34
S31500000AB0A109000008B5EFF31181102383F3118813
S31500000AC00A4A13680133012B136000D008BD084A97
S31500000AD0084B11605B68C3F30803002BF6D040F2A5
S31500000AE0F641054B054A064805F052FED45400204F
S31500000AF0D054002000ED00E0A4F4000014F500003E
S31500000B007CF40000094A08B513683BB1013B136049
S31500000B101BB9074B1B6883F3118808BD40F2FF41E0
S31500000B20044B054A054805F033FE00BFD4540020A7
S31500000B30D0540020ECF4000000F500007CF4000026
S31500000B4000B3194A00B5938918B2002899B21ADB86
S31500000B50BFF34F8F30BFBFF36F8F62B6BFF36F8F98
S31500000B6072B600280CDA4AF202500F4AB2F8FE3387
S31500000B70A2F8FE039BB243F425439181A2F8FE330B
S31500000B805DF804FB70474AF2025E4FF0000CB2F8C3
S31500000B90FE33A2F8FEE39BB243F42543A2F80CC051
S31500000BA0A2F8FE33D4E700BF00E0014008B572B6F4
S31500000BB007F06AFB0120FFF7C3FF62B6BDE80840F5
S31500000BC007F06ABB0D4B0E4A1B68A2FB03239B0969
S31500000BD0013BB3F1807F0FD24FF0E0224FF0F00CD3
S31500000BE00020072110B4074C536184F823C05DF838
S31500000BF0044B906111617047704700BF7068002018
S31500000C00D34D621000ED00E0F02208B50B4B83F8DF
S31500000C102220FFF7D7FF0A4A536B43F04043536342
S31500000C2062B6BFF36F8FEFF3148C2CF0040C8CF3C9
S31500000C301488BFF36F8F02DF00BEFDE700ED00E012
S31500000C4000EF00E0EFF30383103B5BB2002B05DB04
S31500000C5003F1604303F5614393F80033704700BF27
S31500000C601C4B1B88012B00D0704790F8223010B522
S31500000C70022B0CBF802182218AB0C26804698DF8DC
S31500000C800630038D121B042B03928DF8071013D028
S31500000C90052B1AD0032B14D040F2DC53ADF80830E4
S31500000CA090F82420C36901A909208DF80420069331
S31500000CB002F044F80AB010BD40F2DE53ADF8083039
S31500000CC0EEE70023ADF80830EAE740F2DF53ADF86F
S31500000CD00830E5E7F0560020164B1B88012B00D0A4
S31500000CE0704700B590F822308BB0012B8DF8063096
S31500000CF01CD0BBB181238DF80730028D40F2DC5346
S31500000D00012A08BF002390F824C0C26901A90A205D
S31500000D108DF804C00692ADF8083002F00FF80BB05B
S31500000D205DF804FB82238DF80730E6E780238DF813
S31500000D300730E2E7F056002010B5044631B900F05E
S31500000D4007FEC30517D54FF4807010BD00F078FE7E
S31500000D50204600F08DFE10F4807F204606D000F07D
S31500000D60CDFE800A0130800180B210BD00F0DCFEAD
S31500000D70C0F30A0010BD204600F01EFE00F07F0002
S31500000D8010BD00BF2DE9F843594B90F82470044676
S31500000D9033F817300D469BB2022B52D000F05AFCA6
S31500000DA02946204600F090FC2946204600F0DAFC51
S31500000DB02946204601F0A2FF2946204600F040FEC3
S31500000DC0642207FB02F2DFF8308105EB850302EBB4
S31500000DD0430343445988AE001FFA87F9204600F0C2
S31500000DE063FEB9F1010F6FD07319642607FB06F68F
S31500000DF006EB430646442046F18800F0B1FE204645
S31500000E00318900F0C5FE2046002100F019FE294672
S31500000E10204600F067FF2946204601F05BFF294681
S31500000E20204600F001FF2946204600F0C9FC29466D
S31500000E30204600F0E9FC29462046BDE8F84300F0CC
S31500000E4007BD2C4E56F8210008B105F0FFFE002321
S31500000E50294646F82530204602F058FF80462946A6
S31500000E60204694F8247000F0F5FB2946204600F051
S31500000E702BFC2946204600F075FC08F1FF38294670
S31500000E80204601F03BFF1FFA88F82946204600F06D
S31500000E90D7FDB8F1010F1FFA87F9DFF85C801CD87F
S31500000EA0642207FB02F205EB850302EB430343448E
S31500000EB05988204641F48061598000F0F5FDB9F16A
S31500000EC0010F4FEA85068FD1731908EB43032046BD
S31500000ED0B3F8681000F000FE86E764230A2207FBD9
S31500000EE003F302FB053343445988AE0076E700BF9F
S31500000EF098660020DC5400202C55002070B5364B37
S31500000F0090F82420054633F812300E469BB2022B89
S31500000F1058D03146284601F0F1FE3146284600F009
S31500000F2099FB3146284600F0CFFB3146284600F0B3
S31500000F3019FC48F22F034FF400420021284600F026
S31500000F4037FA0021284600F0FDF910F02F04F8D1F9
S31500000F503146284600F074FD2146284600F0A4FDDF
S31500000F602146284600F0B8FD2146284600F0F8FD47
S31500000F702146284600F00CFE2146284600F060FD7A
S31500000F803146284600F0AEFE3146284601F0A2FE64
S31500000F903146284600F048FE3146284600F04EFF0E
S31500000FA03146284600F068FF3146284600F008FC26
S31500000FB03146284600F028FC31462846BDE87040F8
S31500000FC000F046BC054C54F8210008B105F03EFE81
S31500000FD0002344F826309CE798660020DC54002065
S31500000FE070B501224FF6FF7406460D4600F0E0FE8E
S31500000FF02946304600F0E4FD013C8306A4B200D445
S3150000100070BD002CF4D170BD70B505461646A2B170
S3150000101064240BE0284600F05BF8013C284600F00B
S31500001020ABF8A4B20A2001F0DDF8C4B13146284677
S3150000103000F046FA8304EDD570BD41EA030411467B
S3150000104048F22F0344F4004200F0B2F9002128468A
S3150000105000F078F900F02F008442F7D1D8E7FF209E
S3150000106070BD00BF02B1704738B543EA01041146AE
S3150000107048F22F0344F40042054600F099F9002196
S31500001080284600F05FF900F02F039C42F7D138BDE7
S3150000109030B504460D4683B0019200F0EDFE2946B8
S315000010A02046019A00F006FF2946204603B0BDE817
S315000010B0304000F0A5BE00BF38B504460D4600F02E
S315000010C0BDFE29462046BDE8384000F0D5BE00BF2B
S315000010D0094B90F8242033F812309BB2022B01D032
S315000010E0002070471AB9054B188880B27047044B28
S315000010F0188880B2704700BF98660020000009403B
S3150000110000101140012805D1034A13889BB243F40D
S3150000111080731380704700BF00101140094B90F890
S31500001120242033F812309BB2022B00D07047012ADC
S31500001130FCD1054A138823F480731B041B0C13800F
S31500001140704700BF9866002000101140084B90F8C9
S31500001150242033F812309BB2022B00D07047012AAC
S31500001160FCD1044A13889BB243F080031380704776
S315000011709866002000101140094B90F8242033F89F
S3150000118012309BB2022B01D0002070471AB9054BD2
S31500001190988880B27047044B988880B2704700BF29
S315000011A0986600200000094000101140094B90F895
S315000011B0242033F812309BB2022B01D00020704756
S315000011C01AB9054B188980B27047044B188980B24A
S315000011D0704700BF986600200000094000101140CB
S315000011E0064B90F8242033F812309BB2022B00D025
S315000011F07047002AFCD0024B998170479866002000
S3150000120000101140084B90F8242033F812309BB29E
S31500001210022B01D0002070470029FBD1012AF9D109
S31500001220024B5869704700BF9866002000101140B5
S31500001230074B90F8240033F810309BB2022B00D0F5
S3150000124070470029FCD1012804BF024B5A61704740
S315000012509866002000101140094B90F8242033F8BE
S3150000126012309BB2022B01D0002070470029FBD11F
S31500001270012A0BBF034B044BD88A988A80B2704769
S31500001280986600200010114000000940134B90F8AA
S31500001290240033F810309BB2022B05D0012914D05C
S315000012A002290FD059B170470128F7D1012912D070
S315000012B002290DD00029F6D1094BDA827047094B75
S315000012C09A827047074B9A837047064B1A8370477A
S315000012D0034BDA83E7E7024B5A8370479866002090
S315000012E00010114000000940134B90F8240033F819
S315000012F010309BB2022B05D0012914D002290FD041
S3150000130059B170470128F7D1012912D002290DD011
S315000013100029F6D1094BDA757047094B1A757047E3
S31500001320074B1A777047064B1A767047034BDA77E6
S31500001330E7E7024BDA767047986600200010114006
S3150000134000000940134B90F8242033F812309BB26A
S31500001350022B1CD1012912D0022907D10E490F4BAD
S31500001360012A18BF0B46188880B2704779B90C4914
S315000013700C4B012A18BF0B46188880B270470A49E1
S315000013800A4B012A18BF0B46188880B27047002303
S315000013901B88FFDE986600202C0009402C101140A7
S315000013A02000094020101140280009402810114053
S315000013B010B5194C90F824E034F81E0080B20228CB
S315000013C026D101291CD0022907D114491448BEF19F
S315000013D0010F0CBF8C46844607E0C9B91149124873
S315000013E0BEF1010F0CBF8C468446BCF8001003EA20
S315000013F002008AB222EA03030343ACF8003010BDB0
S315000014000A490B48BEF1010F0CBF8C468446ECE737
S3150000141000231B88FFDE00BF986600202C101140B9
S315000014202C000940201011402000094028101140CE
S315000014302800094010B41B4C90F8240034F81030F2
S315000014409BB2022B04D1012926D002291ED0B9B1A4
S31500001450002134F810309BB2022B02D05DF8044B09
S3150000146070470B8823F440631B041B0C0B80002A77
S31500001470F4D00B885DF8044B9BB21A430A80704780
S3150000148009490A4B012818BF1946E2E70849094BE2
S31500001490012818BF1946DCE70749084B012818BF81
S315000014A01946D6E798660020201011402000094012
S315000014B02C1011402C00094028101140280009402A
S315000014C0164B90F8242033F812309BB2022B21D110
S315000014D0012917D0022907D11149124B012A18BF39
S315000014E00B46188880B27047A1B903F180430E49B4
S315000014F003F5881303F58153012A18BF0B46188894
S3150000150080B2704709490A4B012A18BF0B46188852
S3150000151080B2704700231B88FFDE00BF986600205C
S315000015202E0009402E101140220009402A000940D1
S315000015302A101140144B90F8242033F812309BB235
S31500001540022B1DD1012915D0022905D10F49104BB7
S31500001550012A18BF194605E091B90E490E4B012A1A
S3150000156018BF19460B886FEA43436FEA53439BB291
S315000015700B80704709490A4B012A18BF1946F1E743
S3150000158000231B88FFDE00BF986600202E10114046
S315000015902E00094022101140220009402A10114055
S315000015A02A000940174B90F8242033F812309BB2DA
S315000015B0022B24D1012919D0022908D1124B134933
S315000015C0012A18BF0B464FF480421A807047B1B902
S315000015D003F180430E4903F5881303F58153012A6D
S315000015E018BF0B464FF480421A807047094B0A49D0
S315000015F0012A18BF0B464FF480421A807047002319
S315000016001B80FFDE986600202E1011402E00094038
S31500001610220009402A1011402A0009400A4B90F87E
S31500001620242033F812309BB2022B00D070470123DE
S315000016303AB1064AD08E03FA01F1014389B2D18646
S315000016407047034AF6E700BF986600200010114075
S31500001650000009400B4B90F8242033F812309BB25F
S31500001660022B00D070474AB101220748C38E02FA06
S3150000167001F19BB223EA0101C186704701220348AA
S31500001680F4E700BF986600200010114000000940F2
S315000016900A4B90F8242033F812309BB2022B00D06C
S315000016A0704701233AB1064A108F03FA01F101434C
S315000016B089B211877047034AF6E700BF9866002093
S315000016C000101140000009400B4B90F8242033F81D
S315000016D012309BB2022B00D070474AB10122074854
S315000016E0038F02FA01F19BB223EA010101877047D9
S315000016F001220348F4E700BF98660020001011405D
S3150000170000000940134B90F8242033F812309BB2A6
S31500001710022B00D0704710B55AB901230E4C0F4862
S3150000172024F81120428F03FA01F1114389B241874F
S3150000173010BD4FF0000E01230748094A01F10A0CBB
S3150000174020F81CE003FA01F1538F194389B251873F
S3150000175010BD00BF98660020045500200000094017
S31500001760001011400B4B90F8242033F812309BB236
S31500001770022B00D070474AB101220748438F02FA74
S3150000178001F19BB223EA0101418770470122034818
S31500001790F4E700BF986600200010114000000940E1
S315000017A020B9054BB3F8400080B27047034BB3F83D
S315000017B0400080B2704700BF000009400010114091
S315000017C00E4B90F8242033F812309BB2022B00D037
S315000017D07047012342B903FA01F1C943084AC1F32C
S315000017E00901A2F84610704703FA01F1C943054AF8
S315000017F0C1F30901A2F84610704700BF98660020A1
S3150000180000000940001011400E4B90F8242033F8D8
S3150000181012309BB2022B00D07047012342B903FA63
S3150000182001F1C943084AC1F30901A2F848107047FB
S3150000183003FA01F1C943054AC1F30901A2F84810A8
S31500001840704700BF98660020000009400010114054
S315000018500E4B90F8242033F812309BB2022B00D0A6
S315000018607047012342B903FA01F1C943084AC1F39B
S315000018700901A2F84A10704703FA01F1C943054A63
S31500001880C1F30901A2F84A10704700BF986600200C
S3150000189000000940001011400A4B90F8242033F84C
S315000018A012309BB2022B01D00020704722B9064BA2
S315000018B0B3F84C0080B27047044BB3F84C0080B2CA
S315000018C0704700BF986600200000094000101140D4
S315000018D020B9054BB3F8540080B27047034BB3F8F8
S315000018E0540080B2704700BF00000940001011404C
S315000018F020B9054BB3F8560080B27047034BB3F8D6
S31500001900560080B2704700BF000009400010114029
S3150000191020B9054BB3F8580080B27047034BB3F8B3
S31500001920580080B2704700BF000009400010114007
S3150000193020B9054BB3F85A0080B27047034BB3F891
S315000019405A0080B2704700BF0000094000101140E5
S315000019500A4B90F8242033F812309BB2022B01D0A8
S315000019600020704722B9064BB3F85C0080B270477E
S31500001970044BB3F85C0080B2704700BF9866002045
S315000019800000094000101140084B90F8242033F85D
S3150000199012309BB2022B00D070471AB9044BA3F841
S315000019A05C107047034BA3F85C10704798660020E4
S315000019B000000940001011400A4B90F8242033F82B
S315000019C012309BB2022B01D00020704722B9064B81
S315000019D0B3F85E0080B27047044BB3F85E0080B285
S315000019E0704700BF986600200000094000101140B3
S315000019F0084B90F8242033F812309BB2022B00D00B
S31500001A0070471AB9044BA3F85E107047034BA3F84E
S31500001A105E107047986600200000094000101140D3
S31500001A2020B9054BB3F8600080B27047034BB3F89A
S31500001A30600080B2704700BF0000094000101140EE
S31500001A40084B90F8242033F812309BB2022B00D0BA
S31500001A5070471AB9044BA3F864107047034BA3F8F8
S31500001A60641070479866002000000940001011407D
S31500001A700A4B90F8242033F812309BB2022B01D087
S31500001A800020704722B9064BB3F8680080B2704751
S31500001A90044BB3F8680080B2704700BF9866002018
S31500001AA00000094000101140084B90F8242033F83C
S31500001AB012309BB2022B00D070471AB9044BA3F820
S31500001AC068107047034BA3F86810704798660020AB
S31500001AD00000094000101140064B90F8242033F80E
S31500001AE012309BB2022B04D1012A04BF024BA3F889
S31500001AF06A1070479866002000101140084B90F855
S31500001B00240033F810309BB2022B01D0002070471E
S31500001B100028FCD0034BB3F86A0080B2704700BFC0
S31500001B2098660020001011400A4B90F8242033F8E4
S31500001B3012309BB2022B01D00020704722B9064B0F
S31500001B40B3F86C0080B27047044BB3F86C0080B2F7
S31500001B50704700BF98660020000009400010114041
S31500001B60084B90F8242033F812309BB2022B00D099
S31500001B7070471AB9044BA3F86C107047034BA3F8CF
S31500001B806C10704798660020000009400010114054
S31500001B90084B90F8242033F812309BB2022B00D069
S31500001BA070471AB9044BA3F86E107047034BA3F89D
S31500001BB06E10704798660020000009400010114022
S31500001BC04FF0000C134B90F8242082B0ADF806C0FD
S31500001BD033F812309BB2022B04D0BDF8060080B257
S31500001BE002B0704762B181B10B4B03EB41010B8828
S31500001BF09BB2ADF80630BDF8060080B202B0704761
S31500001C0029B1064B03EB4101F1E70549EFE7054929
S31500001C10EDE700BF986600206E1011406E00094087
S31500001C2060101140600009400B4B90F8242033F8F7
S31500001C3012309BB2022B00D0704742B1074B03EB28
S31500001C4041010B889BB243F400530B807047044B51
S31500001C5003EB4101F5E700BF986600206E101140C6
S31500001C606E0009400D4B90F8242033F812309BB2D9
S31500001C70022B00D0704742B9094A32F811309BB2A4
S31500001C8043F4007322F811307047064A32F81130D7
S31500001C909BB243F4007322F8113070479866002017
S31500001CA06E0009406E1011400B4B90F8242033F85B
S31500001CB012309BB2022B00D070474AB1074B03EBA0
S31500001CC041010B8823F400731B041B0C0B80704727
S31500001CD0034B03EB4101F4E7986600206E101140B8
S31500001CE06E000940174B90F8242033F812309BB24F
S31500001CF0022B00D070474AB9D9B9134AB2F86030FE
S31500001D009BB243F48073A2F86030704741B90F4A22
S31500001D10B2F860309BB243F48073A2F8603070472B
S31500001D200B4A32F811309BB243F4807322F811301B
S31500001D30E0E7084A32F811309BB243F4807322F888
S31500001D4011307047986600200000094000101140CD
S31500001D506E1011406E000940104B90F8240033F8C5
S31500001D6010309BB2022B00D0704770B191B10C4B72
S31500001D7003EB41010B8823F003031B041B0C0B80B0
S31500001D800B889BB21A430A80704729B1054B03EBB7
S31500001D904101EFE70449EDE70449EBE798660020C7
S31500001DA06E1011406E00094060101140600009403D
S31500001DB00E4B90F8240033F810309BB2022B00D063
S31500001DC0704748B169B10A4B03EB41010B889BB2DE
S31500001DD023EA02020A80704729B1064B03EB410150
S31500001DE0F4E70549F2E70549F0E700BF98660020E9
S31500001DF06E1011406E0009406010114060000940ED
S31500001E000B4B90F8242033F812309BB2022B00D0F3
S31500001E10704742B1074A89000A4413889BB243F4CB
S31500001E20007313807047044A89000A44F5E700BF2F
S31500001E30986600208C1011408C0009400B4B90F8DE
S31500001E40242033F812309BB2022B00D070474AB1DF
S31500001E50074A89000A44138823F400731B041B0CE9
S31500001E6013807047034A89000A44F4E79866002005
S31500001E708C1011408C0009400B4B90F8242033F84D
S31500001E8012309BB2022B00D0704742B1074A89003C
S31500001E900A4413889BB243F4807313807047044A44
S31500001EA089000A44F5E700BF986600208C101140AF
S31500001EB08C000940094B90F8240033F810309BB28F
S31500001EC0022B00D0704720B1054B89000B441A80C5
S31500001ED07047044B89000B44F9E700BF9866002061
S31500001EE08E1011408E000940012807D1044AB2F82D
S31500001EF002319BB243F48043A2F80231704700BF1F
S31500001F0000101140012808D1044AB2F8023123F426
S31500001F1080431B041B0CA2F80231704700101140CD
S31500001F20124B5A6870B911051CD5EFF310810122C6
S31500001F3082F310885A6822F400625A605B6881F363
S31500001F4010887047D2040DD5EFF31081012282F379
S31500001F5010885A6822F480525A605B6881F31088B0
S31500001F600020704740F2DD50704700BF0040084037
S31500001F7000283BD180223C4B1881A3F86020A3F8AF
S31500001F807000A3F87200A3F87400A3F87600A3F813
S31500001F907800A3F87A00A3F87C00A3F87E00A3F8E3
S31500001FA08000D88618875887188658861A8822F09F
S31500001FB010021204120C1A801A8822F0200212044F
S31500001FC0120C1A801A8822F001021204120C1A80CE
S31500001FD01A8822F040021204120C1A80A3F8460056
S31500001FE0A3F84800A3F84A00002070470022802189
S31500001FF01E4B00201A81A3F86010A3F87020A3F8E6
S315000020007220A3F87420A3F87620A3F87820A3F80A
S315000020107A20A3F87C20A3F87E20A3F88020DA8615
S315000020201A875A871A865A86198821F010010904D8
S31500002030090C1980198821F020010904090C19805E
S31500002040198821F001010904090C1980198821F069
S3150000205040010904090C1980A3F84620A3F848207A
S31500002060A3F84A20704700BF000009400010114045
S3150000207010B50446FFF77CFFACB91B4B5A68120536
S3150000208028D45A681405C2F3C02026D4EFF3108171
S31500002090012282F310885A6842F400625A605B6833
S315000020A081F3108810BD012C1AD10F4B5A68D10448
S315000020B010D45A68C2F30030D2040ED4EFF3108164
S315000020C084F310885A6842F480525A605B6881F340
S315000020D0108810BD40F2DC5010BD4FF4BC6010BD3E
S315000020E040F2E25010BD00BF00400840F0B530B3EA
S315000020F0012800D0F0BD91F91020CB7D02F160449B
S315000021001B01DBB204F5614484F80033314C324BD9
S3150000211044F8221002F1C00153F821406FF3104435
S3150000212043F8214053099B0002F01F0203F160436C
S31500002130904003F56143C3F880011860F0BD4FF08D
S31500002140010C264B264DD3F80024224E60F30412D0
S31500002150C3F800240A7D91F90D3012011E4CEF18C8
S31500002160D2B287F8002303F1C00E46F823105A09AD
S3150000217054F82E70920003F01F0302F1604202F53C
S3150000218061420CFA03F360F3104744F82E70C2F86C
S3150000219080311360CB7C91F90C201B011544DBB216
S315000021A085F8003346F8221002F1C00154F8215098
S315000021B053099B0002F01F0203F1604360F31045D0
S315000021C00CFA02F203F5614344F82150C3F880216A
S315000021D01A60F0BDE466002000600040000009407F
S315000021E000E100E0012104F0DBBA00BF06F028B9E7
S315000021F0EFF30383103B084A5BB2C03352F8231057
S3150000220006486FF3104142F8231003889BB2012B56
S3150000221000D1704701F0DCBC0060004098660020E9
S3150000222010B4EFF30383103B084A5BB203F1C0011D
S3150000223052F82100064C6FF3104042F8210054F882
S3150000224023305DF8044B987800F050BB00600040E6
S31500002250E4660020EFF30383103B054A5BB2C0330C
S3150000226052F823106FF3104142F82310704700BF55
S3150000227000600040EFF30383103B054A5BB2C033B6
S3150000228052F823106FF3104142F82310704700BF35
S3150000229000600040EFF30383103B084A5BB2C03393
S315000022A052F8231006486FF3104142F82310438872
S315000022B09BB2012B00D1704701F08ABC0060004040
S315000022C0986600202DE9F043012A0CBF784B794B24
S315000022D00446B3F840E0B3F84660B3F84880B3F874
S315000022E04A70B3F830C0D88E1D8F5B8F1FFA85F900
S315000022F09DB200231FFA8EFE1EF47F4F238083B00B
S31500002300B6B21FFA88F8BFB21FFA8CFC80B20B80F7
S315000023100ED00EEA0C0313F4804F0CD0012A4BF6B4
S31500002320FF720CBF624B634BA3F84020122323803D
S3150000233003B0BDE8F08313F4004F0DD113F4005F32
S3150000234017D0012A4DF6FF720CBF594B594BA3F813
S31500002350402013232380EBE7012A47F6FF720CBFC8
S31500002360534B544BA3F840201123238003B0BDE800
S31500002370F08313F4805F12D1304013F480761BD0C3
S3150000238010F0010F18D0012A40F2FE320CBF484B64
S31500002390484BA3F84620012323800B80C8E7012A77
S315000023A04EF6FF720CBF424B424BA3F8402014235B
S315000023B02380A1F800E0BBE713F4806C07EA050769
S315000023C00ED0FD070CD5012A40F2FE320CBF384B69
S315000023D0384BA3F84A200222012322800B80A7E76C
S315000023E013F4007E08EA09050FD015F0010F0CD092
S315000023F0012A40F2FE320CBF2D4B2E4BA3F848208B
S315000024000322012322800B8092E71B051DD466B1AF
S31500002410C343012A0CBF264A264AC3F30903A2F87E
S31500002420463001232380088082E7BCF1000F2DD0BF
S31500002430FB43012A0CBF1E4A1E4AC3F30903A2F836
S315000024404A30022323800F8072E7104601910092E2
S31500002450FFF7A6F90199009A08804FF2FF70012A4A
S315000024600CBF134B134BA3F84000152323800B8896
S3150000247003F00703062B7FF45BAF1046009100F0D4
S3150000248045FA0023009923800B8051E7BEF1000F27
S315000024903FF44EAFEB43012A0CBF054A054AC3F38E
S315000024A00903A2F84830032323800D8040E700BFCC
S315000024B0001011400000094010B5044600F026FA4D
S315000024C02046FFF705FA0246094B20461A80FFF719
S315000024D00FFA0246074B20461A80FFF719FA024602
S315000024E0054B20461A80FFF723FA044B188010BDCF
S315000024F07C5900207E5900206E590020705900201A
S3150000250008B590F82400FFF74BF900F07000A0F131
S315000025103000B0FA80F0400908BD00BFFF220F4B23
S3150000252070B51B880E4D012B2A8000D070BD044665
S3150000253000F0CCF92046FFF733F910F4804606D1B7
S315000025404306F3D5204600F099F92E8070BDD523B9
S3150000255020462B80BDE8704000F0C8B96A590020BB
S315000025606C59002038B50F4D04462B8803F47F4381
S31500002570B3F5407F0AD006D8B3F5807F06D0B3F511
S31500002580007F03D038BDB3F5806FFBD12046002114
S31500002590FEF726FE29882046BDE83840090AFEF7E0
S315000025A01FBE00BF9C59002010B5044690F82400B9
S315000025B000F09CF994F82400BDE8104000F086B9BC
S315000025C00B46022201461846FFF7C6BB022200212F
S315000025D0FFF7C2BB2DE9F0411D4693F82430804633
S315000025E00F46144613BB46083DD002EB460634F8A8
S315000025F0022B39462846FEF749FEB442F7D118F0B9
S31500002600010F2BD0394628460022FEF713FF16F895
S31500002610012B39462846FEF767FE28464FF48062AE
S315000026203946FEF707FF3046BDE8F081860818D028
S3150000263002EB860654F8042B39462846FEF7F8FDC9
S31500002640B442F7D118F0020F1BD118F0010F0CD1CC
S315000026504FF4006239462846FEF7ECFE3046BDE8E8
S31500002660F0811646EEE71646C9E7394628460022A7
S31500002670FEF7E0FE3946284616F8012BFEF734FE33
S31500002680E6E7394628464FF48062FEF7D3FE394620
S31500002690284636F8022BFEF7F9FDD6E72DE9F0417C
S315000026A01E4693F8243080460F4614468BB94508DB
S315000026B033D002EB450539463046FEF7CDFD24F80A
S315000026C0020BAC42F7D118F0010F28D12846BDE81D
S315000026D0F08185081CD002EB850539463046FEF7A9
S315000026E091FD44F8040BAC42F7D108F00308B8F1A9
S315000026F0000FEBD039463046FEF784FDA84405F8B6
S31500002700010B45454FEA1020F9D12846BDE8F08176
S315000027101546B8F1000FD9D0ECE71546D3E7394690
S315000027203046FEF799FD05F8010B2846BDE8F08115
S315000027302DE9F0410446154610460F462146FEF7A0
S315000027404FFC21462846FEF785FF21462846FEF720
S31500002750BBFF21462846FFF705F821462846FEF727
S31500002760ABFC00212846FEF7EDFD00F00F00844289
S315000027702DD021462846DFF8688000F0ABFA2146C6
S315000027802846FFF751FA58F82460F6B1134B28464D
S3150000279053F82430214633613785FFF711FA58F88C
S315000027A024305D6870852DB1002218461146A84771
S315000027B058F82430184604F049FA0020214648F813
S315000027C02400BDE8F04100F091BCBDE8F081002393
S315000027D028461A461946FEF745FCCAE7F455002076
S315000027E0DC54002010B5064C238803B910BDFFF752
S315000027F07BFB6420FFF7F6FC0023238010BD00BF9F
S31500002800D854002010B5064C238803B910BDFFF735
S315000028106BFB6420FFF7E6FC0023238010BD00BF9E
S31500002820D85400200122024B1A80FFF76BBB00BF71
S31500002830D854002030B9074A13889BB243F01003DE
S3150000284013807047044A13889BB243F01003138029
S31500002850704700BF000009400010114038B9054A12
S31500002860138823F010031B041B0C13807047024AC5
S31500002870F6E700BF000009400010114030B9074AD2
S3150000288013899BB243F4807313817047044A1389FA
S315000028909BB243F480731381704700BF0000094068
S315000028A00010114030B9074A138E9BB243F480439F
S315000028B013867047044A138E9BB243F480431386F3
S315000028C0704700BF000009400010114038B9054AA2
S315000028D0138E23F480431B041B0C13867047024A95
S315000028E0F6E700BF00000940001011404BF6FF72EA
S315000028F018B9044BA3F840207047034BA3F84020B7
S31500002900704700BF00000940001011404FF6F772F3
S3150000291018B9044BA3F840207047034BA3F8402096
S31500002920704700BF000009400010114040B9094A35
S31500002930B2F860309BB243F00403A2F860307047EF
S31500002940054AB2F860309BB243F00403A2F8603047
S31500002950704700BF0000094000101140F8B92E4B27
S315000029601A8892B242F480621A801A885205FCD5FF
S3150000297005224FF480614FF41D40C3F8F0201A88F9
S3150000298022F020021204120C1A801A8892B242F027
S3150000299001021A801984198599851886704710B521
S315000029A01E4C0120FFF71EFCE38F012023F00103DC
S315000029B01B041B0CE387FFF719FCE38F23F00203CC
S315000029C01B041B0CE387238823F020031B041B0C2A
S315000029D0238023889BB243F001032380B4F802319D
S315000029E09BB243F48043A4F80231E388DB07FCD5AD
S315000029F04FF470634FF4006200204FF41D41638072
S31500002A00E38F9BB243F48073E38722842285A285F9
S31500002A10A4F84000218610BD0000094000101140B6
S31500002A2048B9094A0129138809D023F010031B0469
S31500002A301B0C13807047054A01291388F5D19BB2F8
S31500002A4043F0100313807047000009400010114046
S31500002A5088B90C4AB2F8603023F003031B041B0C40
S31500002A60A2F86030B2F860309BB231B943F001038E
S31500002A70A2F860307047044AECE743F00203A2F87C
S31500002A80603070470000094000101140104B90F86C
S31500002A9000C033F81C309BB2022B01D000207047D7
S31500002AA00C4B1B88012B10D000B54FF0010E93B0D4
S31500002AB0094B104601AA8DF828C0A3F800E000F0E3
S31500002AC0A5FB002013B05DF804FBD520704700BFBE
S31500002AD098660020685900209859002030B5224B8E
S31500002AE0044600789BB033F810308DF848009BB24E
S31500002AF0022B02D000201BB030BD0D4671B11B4B1E
S31500002B001B88012B2BD00124194B2946104609AAF4
S31500002B101C8000F037FB00201BB030BD002AEED130
S31500002B20A38809A8EBB1FFF751FD00259022217873
S31500002B3003AB0C348DF800108DF8032094E80300E5
S31500002B40029583E80300ADF8045005F0CFFE034676
S31500002B5069460820059300F0F1F82846CBE7D52012
S31500002B60C9E700F0C5F8E0E798660020685900203C
S31500002B7098590020C378082B17D810B55B0092B07F
S31500002B800B4C0391D9B2615C0A4C90F800C054F822
S31500002B90233001A804928DF828C0ADF826100592BE
S31500002BA0029300F059FE12B010BD0020704700BF1E
S31500002BB03CF5000084010020C378082B17D85B0081
S31500002BC010B503F1010C144C5FFA8CFC14F80CC020
S31500002BD092B0BCF1060F0CD1104B0A7803931A720F
S31500002BE00A22497805925972C3785B0005E00020F5
S31500002BF07047039105921FFA8CFC0949013302784C
S31500002C0051F8233001A88DF82820ADF826C002938C
S31500002C1000F022FE12B010BD3CF5000004020020B8
S31500002C2084010020C378082B10D8094A01EB430120
S31500002C30C9B2515C51B100B593B0037801A88DF8C3
S31500002C40283000F02FFE13B05DF804FBFF2070471C
S31500002C503CF50000092900D97047FEF719BD00BFF1
S31500002C60092901D90020704708B5FEF7A9FF00F031
S31500002C70030008BD09290FD810B541B10446FEF777
S31500002C80DFFE2046FEF750FFC0F30A0010BDFEF738
S31500002C9093FEC0F30A0010BD00207047092901D930
S31500002CA00020704710B50446FEF7CAFE2046FEF720
S31500002CB0DFFE00F0100010BD092901D90020704781
S31500002CC010B50446FEF7BCFE2046FEF7D1FE00F422
S31500002CD0404010BD092900D9704738B50C46054655
S31500002CE0FEF7C0FF21462846BDE83840FEF7DCBFA8
S31500002CF0092900D970470122FFF72EB8092900D902
S31500002D00704738B50C460546FEF76AF9214628464F
S31500002D10BDE838400222FFF74BB800BF08B5FEF702
S31500002D2045FA00F00700013880B2032896BF024B2F
S31500002D30002033F8100008BD4CF500002DE9F047DF
S31500002D408E46374DDFF8E8A0B5F80080887108EBAD
S31500002D50C80C0AEB8C0C0F46441EBEE80F00ACE80C
S31500002D600F00BEE80F00ACE80F00DEF80030464664
S31500002D704FEAC809CCF800300C2C14D8DFE804F070
S31500002D800713071F1F070734272707070700397888
S31500002D900022244B09EB080053F821300AEB80008F
S31500002DA0114698472E88204B0136A3FB0623DB08E5
S31500002DB003EB8303A6EB43032B80BDE8F08739784A
S31500002DC01A4B33F811309BB2012BE1D1EBE73A787D
S31500002DD0144B09EB080053F82230796900220AEBFC
S31500002DE0800098472E88DEE73C78104B33F8143085
S31500002DF09BB2012BD7D07A8A09EB08000AEB800038
S31500002E0032B9084B114653F8243098472E88CAE742
S31500002E10044B0022796953F8243098472E88C2E77C
S31500002E204456002074620020CDCCCCCC986600209D
S31500002E307C62002008B5084B1B88012B01D0FF20BF
S31500002E4008BD0346002140F25510044A00F04AFD31
S31500002E50034B188808BD00BF6A590020D132000014
S31500002E606C590020F0B5012883B02CD1254A13886F
S31500002E709BB21BBB244D254E05F15007A6F1140449
S31500002E80002204210A2004F097F944F8040B90B3B9
S31500002E90B442F5D1A5F12804002204210A2004F049
S31500002EA08BF944F8040F30B3AC42F5D12835BD4256
S31500002EB006F11406E2D1002003B0F0BD53889BB2A0
S31500002EC0002BD7D0F7E7002204210A2004F074F97A
S31500002ED00F4B186090B104240E48002301904FF464
S31500002EE000720D490D48009405F0BCF80128BDD0CC
S31500002EF0032003B0F0BD022003B0F0BD012003B0F3
S31500002F00F0BD00BF98660020C056002088560020FD
S31500002F106C5600207056002054F50000C93300009E
S31500002F2038B51D4C34F810309BB2012B07D01B4B23
S31500002F30186805F0CBF81A4B186804F04FFD238883
S31500002F409BB213B163889BB21BBB164DA5F114044B
S31500002F5054F8040B04F042FDAC42F9D1124C04F1D2
S31500002F60280554F8040F04F039FDAC42F9D10D4C94
S31500002F7004F1140554F8040B04F030FDAC42F9D109
S31500002F800A4C04F1280554F8040F04F027FDAC425E
S31500002F90F9D1002038BD00BF986600207056002089
S31500002FA06C5600208856002098560020C0560020F7
S31500002FB0B9B138B5002540F6B833AA4208BF1A465B
S31500002FC0094B0D6053F820300C46186804F05AFB84
S31500002FD0012801D0FF2038BD2368002BFAD02846EF
S31500002FE038BDFF20704700BF1002002000B583B037
S31500002FF0019151B10023094A01A952F82020106815
S315000030001A4604F045F9012803D0FF2003B05DF805
S3150000301004FB002003B05DF804FB00BF1002002093
S3150000302010B5002484B00191039451B10D4A234692
S3150000303052F8201003AA086801A904F047FA0128EB
S3150000304002D0FF2004B010BD03980028FAD04FF03C
S315000030508052054B5A60BFF34F8FBFF36F8F2046E8
S3150000306004B010BD1002002000ED00E030B50C46A3
S3150000307083B090F8245003F0E9FD631E082B11D8A5
S3150000308005EB850104EB4104074D03E0019848B1C7
S3150000309003F0DCFD002255F8240001A904F0F2FA41
S315000030A00128F3D003B030BD9C56002070B50C4605
S315000030B082B090F8245003F0C9FD631E042B10D88B
S315000030C005EB8505084E2C4403E0019848B103F052
S315000030D0BDFD002256F8240001A904F0D3FA012808
S315000030E0F3D002B070BD00BF745600204B1E082BF3
S315000030F000D9704710B500EB8002124B01EB42017C
S3150000310082B00446002253F8210001A904F0BAFA5D
S31500003110012801D002B010BD019B002BFAD00A4A4B
S31500003120002332F81420094C92B2012A18BF052058
S3150000313054F820001A4601A9006804F0A9F802B064
S3150000314010BD00BF9C56002098660020100200208B
S3150000315010B54B1E82B0082B01900ED88C4600236A
S3150000316090F82400064C00EB80000CEB400C1A464D
S3150000317054F82C0001A904F08BF802B010BD00BF72
S315000031809C56002070B50125144600221C4B1D805C
S315000031901C4B18601C482023016011462046FDF791
S315000031A061FF00212046FEF7FDF900212046FEF7CB
S315000031B04FFB00212246084600F0DEFD01280546A9
S315000031C005D020F00206B6B25EB1284670BD204694
S315000031D00021FFF73FFD20460021FFF789FD284625
S315000031E070BD31462046FEF78DFA31462046FFF780
S315000031F031FD20463146FFF77BFD284670BD00BFF6
S3150000320068590020F45500201C56002038B50124CA
S315000032100D460F4900230C8014460E4A19461060CD
S315000032200D481A4605602046FDF71CFF2046002182
S31500003230FEF7B8F920460021FEF7F0F920460021F6
S31500003240FFF708FD2046BDE838400021FFF750BDD6
S3150000325068590020F45500201C56002038B50C464D
S3150000326000210546184A194B204611801980FEF7A1
S3150000327079FA00212046FEF7EDF900212046FEF7F7
S3150000328023FA94F824300021012B0CBF4FF400627E
S315000032904FF480622046FEF7CDF825F00203052B99
S315000032A007D0082D0AD094F82400BDE83840FFF76F
S315000032B03DBB2046BDE83840FFF788B92046BDE84B
S315000032C038400021FDF78CBE68590020985900202F
S315000032D0704700BF704700BF03464FF0010C00B5B2
S315000032E0074A8BB093F82430032001A9A2F800C046
S315000032F08DF80430FFF722FD0BB05DF804FB00BF2C
S31500003300F0560020034600B58BB093F82430042015
S3150000331001A98DF80430FFF711FD0BB05DF804FB31
S31500003320034600B58BB093F82420DB69052001A97C
S315000033308DF804200693FFF701FD0BB05DF804FB42
S31500003340704700BF094B1A88012A00D07047002237
S3150000335000B58BB090F824C001A906208DF804C0F2
S315000033601A80FFF7EBFC0BB05DF804FBF05600206B
S3150000337038B50446458CFFF7C3F801280AD029461C
S3150000338020461DB1FFF772FE002038BDFFF78EFE06
S31500003390002038BD0B4B294653F8252020461AB18C
S315000033A0FFF7D6FE002038BD43F82540FFF776FC30
S315000033B018B9284600F06CFDE6E7284600F0AEFC9A
S315000033C0E2E700BFDC5400202DE9F04F814DDFF825
S315000033D014A2814CDFF81092DFF810827F4F83B081
S315000033E04FF47A72052001A9FFF7E2FD0028F7D114
S315000033F06FF4A872019E338C1344042BF0D801A2FB
S3150000340052F823F041340000393400002D34000016
S31500003410E13300001934000096F82400FFF7F2F9B2
S31500003420019B93F82400FFF779F8D9E73246082183
S31500003430708CFFF77DF9D3E73046FFF799FFCFE7AA
S31500003440738C318D013B142BCAD801A252F823F09C
S315000034503B350000333500002B350000E13300001A
S31500003460E1330000E1330000E1330000E133000006
S31500003470E1330000E1330000E1330000E1330000F6
S31500003480E1330000E1330000E1330000E1330000E6
S315000034900F350000FB340000E1330000E334000088
S315000034A0A534000011F0070B56D1BAF80030012BF5
S315000034B000F088804A4B1B8813F0600F00F086806E
S315000034C02380B9F800306380B8F80030A3803B88C9
S315000034D0E380EB6A002B83D0324659462046984754
S315000034E07EE701F07003402B32D02AD8102B7FF4F0
S315000034F077AF304600F072FF72E76B6A1BB10022AD
S315000035003046114698473046FFF74EF868E796F87A
S315000035102400FDF7F7FD96F8240001F003F8402893
S31500003520304633D000F084FF5AE7304600F026FBE1
S3150000353056E7304600F028FB52E7304600F0EEFA38
S315000035404EE7602B04D001F05002502A7FF448AFBA
S31500003550304600F0B1FF43E701F00502012A10D022
S31500003560BBF1050F0DD01E4B1B8813F0600FA7D1C2
S315000035700BF1FF31052920D8DFE801F00F13171BE7
S315000035800B1F96F82400FEF797FFECE700F044FFC8
S3150000359026E7304601F0F4F922E7304601F0A0F8BC
S315000035A01EE7304601F08AFB1AE7304601F0E6F9DD
S315000035B016E7304601F0E0FB12E731460720FFF739
S315000035C04DFE0DE73046FEF7CDFF73E7304601F0BE
S315000035D047F805E7F4580020745900207059002078
S315000035E07C5900209A5900207E5900206E590020EF
S315000035F0002110B4054C064B21804FF4FF7205489C
S315000036005DF8044B198007F066B800BFF258002039
S315000036106A590020F45600208446044B4FF4FF728A
S3150000362000210348A3F800C007F055B8F25800205F
S31500003630F4560020FF22044B03F1200123F8022F49
S315000036408B421A84FAD1704726590020014B9B6899
S3150000365018797047F458002000B5134B996891F813
S3150000366000E091F802C00EEB0102C9784CEA012C89
S31500003670E64514D21FFA8EF34FF0000E5178042956
S3150000368004D19178814208BF92F803E011780B4487
S315000036909BB263450A44F1D370465DF804FB4FF0D4
S315000036A0000E70465DF804FBF45800202DE9F04149
S315000036B0244B9B68DD7893F802E01C780EEB052E10
S315000036C01FFA8EFE7445234434D20026A2B2B046B9
S315000036D034461D4F1BE0BCF1050F12D1B44210D287
S315000036E09D7893F902C005F00F054FEADC7C05EBE7
S315000036F00C1508EB040C5FFA8CFC013427F815C096
S31500003700A4B21D782A4492B272452B4412D293F881
S3150000371001C0BCF1040FDED19D7885420CD093F830
S3150000372004C0C4441FFA8CF81D782A44D2B27245EC
S315000037302B44ECD3BDE8F081DD788D42EFD11E79C4
S31500003740F2E700BFF458002028590020044B1888DF
S3150000375020B1044B9B68D879C0F34010704700BF76
S31500003760F2580020F4580020024B9B68D879C0F329
S3150000377080107047F4580020092800D9704738B5E2
S315000037800446154600F0C4FB032807D8431E022B47
S3150000379022D8DFE803F00C02130038BDFF2814D14D
S315000037A02A462046BDE838401521FEF7C1BF2A4605
S315000037B02046BDE83840042100F022BC2A462046B7
S315000037C0BDE838400521FEF7B3BF2A462046BDE8CE
S315000037D038400721FEF7ACBF2A462046BDE83840F0
S315000037E0032100F00DBC00BF092800D9704770B551
S315000037F004460E46154601461046FDF72BFF2A469F
S315000038003146204600F0B8FA022813D009D82146DE
S315000038102846FDF777FF21462846BDE87040FFF7AA
S3150000382019BAFF2810D12A462046BDE87040152156
S31500003830FEF77EBF21462846FDF7F0FE21462846C4
S31500003840BDE87040FFF706BA2A462046BDE870403C
S315000038500721FEF76DBF00BF38B5438CD3B10446D0
S3150000386000224FF4A97344202260238403F04EF90A
S31500003870054678B12146442206F020FF05F036F8C9
S31500003880034629460520EB61FFF7B0FB044620B945
S31500003890204638BDFF24204638BD284603F0D6F919
S315000038A0204638BD092918D80D4A0B4652F8212062
S315000038B09AB110B540F25312002492B090F824C089
S315000038C001A90520ADF826308DF828C00194ADF881
S315000038D02420FFF78BFB12B010BDFF20704700BFFE
S315000038E0DC54002038B56FF4AA74204415460F281E
S315000038F014D8DFE800F020131A141313131313134C
S315000039001313131313080C4619462046FEF758FEE8
S315000039100122134B134923F814200D6038BD93F888
S315000039202400BDE83840FEF799BF93F82400BDE8AF
S315000039303840FEF77FBF40F2551200240A4993F83B
S315000039402430052081F824300C600A84FFF74EFBF2
S3150000395080B20028E2D0FF22044B1A8038BD00BF97
S315000039608459002080590020A05900206C5900205D
S315000039700021084B084A0948C3E90522C3E9072282
S31500003980C3E90922C3E90011C3E90211D86219612A
S31500003990704700BFF4580020D1320000D532000035
S315000039A04A6830B4D2E90051D468D1B190680E4B60
S315000039B0C3E90054C3E9021015690C4C0C480D49C3
S315000039C0127DC3E90454C3E906010B4C0B490C48AC
S315000039D0C3E908410B4983F83020C3E90A0130BC2A
S315000039E0704791680846E2E7F4580020753A0000EF
S315000039F0D9320000453300000533000021330000B2
S31500003A0041330000CD4E00002DE9F0470478944282
S31500003A102BD2064617469A464FF000094FF0FF088C
S31500003A2008E0BCF1050F16D095F800C06444A4B2B6
S31500003A30A7420DD9351995F801C0BCF1040FF0D194
S31500003A4095F800C095F805906444A4B2A742F1D851
S31500003A504046BDE8F0874A465146284600F0A4FB9A
S31500003A60002818BF4FF00008DEE74FF0FF08404679
S31500003A70BDE8F087F0B5274B04461A880E46012AA2
S31500003A808DB035D003AFC02E234B24D09D68002DBA
S31500003A903AD002226A70DB681BB107225A7005B958
S31500003AA0FEE7EB78AA7894F8240002EB032292B2A0
S31500003AB0019200F0FFFB23463146019A2846FFF7A4
S31500003AC0A3FF94F82430394601208DF80C30FFF717
S31500003AD035F90DB0F0BDD3E90225CAB10721517001
S31500003AE0DB68002BDBD002225A70002DD8D0D8E735
S31500003AF0002290F8241003AF8DF80C1006203946EA
S31500003B001A80FFF71BF9BEE7DB68002BC5D1C7E7B4
S31500003B102B46E6E7F0560020F4580020CB0711D5D7
S31500003B200021024610B50446084600F0F1F90328C4
S31500003B3012D009D8022819D02046BDE8104000212D
S31500003B40FDF788BD00F062BAFF2815D12146BDE811
S31500003B5010400720FFF782BB20460021FDF722FD1B
S31500003B602146BDE810400520FFF778BB2046BDE89A
S31500003B7010400021FFF7BCB810BD00BFCB0700D531
S31500003B80704700F075BA00BFCB0717D50021024673
S31500003B9010B50446084600F0EFF8022811D005D803
S31500003BA02046BDE810400021FDF7DCBDFF2807D107
S31500003BB02146BDE810400720FFF750BB00F084BA4D
S31500003BC010BD2046BDE810400021FFF791B800BFA8
S31500003BD0164AF8B51688731C03F01F0313803401C8
S31500003BE0EFF30383124A103B5BB252F82350A878D6
S31500003BF0FEF7F8FD40F251120E4BA01903EB8004BC
S31500003C00D5E909672284AA78800000F128012230CC
S31500003C1018441944E76384F82420A663FEF752FB90
S31500003C202146BDE8F8400520FFF7FAB9E45900201F
S31500003C30E4660020E85900202DE9F04104461546C7
S31500003C40104688462146FDF7CBF921462846FDF762
S31500003C5001FD21462846FDF737FD164E214628462A
S31500003C60FDF780FD21462846FDF726FA56F8247012
S31500003C70F7B1114B214653F8243028463B61A7F88B
S31500003C802880FDF79DFF0022014656F82400436870
S31500003C90798511464484984756F8240002F0D6FFE9
S31500003CA00020214646F82400BDE8F041FFF71EBA81
S31500003CB0BDE8F081DC540020F455002091F8241072
S31500003CC04FEAD00C104A01EB810101EB81010CF0A7
S31500003CD0100C00F00F00012302EB81024CEA000CED
S31500003CE003E00A2B02F10A020BD0518998B201298E
S31500003CF003F10103F5D1918901F01F018C45F0D143
S31500003D007047FF20704700BF2C55002000207047E9
S31500003D1008B5FDF7DDF9C0F3C01008BD092800D9C4
S31500003D20704770B50446114B014653F8205028469B
S31500003D302E69FDF755F90E4BAA6843F824600D4B22
S31500003D40214643F824202846FDF782FD21462846D1
S31500003D50FDF736FD20462A460021FFF745FD2146A0
S31500003D602846BDE87040FEF7C3BF00BFDC54002004
S31500003D70F45500201C5600202DE9F04F092883B089
S31500003D8058D8154650EA010204460E4666D00A4641
S31500003D90002301462846FDF737F9FF284AD0214679
S31500003DA02846FCF7C9FF0746DFF8DC90214628467F
S31500003DB0FEF760FF59F82430BB46BB422AD94FF0C4
S31500003DC0020821462846FEF74BFF0346DFF8BCA053
S31500003DD0214628460193FDF703F92B46314638461E
S31500003DE05AF82420FEF7F6FB59F824304AF8240046
S31500003DF09B4525D8DB1B49F8243021462846FDF78C
S31500003E0027FD019B03F00303012B31D0404603B08D
S31500003E10BDE8F08F43B39FB2B7FBF0F800FB187014
S31500003E201FFA80F8B8F1000F2AD1002C08BF4FF016
S31500003E300208C6E74FF0FF08404603B0BDE8F08F22
S31500003E4000233146284649F82430FDF739FB0304A0
S31500003E50D3D431462846FDF76DFBCEE72023114625
S31500003E602846FDF7D1F898E71F464FF00108A8E766
S31500003E7028462146FEF73CFF404603B0BDE8F08FDA
S31500003E804FF001089DE700BFF45500201C560020A6
S31500003E90092800D970471B4B70B553F820600446BB
S31500003EA0014630463569FDF79BF80023164AB1688E
S31500003EB042F82450154A304642F8241021461A4644
S31500003EC0FDF7D0F821463046FEF7D4FE4DB1B5FBDE
S31500003ED0F0F200FB125595B92146304692B2FDF735
S31500003EE0D7F821463046FEF703FF21463046FDF758
S31500003EF095FB21463046BDE87040FEF7ABBE013269
S31500003F00EAE700BFDC540020F45500201C560020D0
S31500003F1009282DE9F04734D8164604460A4689464C
S31500003F20002301463046FDF76FF8FF2829D0324FAF
S31500003F30C0F30B0521463046FEF79CFE57F82430A9
S31500003F40AA46AB422DD33CD005B3B5FBF0F300FB3C
S31500003F50135080B2002847D14FF002082846274D5B
S31500003F603346494655F82420FEF798FB45F82400C9
S31500003F7057F824304046A3EB0A0347F82430BDE83F
S31500003F80F0874FF0FF084046BDE8F08721463046EF
S31500003F90FDF726F84FF0010849463046FDF702FBCB
S31500003FA0E6E721463046FDF71BF857F824304FF078
S31500003FB003089AB2924647F82450002DECD01546D5
S31500003FC0CCE74CB9B5FBF0F300FB135080B218B93F
S31500003FD02A464FF00208F0E721463046FDF700F882
S31500003FE04FF000082A46E8E721463046FCF7F8FF7E
S31500003FF04FF00108B2E700BFF45500201C56002020
S31500004000092800D97047FFF717BE00BF2DE9F8430E
S31500004010012480460E462746DFF8509002E0013420
S315000040200A2C1AD007FA04F31E42A5B2F7D0294685
S315000040304046FDF70DFC59F82430002BEFD02946F9
S315000040404046FEF72BFE102809D04246002128469E
S315000040500134FFF791FB0A2CE4D1BDE8F88328462A
S3150000406042460021FFF7C0FBD9E700BFDC54002021
S315000040702DE9F843012480460D462746DFF8449093
S3150000408007FA04F31D42A6B209D059F8243033B119
S3150000409031464046FEF710FEB0F5404F04D00134DD
S315000040A00A2CEDD1BDE8F8834046FDF7F5FB10F488
S315000040B0004F4246304614BF05210721FEF738FB64
S315000040C0EDE700BFDC5400202DE9F0470124064649
S315000040D00D462746DFF8C890DFF8C88007FA04F3D4
S315000040E01D421FFA84FA25D059F8243013B396F8E6
S315000040F0243003EB830304EB430338F81330012B1E
S3150000410018D051463046FEF7ABFD820736D45146ED
S315000041103046FDF755FD430439D496F82430504611
S3150000412003EB830304EB43033246012128F81370A3
S31500004130FFF782FD0134062CD0D14FF00108DFF8DD
S31500004140609008FA04F31D42A7B20ED059F8243045
S315000041505BB139463046FEF783FD10F0020F32465A
S31500004160384607D00621FEF7E3FA01340A2CE8D1D7
S31500004170BDE8F0870121FFF75FFDF6E750463246BE
S3150000418006210134FEF7D4FA062CA7D1D5E751460D
S3150000419030460134FDF7B6FA062C9FD1CDE700BFB5
S315000041A0DC540020045500204378052B0AD130B595
S315000041B0C37803F00303022B2BD0032B05D0002377
S315000041C0184630BD00231846704790F9023090F823
S315000041D002C0002BF3DA022AF1D1642291F82450AE
S315000041E0334902FB0512948F002CE8D10CF00F0323
S315000041F043F4004343F010038088D38701239D4294
S31500004200A2F84200A2F8444093874FD106221346F3
S3150000421020E090F902C090F802E0BCF1000F20DB2C
S315000042200A2ACCD1642291F82440214902FB0412C7
S31500004230958A002DC3D18088958350830EF00F0098
S3150000424040F48540D082012084429082B8D11A463B
S3150000425047F6484402EB820201EB4202A2F86840AC
S31500004260AEE70A2AABD14FF0640C91F8243010491E
S315000042700CFB031CBCF80A40002CA0D10EF00F0268
S3150000428042F4844242F010028088ACF80C200122ED
S315000042909342ACF81240ACF81000ACF80A2003D1F7
S315000042A01A4647F60844D5E7134689E7062387E703
S315000042B02C55002000B56FF0630E00210EFB00FEAA
S315000042C00E4B00EB800203F15A0C02EB820203EB69
S315000042D082030CEB820C0EF1720E5A89012A07D169
S315000042E001285981998108BF23F80E101982598235
S315000042F00A336345F1D15DF804FB00BF2C5500205D
S315000043002DE9F041012464270546244E02E00134DC
S315000043100A2C2BD095F8242004EB840307FB02F229
S3150000432002EB4303F35A012BF1D100212846FDF796
S3150000433009F81FFA84F800F00F00804518D0012113
S315000043402846FCF7FFFF00F00F0080451ED0022133
S315000043502846FCF7F7FF00F00F0080450FD04146D6
S3150000436028460134FCF70EFD0A2CD3D1BDE8F081B6
S31500004370002328461A461946FCF774FEDFE7002399
S31500004380022228461946FCF76DFEE8E700230122C3
S3150000439028461946FCF766FED9E700BF2C550020D3
S315000043A0F8B50124642705460B4E02E001340A2CB9
S315000043B011D095F8242004EB840307FB02F202EBEC
S315000043C04303F35A012BF1D1A1B228460134FCF77D
S315000043D095FD0A2CEDD1F8BD2C55002038B50446C4
S315000043E00C4D00F0BFF8FFF703F92046FEF796FCE8
S315000043F06B691BB1014600222046984720460021E2
S31500004400FDF7C2FA2B682046D979BDE83840FDF79A
S31500004410EFBA00BFF458002010B504460A20FDF795
S31500004420E5FE94F82400BDE81040FEF703BA00BF8D
S315000044302DE9F0410546FCF771FE95F82400FEF7DC
S315000044400DFA0023184A01241380184A6427184ECF
S31500004450138001E00A2C19D095F8243004EB84026D
S3150000446007FB03F303EB4203F35A1FFA84F8012B0D
S3150000447004F10104EED12A4608214046FEF758F918
S3150000448041462846FCF73AFD0A2CE5D1094BDB6983
S315000044901BB100221E212846984795F82400BDE846
S315000044A0F041FEF7BFB900BFF25800206A5900205C
S315000044B02C550020F458002070B5044690F82400CE
S315000044C0FEF7F0F994F82400FDF76AF90546204650
S315000044D0FCF752FE6B0603D500F00300012809D055
S315000044E094F82400FEF702FA94F82400BDE8704020
S315000044F0FEF7ECB994F82400FEF794F900F034F8CE
S31500004500054B1B6A33B105492046BDE870400022C1
S315000045100988184770BD00BFF45800206A5900206A
S31500004520FEF754B870B506463046FDF739F905462C
S315000045300A20FDF757FE3046FDF732F904460A20F9
S31500004540FDF750FE3046FDF72BF985EA040344409B
S315000045501C432306E8D415F0800F14BF40204320E7
S3150000456070BD00BF704700BF704700BF70B50E46F4
S3150000457000210C4640220546254806F0ACF82146A7
S315000045804FF4FF72234806F0A6F8234B234A1C601B
S315000045905C60234B14801C80224B23491C80234BD8
S315000045A0234A1C80234B0C801C80234B21461C80F5
S315000045B0224B1460224834221C8006F08CF82146D7
S315000045C02822204806F087F821460E2428221E4875
S315000045D006F081F81D4B03F5B4729C7124339A42A0
S315000045E0FBD100241A4B21461C605C609C60DC6099
S315000045F01C612822174806F06EF8174A174B3146F9
S31500004600284614801C80BDE87040FFF7C9B900BF7A
S3150000461028590020F4560020745900209C59002087
S315000046207E5900206E5900207C59002070590020C8
S31500004630805900206859002098590020F056002023
S31500004640F45800201C560020F45500207C620020FF
S3150000465084590020DC540020F25800206A590020BA
S315000046602DE9F0410025174B174A1B88158003F4E6
S315000046707F43B3F5106F0ED0B3F5306F19D1134BDE
S315000046809B6AB3B1124A134914882A4631F81410AA
S31500004690BDE8F0411847104E104F04463088B7F871
S315000046A00080FEF7B9FF3388434502D0074B9B696C
S315000046B00BB9BDE8F0812A4620463988BDE8F041AD
S315000046C0184700BF7C59002098590020F458002054
S315000046D06E590020F45600207E590020F258002022
S315000046E08E4B0246198801F47F43B3F5006F5AD00A
S315000046F030B583B017D8002B31D0B3F5C06F35D1A4
S3150000470011F01F0338D1864B19880B0A013BCCB236
S31500004710062B2BD8DFE813F07900B500A6002A0097
S315000047202A00C6008600B3F5206F1FD101F01F01D5
S3150000473001291BD17A4B1B88C3B97A4B18880128EB
S3150000474014D1794B1B88FE2B10D8784C784934F855
S3150000475013300B7003B0BDE83040FEF713BD704B4D
S315000047601B881BB96F4C2488022C30D0104603B02E
S31500004770BDE83040FDF72ABF012BF7D16A4B6D48E3
S315000047801B88674C674D83806B4B24880180DB6AEE
S3150000479029884480C180002B00F09E80002103B050
S315000047A0BDE83040184760485D4BB0F800C01B8834
S315000047B001F01F0043EA0C01014389B221B9594BAC
S315000047C01888012800F082801046FDF7FFBE5B4C7A
S315000047D001F01F010129238000F0908002297DD07D
S315000047E00029C3D1504B1B88002BBFD10190FEF787
S315000047F0BBFF534B20701B88019A012B04BF40F06E
S315000048000200207002204D49A4E7474B1B88234332
S31500004810ACD14949434B096818880B78834299D82B
S31500004820184697E70190FFF773FA0128019A9DD180
S315000048303D4B1B88234399D11046FEF76FFA3E4B3A
S31500004840384CD3E90213C02818BF19462488C87803
S315000048508B78019A03EB002398B2A0427FF67AAFD9
S31500004860204677E7344B93F83010A1427FF67EAFAF
S3150000487019692C4B51F8241018880B788342CFD92C
S3150000488068E7294B1B8823437FF470AF0190FEF73E
S3150000489045FA244C284B2488D3E90213C02808BFC4
S315000048A01946D4E70190FFF733FA0128019A7FF4FD
S315000048B05DAF1D4B1B8823437FF458AF1E49194B30
S315000048C0496818880B788342AAD943E71D4B1E49CD
S315000048D01B880B70FEF756BC03B030BD124D2B88FB
S315000048E01B0733D190F824000192FDF799F810F0D8
S315000048F0020F019A86D00123237083E70190FDF70A
S31500004900FFFD0128019A7FF431AFFEF79FFE064BAB
S31500004910019A1B888342FFF475AF27E77C59002074
S315000049207E590020705900206E590020F456002050
S315000049306862002074590020F4580020706200203C
S315000049406A590020F25800206C6200200190FDF7A1
S31500004950D7FD0128019A7FF409AF11462888FFF791
S31500004960ADF9FF280146019A3FF400AF1046FEF765
S3150000497077F910F0020F019ABDD143E7FDF726BE85
S31500004980F0B5A64D04462A888DB002F47F43B3F5F0
S31500004990A06F00F089801DD9B3F5106F00F09580E7
S315000049A0B3F5306F09D1FDF7ABFD012805D12B8892
S315000049B003F01F03012B00F0C0802046FDF706FE22
S315000049C0974E3388012B2AD021460020FEF746FC5D
S315000049D00DB0F0BDB3F5807F4AD0B3F5407FECD182
S315000049E0904B1B88002BE8D112F01F0200F0E380E9
S315000049F0022AE2D18C4B1B88002BDED18B4B188808
S31500004A00020707D02146FFF759F9FF28D5D02146DE
S31500004A10FDF7D6FD00212046FEF76AF9D0E7902380
S31500004A2000272A888DF80F3094F82430ADF8182026
S31500004A308DF80C307C497D4A7A4B128809881B8890
S31500004A40ADF81C20ADF81A10ADF81E300597ADF87C
S31500004A50107003F04BFF034603A908200893FEF7E6
S31500004A606DF9214600203780FEF7F8FB0DB0F0BD4A
S31500004A706C4B1B88002BA0D112F01F0200F0858022
S31500004A80022A9AD1684B1B88002B96D1674B1B884C
S31500004A9013F00F0140F098800191FEF72FF92046A0
S31500004AA00199FEF725F98BE7604B5E491B8809885B
S31500004AB002F01F020B431A4392B2002A7FF47DAF25
S31500004AC0594B1B887F2BA5D977E7D3067FF475AFA3
S31500004AD0574B554F9A683B8852799A4202D0002B21
S31500004AE07FF46BAF514A4F4B168819880E43B6B206
S31500004AF0002E7FF462AF31462046FEF7F9F83B8878
S31500004B00002B3FF45DAF4B4A12889A423FF458AFF0
S31500004B10FEF790FDFEF79AFD074638B130460021B4
S31500004B200136FEF7C3FDB0B28742F8D82046FFF73C
S31500004B3037FC2046FFF7E4FB42E7FEF787FD3B4ED6
S31500004B4033889842FFF439AF364A1788002F7FF42E
S31500004B5034AF1846FEF780FD334B1B889842FFF4AE
S31500004B602CAF32883946344FDBB2204627F8123054
S31500004B70FEF7BEF8FEF75EFD308837F81010FEF738
S31500004B8095FD2046FFF7BCFB1AE7274B1B88012B38
S31500004B907FF413AF254B1E88002E7FF40EAFFEF771
S31500004BA0D5FD01287FF409AF244B314620461E80EF
S31500004BB0FEF79EF804E71C4B1B88012B5AD0022BEC
S31500004BC042D0FFF7ADFCFBE601461846FFF776F844
S31500004BD0FF2806463FF4F1AE01462046FEF740F8B0
S31500004BE001283146204656D0FEF788F83146204641
S31500004BF0FDF778F800212046FEF77AF8104B33F8D7
S31500004C001620012A7FF4DCAE00220E4920460F68EA
S31500004C1023F816201146B847D2E600BF7C5900207B
S31500004C2098590020705900207E5900206E590020A6
S31500004C30F4580020F2580020F45600206A5900204B
S31500004C408459002080590020FEF768F8C0287FF4B8
S31500004C50B4AE164B1B88A3F5804211047FF5ADAEAA
S31500004C6001261349134A0B80204600211680FEF7C1
S31500004C703FF8A5E60D4B1E88002E7FF49EAEFEF78C
S31500004C8065FD01287FF499AE0B4B3146188020460E
S31500004C90FEF72EF894E6FCF7A3F931462046FDF719
S31500004CA021F831462046FEF723F8A3E76E59002087
S31500004CB09C5900209A5900206A590020F0B5294EC7
S31500004CC0044633888BB003F47F43B3F5006F06D0F8
S31500004CD013D9B3F5206F02D0B3F5406F12D1224D30
S31500004CE000212046FEF704F82B88012B11D021461F
S31500004CF00020FEF7B3FA0BB0F0BD002BEFD0B3F5F2
S31500004D00C06FECD0184D2046FDF760FC2B88012BB8
S31500004D10EDD19023002732888DF8073094F824309F
S31500004D20ADF810208DF804301049114A114B128845
S31500004D3009881B88ADF81420ADF81210ADF81630AE
S31500004D400397ADF8087003F0D1FD034601A90820CA
S31500004D500693FDF7F3FF214600202F80FEF77EFA2B
S31500004D600BB0F0BD7C590020985900207E590020D8
S31500004D706E59002070590020F0B5224E0446338843
S31500004D808BB003F47F43B3F5E06F0BD01E4DFDF7F8
S31500004D901DFC2B88012B0CD021460020FEF75EFA65
S31500004DA00BB0F0BD184D0021FDF7A2FF2B88012B9B
S31500004DB0F2D19023002732888DF8073094F82430FA
S31500004DC0ADF810208DF804301049114A114B1288A5
S31500004DD009881B88ADF81420ADF81210ADF816300E
S31500004DE00397ADF8087003F081FD034601A908207A
S31500004DF00693FDF7A3FF214600202F80FEF72EFA2B
S31500004E000BB0F0BD7C590020985900207E59002037
S31500004E106E59002070590020024630B500250C4618
S31500004E208BB05168006804AB03C329462046FDF7E2
S31500004E305FFF902394F824208DF807308DF8042026
S31500004E400395ADF8085003F051FD034601A908206B
S31500004E500693FDF773FF044B214628461D80FEF797
S31500004E60FDF90BB030BD00BF98590020024630B5A1
S31500004E7000250C468BB05168006804AB03C3294675
S31500004E802046FDF735FF90220E49BDF8163008681A
S31500004E9094F824101B1A8DF807208DF8041003933C
S31500004EA0ADF8085003F022FD034601A90820069339
S31500004EB0FDF744FF044B214628461D80FEF7CEF938
S31500004EC00BB030BDF45500209859002010B50346AC
S31500004ED000888CB000F06000202801D0402806D160
S31500004EE005295FD8DFE801F02F19501957354FF023
S31500004EF0900E92F824C000221868596806AB8DF807
S31500004F000FE003C3072003A98DF80CC00592ADF886
S31500004F101020FDF713FF0CB010BD00244FF0900CCD
S31500004F201868596892F8242006AB8DF80C2003C344
S31500004F30072003A90594ADF810408DF80FC0FDF7C2
S31500004F40FDFE0CB010BD00231A491B4A0B801380CE
S31500004F50E1E700244FF0900C1868596892F824E0B5
S31500004F6006AB03C303A9072001928DF80CE0059454
S31500004F70ADF810408DF80FC0FDF7E0FE019A20460F
S31500004F801146FEF76BF9C6E7114618460CB0BDE8A8
S31500004F901040FFF741BF114618460CB0BDE810405F
S31500004FA0FFF764BF114607200CB0BDE81040FEF7BE
S31500004FB055B900BF685900209859002040F2DC50CE
S31500004FC0704700BF0246024B00201A60704700BFC0
S31500004FD07462002040F2DC50704700BF40F2DC50A3
S31500004FE0704700BF40F2DC50704700BF40F2DC5013
S31500004FF0704700BF03461B7800200B70704700BF48
S315000050000346DB7800200B70704700BF03465B78D1
S3150000501000200B70704700BF03469B7800200B7082
S31500005020704700BF03469B6800200B60704700BFB7
S315000050300A4600F10C0303CB106051600020704754
S3150000504028B1002940F2DC5008BF0120704701203A
S31500005050704700BF40F2DC53002814BF18460120F9
S31500005060704700BFF0B58B78424F0370CA78424E46
S3150000507002F07F02C2700A6A93B08261CA6947F879
S315000050802320F25C012A5FD0054608780C460128E9
S315000050901BBF0221394A394A22F813101388528855
S315000050A09BB292B29A4216D131787378194345D0A1
S315000050B0012200212B78324FF25447F823104FF487
S315000050C02A72304805F007FB2378012B0AD1002607
S315000050D0304613B0F0BDFDF7C5FE0028E4D040F21F
S315000050E0DC56F5E72878FCF71BFF06460028EFD1CB
S315000050F021462846FFF73AFA21462878FCF7F6FFBC
S315000051006378022B25D02878FDF728FC2878FFF74E
S3150000511009FA402824D02378012BD8D030462B78A2
S3150000512057F8232042F0010247F8232057F823209E
S3150000513042F0020247F8232013B0F0BD4FF4B472D8
S31500005140114805F0C8FAB3E740F2DD56304613B011
S31500005150F0BD2B7801A88DF82830FBF7F7FFD2E7D2
S315000051602878FBF7CFFF0A20FDF740F82878FDF7EF
S3150000517061FBD0E7746200209C66002098660020E0
S31500005180E4630020EC6300207C62002070B54FF0E1
S31500005190060C0C4603782C4A2C4E32F8131084F871
S315000051A002C056F8231092B000293DD032F81320E1
S315000051B08DF8283093B2012B02D1002012B070BDB9
S315000051C000260546267001A8FDF7A8FD80282FD0E9
S315000051D0C0280ABF0223667063702878FCF7E0FADD
S315000051E000F07003202B29D010D9302B23D02F2B81
S315000051F004D800231846E37012B070BD602B02D0AD
S315000052000AD9702BF5D10423A370F2E7CBB1102B8A
S31500005210EFD10123A370ECE700F060004028F2D044
S3150000522000231846E370E7E740F2DC5012B070BD89
S3150000523001236370D1E70323A370DAE70223A37087
S31500005240D7E70623A370D4E798660020E46300201E
S315000052501A4B007833F810309BB2012B01D1002095
S31500005260704710B50C46FCF79BFA00F07003202B34
S315000052701ED006D8CBB1102B07D1012323800020E6
S3150000528010BD302B17D02F2B02D800232380F6E732
S31500005290602B02D004D9702BF7D104232380EEE7CC
S315000052A000F060004028F0D1F7E706232380E6E708
S315000052B002232380E3E703232380E0E798660020A8
S315000052C0002370B592B08DF80230254E03788270B7
S315000052D036F813200D46427869468DF82830044684
S315000052E0FFF754FF9DF80230032B23D1227836F8BE
S315000052F012309BB2012B1FD0642000FB02F2A17872
S31500005300184B01EB810002EB40021A44538801A8B6
S3150000531003F00F02DB0648BF62F07F022A70FDF73A
S31500005320CBFCB0F5004F18D0B0F5404F12D0B0F519
S31500005330804F04D040F2DC53184612B070BD0023F3
S315000053406B70A17801A8FDF795FC002368801846CC
S3150000535012B070BD02236B70F3E701236B70F0E7A8
S31500005360986600202C55002008B5074B007833F8C6
S3150000537010309BB2012B03D0FDF752FB002008BD75
S3150000538040F2DC5008BD00BF9866002030B5104DD5
S31500005390037893B0EA5C8DF82830012A13D00122F5
S315000053A0044601A8EA54FDF745FD034630B140F234
S315000053B0DC5040F2E152D52B08BF1046002223787C
S315000053C0EA5413B030BD40F2DD5013B030BD00BF1B
S315000053D09466002070B505460078FCF749FE28BBA8
S315000053E00446144B2878144E1C5436F810300146E7
S315000053F09BB2012B12D10022104B43F82020328899
S31500005400738892B29BB29A4204D10023204626F8B2
S31500005410113070BDFDF784FD2978F6E7FEF7A8FA8E
S315000054202878FEF747FF28780146E4E74FF4BC6486
S31500005430204670BD9C66002098660020E46300202C
S31500005440F0B504461646124F027883B037F81200BC
S315000054500D4680B2022804BF03F07F03E3702046A6
S31500005460627801A9FFF792FE9DF80630032B03D060
S3150000547040F2DC5003B0F0BD324629462046FDF727
S3150000548079FB0028F6D0D528F2D140F2DD50F1E7BD
S3150000549098660020F0B504461646124F027883B08F
S315000054A037F812000D4680B2022804BF03F07F03CE
S315000054B0E3702046627801A9FFF768FE9DF8063082
S315000054C0032B03D040F2DC5003B0F0BD3246294630
S315000054D02046FDF771FB0028F6D0D528F2D140F220
S315000054E0DD50F1E7986600204FF0000C30B5134B05
S315000054F00D46017883B033F8113001A99BB2022B17
