S01D0000627269636B4D4C5F496E666572656E63655F494D552E737265632B
S315000000004839012055DD000081DB000051DD00008C
S3150000001051DD000051DD000051DD000051DD000022
S31500000020000000000000000000000000697C0000E5
S3150000003051DD000000000000817C0000E97C00002A
S3150000004089CA0000FDC9000015CB000055CB000091
S3150000005091D40000CDD50000B9D600007DD70000B0
S315000000606DD90000B5940000E594000019950000D4
S3150000007039950000599500000000000000000000BE
S31500000080000000000000000000000000000000006A
S31500000090000000000000000000000000000000005A
S315000000A0000000000000000000000000000000004A
S315000000B0000000000000000000000000000000003A
S315000000C0000000000000000000000000000000002A
S315000000D0000000000000000000000000000000001A
S315000000E0000000000000000000000000000000000A
S315000000F000000000000000000000000000000000FA
S3150000010000000000000000000000000000000000E9
S3150000011000000000000000000000000000000000D9
S3150000012000000000000000000000000000000000C9
S3150000013000000000000000000000000000000000B9
S3150000014000000000000000000000000000000000A9
S315000001500000000000000000000000000000000099
S315000001600000000000000000000000000000000089
S315000001700000000000000000000000000000000079
S315000001800000000000000000000000000000000069
S315000001900000000000000000000000000000000059
S315000001A00000000000000000000000000000000049
S315000001B00000000000000000000000000000000039
S315000001C0FFFFFFFFFFFFFFFFFFFFFFFFFFFFFFFF39
S315000001D0FFFFFFFFFFFFFFFFFFFFFFFFFFFFFFFF29
S315000001E0FFFFFFFFFFFFFFFFFFFFFFFFFFFFFFFF19
S315000001F0FFFFFFFFFFFFFFFFFFFFFFFFFFFFFFFF09
S3150000020010B5054C237833B9044B13B1044800E00C
S3150000021000BF0123237010BDB805002000000000B8
S315000002203CCF010008B5034B1BB10349034800E06E
S3150000023000BF08BD00000000BC0500203CCF010047
S31500000240F8B5114B05469E681F68346838465968EC
S31500000250A047B8B90122294638463369984704466B
S3150000026000210A4B5022C3E90011C3E902110848D4
S3150000027015F0A3FA07480DF0E7FE0246064B2046A6
S315000002801A60F8BD0446EBE7D0B80100240600204A
S31500000290D4050020480600204406002030B58C46D0
S315000002A08646104913460A6883B001320A600E4A30
S315000002B0916810688C6862467146A047044668B922
S315000002C04FF47A750949034601220868082100950A
S315000002D00DF0E2FE10F0080F08BF1224204603B00E
S315000002E030BD00BF40060020D0B801004406002003
S315000002F030B58C468646104913460A6883B00132EB
S315000003000A600E4A916810684C6862467146A047BA
S31500000310044668B94FF47A7509490346012208680C
S31500000320042100950DF0B8FE10F0040F08BF12244A
S31500000330204603B030BD00BF3C060020D0B8010007
S315000003404406002010B504464FF0010C124B2279EA
S3150000035082B01968114801AB0CFA02F20FF090FF57
S315000003602379022B05D0032B0FD0012B07D002B027
S3150000037010BD0B4A13880133138002B010BD094A21
S3150000038013880133138002B010BD074A1388013366
S31500000390138002B010BD00BF4406002051E20000E9
S315000003A0360600203406002038060020044B1B6861
S315000003B08B42A3BF034B03EBC10148680020704783
S315000003C0240B0020D40A0020014800EB811070475E
S315000003D064060020024801EB410100EB81007047F2
S315000003E068090020164B174A70B51C681268641A13
S315000003F094420D4611D2144E3368092B15D80121AB
S31500000400284601F0F3FB0446A8B133680F4A591C8D
S31500000410316042F82300204670BD0A46204600217E
S315000004201C6015F0CAF9204670BD0024084801F08A
S3150000043011FB204670BD2946064801F00BFBEAE792
S31500000440F80A0020F40A0020280B0020FC0A0020ED
S31500000450F0A0010070A10100F8B5104D2B68032B28
S3150000046011D80F461446FFF7BDFF034680B12E682C
S315000004700020721C2A600A4A266042F8367002EB97
S31500000480C6025360F8BD074801F0E4FA0120F8BD42
S315000004903946054801F0DEFA0120F8BD240B00209C
S315000004A0D40A0020A8A1010000A201002DE9F04F06
S315000004B003464FF4887110208DB09847754B18602D
S315000004C0002800F0E18084460B20734A73491060CF
S315000004D07348744C10647448916050647348946314
S315000004E0106573480B465065DFF8E4A17149724AFE
S315000004F00CF58870E1464FF00008704CCAF800C051
S315000005000190086002F5847E18E051685960216008
S315000005109BE8030085E8030093F83010012906D113
S315000005205169D1E9005069684068D960186118328C
S31500000530724503F1400304F10C0434D0D2E90206FB
S3150000054011785778022903F1300502F1100B1F705C
S3150000055083F82D8019759E61986027726060D4D1EA
S31500000560DBE90001556803F1300765445D6087E803
S31500000570030093F830102560012906D15169D1E9AD
S31500000580007079684068D96018613544A94502F160
S3150000059018023CBFA946CAF80050724503F1400351
S315000005A004F10C04CAD1019B4B4566D3DFF82491B4
S315000005B004A800F009FDCC4604AF0FCFACE80F004D
S315000005C03F4E97E80F008CE80F0004A802970196AB
S315000005D000F05CFE04A804464FF0000C09F120026E
S315000005E003920FCC039CDFF8F0800FC4DFF8ECB069
S315000005F0DFF8ECE0029B45460FCB674684E80F0028
S31500000600704659462F4A019C06F1900A4FEA4C1C47
S3150000061059F80C30C4E90002C4E90517E7611BB1BB
S3150000062000221D48984720612434544506D0D5E958
S315000006300402A96995F81CC01035E7E7002309EB09
S3150000064043139B68144C08F110081BB13146204631
S31500000650984778B9243656450BD098F80C3008F1EF
S31500000660100809EB43139B68002BEFD1243656453F
S31500000670F3D100200DB0BDE8F08F134801F0EAF980
S3150000068001200DB0BDE8F08F104801F0E3F901201C
S31500000690F0E700BF24090020EC09002064060020D2
S315000006A059040000E5030000AD030000C903000083
S315000006B0D5030000F80A0020000000206809002089
S315000006C0440A0020FCA801005CA2010034A201003B
S315000006D0F40A002028090020BCA80100A0A80100F7
S315000006E068A80100014B9868704700BFEC0900201C
S315000006F0024B986800F52070704700BFEC09002097
S3150000070000232DE9F0410B4C0B4D0C4EDFF83080E9
S3150000071004F1900706EB431321464046DB689847F1
S315000007202434103518B9BC4201D02B7BF2E7BDE862
S31500000730F08100BF440A0020BCA80100280900205F
S31500000740EC09002070B500240A4A0B4E03461068D7
S3150000075098470A4A3368146043B1094D55F8040BAB
S3150000076001F046FA33680134A342F7D8002030601E
S3150000077070BD00BF24090020280B0020240B002098
S31500000780FC0A0020084A094B126802F1300002F107
S3150000079010015A60C3F8AC00C3F8C420C3F8DC10DB
S315000007A0C3F8F420704700BF240900200000002091
S315000007B0002370B584B0019383790446013B092B6D
S315000007C00DD8DFE803F00C0C170C0C0C240C1905E3
S315000007D02A4B01A918680EF0A9F8012800D100BF1C
S315000007E0019B3BB14FF08052254B5A60BFF34F8FB0
S315000007F0BFF36F8F04B070BD224A0023106804F166
S31500000800080101AA0EF01EF80128E9D1E7E71E4DFE
S3150000081002A92B6F9847BDF8083003F47F43B3F560
S31500000820005F1DD0B3F5045F21D0A38903F47F4395
S31500000830B3F5085FD4D1154E022231462046AB6C83
S3150000084098470028CCD1E2893388C2F3400162F38D
S31500000850000333803288019B61F341023280C0E796
S31500000860AB6C072220460A499847019BB9E7EB6C17
S315000008700722204606499847019BB2E7A40E0020AE
S3150000088000ED00E0080E002078BB0100300B0020D0
S315000008908402002038B50B4B0B491B680B48984760
S315000008A0054660B90A4C2388DA0705D401200EF004
S315000008B09FFF2388DB07F9D50122064B1A702846CD
S315000008C038BD00BF78BB01002CB90100985D00203F
S315000008D0300B00202C0B002070B50C460146134847
S315000008E08023C568164612482246A847054660B9C1
S315000008F06EB1721C0F4B0FD0A10A02311868C9B233
S315000009000EF03EF901280DD01225284670BD0120B3
S315000009100EF06EFF284670BD314618680EF030F9AD
S315000009200128F2D100BF284670BD00BF78BB010088
S31500000930985D0020A40E00202DE9F04F1D4B83B0DA
S315000009401B78019083B364298A4626D900251A4B61
S31500000950DFF87090D3F80C80184FAAEB050BBBF1AB
S31500000960640F28BF4FF0640B019B5E1980235A4623
S3150000097031463846C04704460028F7D10221D9F847
S3150000098000000EF0FDF80128F0D100BF6435AA453D
S31500000990E3D8204603B0BDE8F08F0024FFF79CFFA4
S315000009A0204603B0BDE8F08F054C204603B0BDE8F5
S315000009B0F08F00BF2C0B002078BB0100985D002053
S315000009C0925F0100A40E002010B5044608300DF019
S315000009D03BFB034604F12401636001200DF0E0FEB9
S315000009E0E066BDE81040FFF755BF00BFF0B50668EA
S315000009F004460F4615460121C06E83B0BEB10EF007
S31500000A00BFF80128064601D003B0F0BD23682A4688
S31500000A109D6818683946AB689847B0B100231A46F6
S31500000A201946E06E03B0BDE8F0400DF0EDBD0EF0E6
S31500000A30A7F80128E8D1324629463846FFF77CFF59
S31500000A40334632463146E06EECE7009603463246C0
S31500000A50042160680DF020FBE0E700BF0EB4002122
S31500000A6070B5ADF5037D87AC54F8046B05464FF4BD
S31500000A70FE7203A8029114F0A0FE324623464FF4FC
S31500000A80007102A8019416F0FBFD02A815F0FAFE0B
S31500000A90024602A92846D2B2FFF7A8FF0DF5037D4C
S31500000AA0BDE8704003B07047036810B5052B0446D7
S31500000AB003DD406808B10FF073FC204610BD00BF8F
S31500000AC0836B0BB12421184710B514F015FE00BF37
S31500000AD02DE9F047D1F8108096B0B8F1000F00F07C
S31500000AE006814D690C46002D00F00181824B0646B9
S31500000AF01A6800F039FE0746002836D07F4B21469B
S31500000B0030461A6800F030FE814608B37C4B214619
S31500000B101A68304600F060FE7A4B214682461A6813
S31500000B20304600F03DFE0446002800F096803878F6
S31500000B302378834278D199F800209A4218D001256B
S31500000B403046736970499847284616B0BDE8F08765
S31500000B5043236E497469304600916D4A6D49A0473A
S31500000B600125284616B0BDE8F08740236A49F1E71B
S31500000B704FF0FF3329783046C8F820303B46CDE9A0
S31500000B800248CDF804A0CDF8009000F041FA0546E1
S31500000B900028E6D13B78092BE3D1D9F8087057F83D
S31500000BA0042B052A0A926FDC92000BA8394614F032
S31500000BB0DDFDA76857F8044B052C109456DCA400FD
S31500000BC011A82246394614F0D1FD109B022B40F0A5
S31500000BD08C800A9B5A1E7CD4052B41DD0B9B53F857
S31500000BE0222001230692129A06A8CDE9073309921C
S31500000BF002F0C2FE011E57DD3046336C08F12002BA
S31500000C0098470446002854D1109B052B03DD119804
S31500000C1008B10FF0C5FB0A9B052BA2DD0B98002837
S31500000C209FD00FF0BDFB9CE7776900F0E9FE034615
S31500000C3020781C4600F0E4FE84460125374B3046FA
S31500000C400193374BCDE9024C0093314A492335498C
S31500000C50B847284616B0BDE8F0874723324979E7FA
S31500000C6016AB03EB820252F82C2CBAE76FF0604306
S31500000C709C423FDAA40020460FF0FEFE109B119026
S31500000C80052BD8BF11A89CE76FF060439A422ADA79
S31500000C909200104605920FF0EFFE0A9B0B90052B73
S31500000CA0059AD8BF0BA881E74FF0FF33C8F820306C
S31500000CB0AAE7109B052B03DD119808B10FF070FB16
S31500000CC00A9B052B03DD0B9808B10FF069FB25463F
S31500000CD047E714F011FD10A8FFF7E6FE0AA8FFF794
S31500000CE0E3FE0FF05FFB0FF015FC14F005FD14F0AA
S31500000CF003FDF3E70FF00EFCFCAB010004AC0100B2
S31500000D00F8AB010000AC01000CAA0100ACA901007F
S31500000D1034A9010080A9010098A90100F0A90100E9
S31500000D2000AA0100D4A90100C0A901002DE9F04FD5
S31500000D30B5B0DDF8FC9082460C4622A849461D4611
S31500000D40904600F09DF9229B022B40F0B580DDE92C
S31500000D5023B6294628A800F093F9289B5A1E00F1CD
S31500000D60BB80052B40F39980299B53F8227041469E
S31500000D702EA800F085F901230021CDE90E33CDE937
S31500000D801233CDE91533CDE91A3362691793A36897
S31500000D9052422093E3681D92A2692193236852422E
S31500000DA01E920993E2696368CDE91077CDE90B11CC
S31500000DB0CDF834B0CDF864B0149618961C961F92F0
S31500000DC00A93216A002904DB5046DAF84430984732
S31500000DD00B90B8F1000F75D0D8F80030002D6FD009
S31500000DE03E992A68002969D03E990968B9F1000F31
S31500000DF05BD0D9F8000019AF15AE11AC069004917E
S31500000E00029200930597039601940DAB09AA1DA9BA
S31500000E100BA802F077FD002845D03E992A68D8F83D
S31500000E2000300968DAF81450B9F1000F01D0D9F88A
S31500000E300090CDE90361CDE901420093CDE9057942
S31500000E400DAB09AA1DA90BA802F05CFD034602938F
S31500000E5000230393214B50460193214B214A0093D3
S31500000E602149B223A84701242E9B052B03DD2F9889
S31500000E7008B10FF095FA289B052B03DD299808B1D8
S31500000E800FF08EFA229B052B03DD239808B10FF095
S31500000E9087FA204635B0BDE8F08F34AB03EB82020B
S31500000EA052F82C7C63E70446DEE74846A3E722A80F
S31500000EB0FFF7FAFD0FF076FA14F01EFC14F01CFC96
S31500000EC014F01AFC14F018FC2EA8FFF7EDFD28A864
S31500000ED0FFF7EAFDEBE7FAE714F00EFCA4AA01001F
S31500000EE0B8AA010034A9010088AA01002DE9F04141
S31500000EF04B6982B0002B5AD02E4B04461A68002844
S31500000F0055D00B680D4603EB82035968436D98472D
S31500000F10294A2B681268064603EB82035968204665
S31500000F20636D9847254B2A681B68804602EB83024F
S31500000F305168636D20469847214B6A681B680746CF
S31500000F4002EB830251682046636D9847296971B3A5
S31500000F50357A032D11D0092D1DD0012D284667693C
S31500000F600ED000F04DFD01250246337A2046154984
S31500000F70B847284602B0BDE8F08128466769F0E721
S31500000F8000F03EFD337A02460E492046B847284611
S31500000F9002B0BDE8F08101904346324620460097F4
S31500000FA0FFF7C4FE0546284602B0BDE8F08114F0FE
S31500000FB0A3FB00BFFCAB010004AC0100F8AB0100D1
S31500000FC000AC0100DCAB01000D4B002210B58446DD
S31500000FD09E4604460B495A6019600B49C3E9042230
S31500000FE099600A49C3E90622D960BEE80F00ACE859
S31500000FF00F009EE80F008CE80F00204610BD00BFD2
S31500001000340B0020C10A0000D10A0000ED0E0000DA
S31500001010F0B5012A85B00D9E02D1002005B0F0BDC5
S315000010201C469FED157B0C9B0F46009302AB01936C
S315000010302146DDE90A2305468DED027B00F0E8FB3B
S315000010400028EBD19DED020B3046311D00F0DEFA93
S315000010500A9B22691B693946C6E905230C9B28466B
S315000010601A6906F10C03F26100930C9A06F1080363
S3150000107000F04EFC05B0F0BD0000000000000000CE
S3150000108030B5044683B071B14D6865B155F8042B8F
S31500001090052A02600CDC9200201D294614F066FB2E
S315000010A0204603B030BD00232046236003B030BD88
S315000010B06FF060439A420ADA9200104601920FF0EE
S315000010C0DBFC2368019A052B6060E6DCE4E70FF0A1
S315000010D021FA00BF2DE9F04F91B0002800F0C3803F
S315000010E00D46002900F0BF800A68436D516804462A
S315000010F098476A68064651682046636D98472A698C
S315000011000746002A00F0AF80357A6B1E082B06D8FA
S31500001110DFE803F017051505050513052400284625
S31500001120676900F06DFC337A02465749204601256F
S31500001130B847284611B0BDE8F08F0720F0E7032036
S31500001140EEE70120676900F05BFC337A02464E4900
S315000011502046B847284611B0BDE8F08F037A072B22
S315000011606AD0D2E9025B314604A8D2F81880FFF7AC
S3150000117087FF39460AA8FFF783FF049A002A02F17F
S31500001180FF301FDDDDE90A190023DDF814A09842BF
S3150000119015D0052ADBBF04AC04EB830C5AF823E018
S315000011A0DCF804E0994262DD0529DBBF0AAC04EBFA
S315000011B0830C59F823C0DCF804C0E64555D1013349
S315000011C09A42E4D1002854DB052A37DC002A3EDDAA
S315000011D00DF1140C01210023984218BF5CF823403E
S315000011E003F1010318BF61439A42F5D1052A2FDDA9
S315000011F0059B53F820200A9B98423CDA052B20DDFC
S315000012000B9B53F820309A423BD13B683068CDE9BE
S315000012100183CDF800B02B4601F052FB0A9B052B4B
S3150000122003DD0B9808B10FF0BBF8049B052B03DD1B
S31500001230059808B10FF0B4F800257AE7DDF814C078
S31500001240C8E710AB03EB800050F8143CDBE7012144
S3150000125010AB03EB800353F82C2CCCE704A8FFF764
S3150000126023FC0FF09FF814F047FA14F045FA14F037
S3150000127043FA14F041FA14F03FFA0AA8FFF714FCF7
S31500001280ECE714F039FA00BFDCAB010010B5864676
S31500001290F446054C0FCCACE80F0094E80F008CE840
S315000012A00F00704610BD00BF08AC0100836B0BB188
S315000012B03821184710B514F01FFA00BF2DE9F04386
S315000012C02DED028B0B6806461F6889B0012F11D0E1
S315000012D00124984B984A45699849CDE9013700920F
S315000012E07B23974A0394A847204609B0BDEC028B9E
S315000012F0BDE8F0834B680D461C68012C10D08D4B61
S31500001300904A45698D49019300927C23CDE90247B5
S315000013108B4AA847384609B0BDEC028BBDE8F0837E
S31500001320002200F021FA074600283ED083681B6899
S31500001330002B21DD00222946304600F031FA002834
S3150000134048D0D5F81080B8F1000F46D03B78072B6F
S3150000135020D00278072A2BD093422ED0CDE9023234
S3150000136079497A4A304675699C23CDE90021744A49
S315000013707249A8472046B8E77F23754A3046756903
S31500001380744900926E4AA847204609B0BDEC028B0C
S31500001390BDE8F0831846756900F032FB3B780246DB
S315000013A06D493046A84720469FE77E236B4AE5E70E
S315000013B0092B15D099236A4AE0E7092B23D0184652
S315000013C0746900F01DFB3B78024663493046A0472E
S315000013D001208AE78123634AD0E78323624ACDE767
S315000013E0036913F5004F6ED06048614ACDE90230BB
S315000013F0604974693046019200913723504A4F493B
S31500001400A047012071E7092A47D1036913F1800F2C
S315000014100FD06FF07F055849564ACDE90113304683
S3150000142074693C2300924549454A0395A04701202B
S315000014305BE7DFED527A90ED037AB4EE677AF1EE70
S3150000144010FA6C696CD1F86812F000FC0B46024683
S31500001450206843EC182B12F0F9FB08F1080541EC63
S31500001460100BB0EE481AF0EE681A2946052007AAB6
S3150000147000F0EAF807991F22C8F80C10052000F0C2
S3150000148031F912F0D1FB01F10045294612F0E6FED2
S3150000149003460020C8F8183027E71046756900F0A3
S315000014A0AFFA0446092000F0ABFA0746344B304643
S315000014B00193254BCDE902470093214A3B2331494D
S315000014C0A847012011E7DFED307A90ED037AB4EEFC
S315000014D0E77AF1EE10FADFED2D6ACCBF77EE677A88
S315000014E077EEC77AF4EEE67AF1EE10FA6C69AADDC9
S315000014F00022274B17EE100ACDE9042312F0A6FBB3
S3150000150080468946234A244B3046CDE9003223499A
S3150000151074693823CDE90289094AA0470120E4E627
S315000015201F49304674693D230091054A0949A04781
S315000015300120DAE6ACAC010070AC010088AA01001B
S3150000154028AC010080AC0100F0A9010000AA01004E
S3150000155094AC010080A90100DCAB010098A9010050
S31500001560CCAC0100C0A90100B0AC01000080FFFFB7
S3150000157008AD010010AD01007CAD01000000803B0C
S3150000158070AD0100D4A90100000080376F128332CC
S315000015900000F03E4CAD010058AD01002CAD01003D
S315000015A084AD010038B541EC100B18461C461546B3
S315000015B00FF066FC0022144B51EC100B12F09EFB50
S315000015C041EC100B0FF094FC51EC100B12F02EFFB7
S315000015D04FF0004C0022844572EB010E12DB914263
S315000015E008BF604508D0034622681F3202DA00228F
S315000015F0134622602B6038BD22684FF080430132CB
S315000016002260F2E714F078F80000E0412DE9F0419D
S3150000161055EC104B06460F460022002310EE100A2A
S31500001620294612F0D3FD20B1002333603B60BDE8AC
S31500001630F0813B46324620462946BDE8F041FFF799
S31500001640B1BF00BFFFFFFFFF2DE9F84F4FF000438A
S3150000165023FA00F05BEC10AB59EC118B14460D46E7
S3150000166012F0E2FA424606460F464B4650465946A7
S3150000167012F044FB02460B463046394612F03EFB5A
S3150000168015A3D3E9002306460F4612F0C7FDA0B9FD
S315000016908046394630460022114B12F0BFFDC0B1DC
S315000016A0304639460022002312F090FD40B1C5F8BD
S315000016B00080C4F80080BDE8F88F07A7D7E9006767
S315000016C023462A4630463946FFF76CFF2368002B2F
S315000016D0F1DA14F011F800BF0000C0FFFFFFDF4190
S315000016E00000F03F2DE9F8430124074604FA00F014
S315000016F0013815460E4612F097FA8046E81B8946D1
S31500001700C0F12003A0F1200124FA03F304FA01F149
S31500001710194304FA00F012F0C3FA02460B4640469B
S31500001720494612F0EBFA02460B46A6F12005C6F131
S31500001730200104FA05F524FA01F104FA06F029431A
S3150000174014461D4612F0ACFA02460B4620462946C0
S3150000175012F0FEFB41EC100B0FF00EFB51EC100BE0
S3150000176012F07CFDBDE8F8830968002A10B451F830
S31500001770044B10DBA2420EDA51F8221000290ADBD4
S31500001780826822B102EB81105DF8044B7047036D4D
S315000017905DF8044B184700205DF8044B704700BF06
S315000017A04968002A10B451F8044B10DB94420EDD50
S315000017B051F8221000290ADB826822B102EB81105F
S315000017C05DF8044B7047036D5DF8044B1847002025
S315000017D05DF8044B704700BF0968002A10B451F841
S315000017E0044B10DBA2420EDA51F8221000290ADB64
S315000017F0826822B102EB81105DF8044B7047036DDD
S315000018005DF8044B184700205DF8044B704700BF95
S315000018102DE9F0412DED028B82B0054691ED038A4C
S31500001820D2ED038ADDF828807BB318EE100A1C4639
S3150000183012F00CFA064618EE900A0F4612F006FA57
S3150000184002460B463046394612F058FA0646E0681C
S315000018500F4612F0FBF90B4602463946304612F0A7
S3150000186095F80246D8F80C00164621F0004712F00B
S31500001870EDF902460B463046394612F069FB22A3C3
S31500001880D3E9002312F0B6FC08B328EE288AB5EE99
S31500001890C08AF1EE10FA29DB18EE100A12F0D6F91A
S315000018A00446D8F80C000D4612F0D0F902460B4655
S315000018B02046294612F04CFB02460B4600200B99A7
S315000018C0C1E9002302B0BDEC028BBDE8F0814FF404
S315000018D0A273094928466C69084A00910849A0473D
S315000018E0012002B0BDEC028BBDE8F08140F251133D
S315000018F00449EFE7AFF30080ECAD0100A8AD0100AD
S3150000190080A9010010AE01007B14AE47E17A943F36
S3150000191030B592F800C083B0BCF1030F3DD0BCF1E6
S31500001920090F1FD0BCF1070F11D147F6FF742F4DD9
S315000019300129D2ED036A10691DD0032930D002298E
S315000019404ED01D60069B1C60002003B030BD2849A8
S3150000195044694FF4C2730091264A2749A0470120E3
S3150000196003B030BD01294FF07F046FF07F05D2ED43
S31500001970036A1069E1D19FED217AC7EE267AF8FE57
S31500001980677AFDEEE77A17EE902A0244AA42B8BFBC
S315000019902A461A60069B1C60D6E7FF240025C7E787
S315000019A0DFED167AB1EE086A87EEA67AC6EE267ADB
S315000019B0B8FE477AF8FE677ABDEEC77AFDEEE77A9B
S315000019C017EE101A17EE902A0144A9420244B8BF36
S315000019D02946A242A8BF22461960069B1A60B3E7B1
S315000019E0FFEE007AB7EE006ADEE700BF0080FFFF79
S315000019F02CAE0100A8AD010080A901000000000086
S31500001A0010289ABF024B53F820000248704700BFC7
S31500001A10D8AE010034AE01000020704708B50DF0C5
S31500001A200FFF034B0021A3FB0030800908BD00BF58
S31500001A30D34D621008B50DF003FF4FF47A73044AD4
S31500001A400021A2FB0020800903FB00F008BD00BFB7
S31500001A50D34D62100FB4002130B5C3B046AC54F874
S31500001A60045BFC2203A8029113F0A7FE23462A4634
S31500001A704FF4807102A8019415F002FE43B0BDE850
S31500001A80304004B0704700BFB5EE400A2DE9F04F74
S31500001A90F1EE10FA2DED028B8BB000F09080B5EED2
S31500001AA0C00AF1EE10FA10EE10AA6CD40FF0D8FBB3
S31500001AB0FDEEC07A17EE906A02AF01979FED448B58
S31500001AC026EAE676504612F0C1F845A3D3E900238C
S31500001AD08046894612F0A2FB08B9002E65DB304627
S31500001AE012F0A2F8B0EE480AF0EE680A41EC110BCB
S31500001AF00FF00AFB55EC104B0022002310EE100AE3
S31500001B00294612F08BFB88B34FF0FF322046294658
S31500001B10314B12F08DFB38B94FF0FF322046294683
S31500001B202D4B12F067FB08B322462B46404649462A
S31500001B3012F00EFA41EC100B0FF01EF951EC100BDF
S31500001B4012F08CFB834612F06FF822462B4612F0F9
S31500001B50D5F802460B464046494611F017FF12F0EB
S31500001B60C5FB82460BF1300B07F801BB4EB907EEF9
S31500001B7090AAF5EEC07AF1EE10FAC4BF2E2307F84C
S31500001B80013B013E9EE78AF0004A02AB00EE10AA36
S31500001B9001930FF065FB2D23FDEEC07A0DF10907C9
S31500001BA017EE906A8DF8083088E7387001990B486F
S31500001BB0FFF750FF0BB0BDEC028BBDE8F08F302372
S31500001BC002AA0192ADF80830F0E700BFAFF300803B
S31500001BD00000000000002440FFFFEF7F1CAF010063
S31500001BE0F168E388B5F8E43E13F0A2BD13F08EBDAC
S31500001BF013F0A6BD2DE9F04F2DED0A8B89B0DDE976
S31500001C001C452668D4F80490039609FB06F7B9F13B
S31500001C10010F80460E46049200EBC70700F02E81A6
S31500001C20049A04F108010446039802FB03FA02FB36
S31500001C3000F24FEAC90BCDF81490CDF8188089460A
S31500001C4090464FEACA0A314620464246CDE90095FB
S31500001C505C440293FFF7CEFFA742029B5644F2D1A3
S31500001C60DDE90598039B023B032B00F24483DFE882
S31500001C7013F025016201110206004FF0080B049CC7
S31500001C8005F5847209FB04F302EBC30202EBC303FE
S31500001C90D2ED003A92ED012AB9F1000F08EB4B02A2
S31500001CA093ED003AD3ED012A08EB0B0002EB0B0390
S31500001CB040F3DF80E6000396F1EE421A4FF0000C87
S31500001CC02F462E460BF1080B04EB440E03EB0B01DB
S31500001CD008F108080830083208334FEACE0E4FEAFA
S31500001CE0041B4FEA441A0295D5ED434A10ED016AEA
S31500001CF0D5ED42CA50ED020A96ED43CA53ED016A8C
S31500001D0024EEC64A2CEE861A029C96ED425AD4ED73
S31500001D1043AAD7ED429AD7ED435A11ED017AD4ED95
S31500001D2042BA52ED017AA0EEA41AA0EEAC4A6CEECD
S31500001D30660A13ED02AA12ED02BAF0EE448A6AEEC2
S31500001D40E74A25EEC74A29EE876A65EE266AB0EEAF
S31500001D50607A6BEEA77A11ED029AAAEE057AEAEEA0
S31500001D600C6AEBEE2B4AEBEE2A7AB0EE445AA9EE59
S31500001D70256AA9EE295A74EEC75A77EEE69A18ED47
S31500001D80028A18ED010A74EE870A65EEC2AA31EEE0
S31500001D90067A22EEA9AA31EE461A77EEA67A38EE30
S31500001DA0C54A78EE856AA2EE01AA25EEE29AF0EE21
S31500001DB0484AB0EE405AF0EE485AB0EE406A61EE3C
S31500001DC0628AB0EE6A1AA1EE849AA2EE841AE3EE53
S31500001DD0A64AA3EE875AE3EE265AA3EE076AB0EEAA
S31500001DE0684AE3EE204AA3EE275AA3EEA76A76EEE8
S31500001DF0A06A37EE277AE3EEA05AA2EE294A77EEDA
S31500001E00007A76EE886A35EE490A34EECA8A75EEAD
S31500001E10840A36EE017A74EE8A4A35EE095A75EE70
S31500001E20C45A36EE416A039C0CF1010C2544029C0F
S31500001E3008300832083308315C44E14548ED026A4F
S31500001E4048ED017A08F1080800ED048A00ED030A5E
S31500001E50029441ED044A01ED035A764442ED040A28
S31500001E6002ED037A574443ED045A03ED036A7FF407
S31500001E703BAF09B0BDEC0A8BBDE8F08F02FB03F364
S31500001E804FEAC30C00F108031A4696E8030097428E
S31500001E9002E90300664402F10802F6D1039A023A07
S31500001EA0032A00F2B18101A151F822F0C11E0000FF
S31500001EB003220000FD2100007B1C000008F108033E
S31500001EC0049AD10009F1010208EBC20895ED436AB4
S31500001ED058ED017A95ED425A58ED025A26EE677A88
S31500001EE053ED026AA5EE857A76EEC76A65EE277A25
S31500001EF048ED026AE5EE867A53ED016A76EEE76A08
S31500001F0048ED016A13ED026A53ED016A36EE077A6F
S31500001F1076EEA77AB9F1010903F1080308F108087A
S31500001F200D4403ED047A43ED037ACFD109B0BDEC3D
S31500001F300A8BBDE8F08F08F108031C46049BAA46ED
S31500001F40D9000291190103FB09F305EBC30595EDD1
S31500001F5043AA0BF1040608EB0B0708EB09154644E8
S31500001F6008EB4B0BF1EE4AAAD046039104359AEDE5
S31500001F70435ADBED016A98ED436ADAED423A98ED91
S31500001F80424AD7ED017A56ED014A55ED015A25EE42
S31500001F90677A66EE668A63EEA77A24EE268AA4EE50
S31500001FA0A37AE4EE857AE5EE848AA5EE868A029B1C
S31500001FB054F8080C9A44039B77EE289A37EE889AD1
S31500001FC077EE688A37EEC88A984411F03FFE41ECF6
S31500001FD01B0B19EE900A11F039FE0022CD4B11F0C1
S31500001FE08DFE02460B4651EC1B0B11F0CFFC12F096
S31500001FF07DF9083446F8040C54F80C0C11F026FE52
S3150000200002460B4619EE100A43EC1B2B11F01EFE7E
S315000020100022C04B11F072FE02460B4651EC1B0B20
S3150000202011F0B4FC12F062F9786014ED047A54ED04
S31500002030037A37EE297A77EE897A04ED047A44ED4D
S31500002040037A56ED017AEAEE087A45ED017AD7ED84
S31500002050017AEAEEA87ACBED017A56ED017AEAEE3C
S31500002060887A46ED017AD7ED017AEAEE287AB9F157
S31500002070010907F1080706F108060BF1080B05F13F
S31500002080080547ED017A7FF472AF09B0BDEC0A8B03
S31500002090BDE8F08F08F108034E4628460499D5F8A6
S315000020A004E001EB4107FF004FEAC10C4FEA0119BA
S315000020B006EB460108EB4B020BF1040408EBC101E9
S315000020C0029708EB0B057746444482468046DDF8C6
S315000020D008E09344043121E036EEC65A35EEA77A7D
S315000020E076EE866A75EEE77A04ED015A85ED017A99
S315000020F041ED016ACBED017A013E03F1080305F1DA
S315000021000805604402F10802C8440BF1080BF244CA
S3150000211004F1080401F108013FF4ABAE98ED422A40
S31500002120DAED424ADAED432AD5ED017A9BED017AE2
S31500002130D0ED420A90ED438A98ED431AD2ED016A3A
S3150000214011ED014A14ED010AD2ED001A22EE263AEB
S3150000215064EE873A20EEA76A22EEC77A68EE677ABF
S3150000216061EE666A13ED025A53ED015AA4EE247A23
S31500002170E1EE826AE4EE223AA0EE086AE0EE207A08
S31500002180A1EE813A76EE854A37EE872A33EE254A66
S3150000219076EE232A03ED014A43ED024A34EE624A03
S315000021A074EEC24A82ED014AC2ED004A75EE666AD5
S315000021B077EEC77A13ED025A13ED017A35EE025A1D
S315000021C037EE227A75EEC35A36EE636A03ED025A8B
S315000021D003ED017A002F7FF47FAF36EE865A35EE97
S315000021E0E77A76EEC66A75EEA77A04ED015A85EDB2
S315000021F0017A41ED016ACBED017A7DE74FF0080BDC
S315000022004AE74FF0080B98E6039B4FF0080BDC00FB
S315000022102B6820460593FFF7E7FC05F584730293C8
S3150000222003464FF0000E4546F246083CE218079278
S31500002230049A09FB02F20692039A002A4BDD5446E1
S31500002240002203EBC20608EBC40103C986E80300BB
S315000022500399013291424C44F3D1F4462E460027AD
S315000022602C1D221F93E8030082E80300039A012A2B
S3150000227029D054ED016A96ED017A19460022059897
S3150000228062448242A8BF121A0298D1ED037A00EB8B
S31500002290C200D0ED005AD0ED014A91ED025A25EE6A
S315000022A0A76A64EEE77AA5EE246AE5EE257A37EEAC
S315000022B0067A76EEA76A07980831814244ED016AEC
S315000022C086ED017ADBD1069A01379444039A5E447F
S315000022D0BA425C44C5D1049A0AF1010AD14505F116
S315000022E008059644A8D1184609B0BDEC0A8BBDE88E
S315000022F0F04FFFF77DBC039BDC002B68204605935F
S31500002300FFF772FC05F58473B9F1000F02930346DB
S3150000231087DCE8E70000E03F2DE9F04F2DED028B6A
S315000023208A4600F1210183B0C90004460191002BC1
S3150000233000F01381002A00F0188119680198814283
S315000023407FD3154601991960C5E9004ABAF1000F15
S3150000235000F0CD80002C40F30C810FF23C29D9E926
S315000023600089204611F060FCAB464FF0000A064695
S315000023700F46504611F058FC42464B4611F0BEFC43
S3150000238032463B4611F0E4FD41EC100B41EC180BD4
S315000023900EF09EFC51EC100B11F0A8FFB0EE480AAF
S315000023A0F0EE680ACBF808010EF0F6FD51EC100BC2
S315000023B011F09CFF0AF1010A54450BF1080BCBF80A
S315000023C00401D6D147EC106B0EF016FF0EF0D4FCCC
S315000023D04FF004082B4605F1080A57EC106B4546EA
S315000023E09846DFF8BCB194FBF5F305FB1342F2B156
S315000023F0022D39D0042D66D100224FF0804330469D
S31500002400394611F0EDFE50BBE1072DD452460221AC
S3150000241004EBD4735B10032C42F8081BCAF8043093
S315000024201BDD9246DA071ED4022593FBF5F3D1464F
S31500002430012B49F8085B1C46CAF804300DDDCA4674
S31500002440D1E7002518600E9B0BB1019A1A60284649
S3150000245003B0BDEC028BBDE8F08F4546F3E7D146ED
S315000024602546CA46BFE71C46002230463946464B3B
S3150000247011F0B6FE0028F2D1444BD1460BFB0433D3
S31500002480B3F1553F2FD2424B052C83FB04234FF06B
S315000024900302A3EBE47349F8082BCAF80430DCDD29
S315000024A03A4A0BFB0322B2F1553F1BD20325CA461B
S315000024B093FBF5F3D146012B49F8085B1C46CAF895
S315000024C00430BCDCC9E70235284611F0ADFBD14625
S315000024D002460B463046394611F082FE0028AED041
S315000024E02546BEE71C46052500222A4BF2E7002CAE
S315000024F03FDD0FF28C09D9E90089204611F094FBE3
S31500002500AB4606460F46504611F08EFB42464B46FA
S3150000251011F0F4FB32463B4611F01AFD41EC100B6C
S3150000252041EC180B0EF0D4FB51EC100B11F0DEFE53
S31500002530B0EE480AF0EE680ACBF808010EF02CFD62
S3150000254051EC100B11F0D2FE0AF1010A54450BF1C1
S31500002550080BCBF80401D6D134E70846FFF744FB55
S31500002560054600283FF46FAFEEE61546019A1A605D
S3150000257069E7204611F058FB06460F4622E700BFE2
S31500002580182D4454FB2119C000000840AAAAAA2A03
S315000025905655555500001440182D4454FB2119403A
S315000025A0ABAAAAAA70B59142044682B00AD001230A
S315000025B000F10805CDE9005410461A46FFF71AFB4C
S315000025C002B070BD00680D46C000FFF70DFB04F1B8
S315000025D00803CDE90034012306461A462946FFF7CB
S315000025E009FB226828463146D20013F0BFF8304670
S315000025F002B0BDE87040FFF7FBBA00BFFFFFFFFF68
S315000026002DE9F04F2DED028B002587B010F0010467
S31500002610059540F0B5801F46451005AB9046284607
S31500002620224600940E46FFF777FE059B03F10C0940
S3150000263005EB450303EBD3735B1009EBC30303936D
S31500002640002F00F0A7803B68039A9342C0F0A78052
S31500002650039B3B60B8F1000F53D00020059908F1A9
S315000026600C021144C8E9002101EBC501C8F80810A5
S3150000267005AB00903146284605EBD57AFFF74CFEB0
S315000026804FEA6A09002E42D0012D35DD0FF2301BCC
S31500002690DBE900AB284611F0C7FA06460F46D8F824
S315000026A008500134204611F0BFFA32463B4611F07D
S315000026B04FFC0022404B11F06BF952465B4611F07D
S315000026C01DFB41EC100B41EC180B0EF001FB51EC1D
S315000026D0100B11F00BFEB0EE480AF0EE680A286007
S315000026E00EF05AFC51EC100B11F000FE4C4505F1B2
S315000026F0080545F8040CD4DB129B13B1129B039A10
S315000027001A60404607B0BDEC028BBDE8F08F012D84
S31500002710F2DD0FF29C0BDBE900AB284611F084FAE0
S3150000272004460D46D8F808700136304611F07CFA9A
S3150000273022462B4611F00CFC00221F4B11F028F903
S3150000274052465B4611F0DAFA41EC100B41EC180BDD
S315000027500EF0BEFA51EC100B11F0C8FDB0EE480AAF
S31500002760F0EE680A38600EF017FC51EC100B11F011
S31500002770BDFD4E4507F1080747F8040CD4DBBBE75F
S31500002780A8460E48FFF766F9404607B0BDEC028B37
S31500002790BDE8F08F1846FFF727FA80465AE7A046AD
S315000027A040463A6007B0BDEC028BBDE8F08F00BF33
S315000027B0182D4454FB2109C00000E03F20AF010062
S315000027C0182D4454FB210940F0B50646006814460E
S315000027D0436883B0002B68D172680768FFF7E2FE92
S315000027E073680022D3ED007A93ED017A77EE876A5B
S315000027F077EEC77A04EBC70107EBD775012FC4ED57
S31500002800006A4FEAC70CC1ED007A4FEA65056260BF
S315000028104A6048DDF6EE005A4FF0010E2246B468D3
S3150000282003EB0C0050ED014AD3ED036A93ED026A07
S3150000283094ED015A10ED027A94ED004A74EEA67AF0
S3150000284076EEE46A76EE474A37EE067A25EE676A52
S3150000285067EE847AA4EE846AE4EE857A77EE064A19
S3150000286037EEA65A37EE467A77EEE67A24EEA56A72
S3150000287065EE256A27EE257A67EEA57A0EF1010E3A
S315000028800839AE4502F1080282ED006AC2ED016A1E
S3150000289003F1080381ED007AC1ED017AA0F1080089
S315000028A004F10804BEDD03B0F0BD03480191FFF753
S315000028B0D1F8306801998FE73CAF0100FEE700BF11
S315000028C02DE9F04F9FB000930B1E189002921D93B6
S315000028D040F3858400231C93531EC3180393189A50
S315000028E0029992F9003001291A9340F319859B4603
S315000028F0039912F9013F9B45B8BF9B4691424FFA97
S315000029008BFBF6D1002218990192C1F101020592C2
S31500002910009A8E46D20F1A9B1292CDF810B086E01E
S31500002920CB49C0FB0123002B04DA6FF0004152189B
S3150000293043F10003D20F002142EA43024FF08043E5
S315000029408846184602F1E242C24EA2F52522A2F2BC
S315000029506C72C2FB0608069DC00F15400A9A40EA33
S3150000296048000240984608465540BB4A109EC5FBA3
S31500002970028042462E4098460D46D20F42EA400259
S315000029800B98F2271040B54A4640C6FB02854246E0
S315000029900998D20F42EA45022240304050400D4687
S315000029A01A46AF4E079CC0FB06250440D20F0C9872
S315000029B042EA450210400D461A46AA4E4440C4FB60
S315000029C00625D20F42EA45020BEA020B0D461A46CD
S315000029D00E98DFF89CC220408BEA0000C0FB0C2555
S315000029E00F9CD20F0440119842EA450200EA020AFF
S315000029F08AEA040ACAFB07310D9ADB0F0AEA020AC1
S31500002A00089A43EA41031A4082EA0A0A4FEA2A333D
S31500002A101AF4006F18BF0133019A1A440192059BFC
S31500002A20029A73449A4240F325811EF9013F049AA3
S31500002A309B1A299A9A42F2DC289A12999340DA0F45
S31500002A408A420CBF00214FF0FF31874A08BF4FF082
S31500002A5080420098C3FB0021002904DA6FF0004091
S31500002A60121841F10001D20F42EA4101009A934245
S31500002A7000F0C1804FF080434FF0000C41F07F48DA
S31500002A804FEA481000F18050A8EB0108C0FB003C5B
S31500002A90C8F3006A0AF1FF32C8F3C069069209F169
S31500002AA0FF320792BCF1000F48F38072C8F38076BC
S31500002AB0089204DA6FF00047DB194CF1000CDB0FCB
S31500002AC043EA4C03A3FB03244FEAEC7C03FB0CF71D
S31500002AD012F1804244EB4704002C1D4604DA6FF0E5
S31500002AE00047D21944F10004D20F42EA440200FB27
S31500002AF00CFCCAF100040A94C9F100040C94741E7B
S31500002B000D94C8F34066C41703FB04CC48F3406732
S31500002B10C8F38064013EC8F3007BC8F3407A0B9784
S31500002B2010964FEAD378661EA0FB037309960BF145
S31500002B30FF3602F003090E9692100AF1FF360F9641
S31500002B40002ACAF100066344C4F100044FEAD07CAF
S31500002B50CBF1000B11964BDB4FF0010ACA45424EF2
S31500002B60B8BF0132E0450BBF4FF0804CB4464FF082
S31500002B7000084FF0FF381CEB070C48EB0303002B53
S31500002B8005DA6FF000471CEB070C43F100034FEA30
S31500002B90DC7C4CEA430C6244002AACBF00274FF0B1
S31500002BA0FF37314BA8BF4FF08043304EC2FB06378C
S31500002BB0002F04DA6FF000429B1847F10007DB0F85
S31500002BC043EA47032B445A1002D4DE0748BF0132BA
S31500002BD0254B10440028B3BF1A464FF0804200230D
S31500002BE04FF0FF3300297FF49BAE4FF4002313E729
S31500002BF04FF0020AB2E7009BB3F1004F00F0CF831B
S31500002C004FF080434FF0000C41F07F484FEA4810E8
S31500002C1000F18050A8EB0108C0FB003CC8F3006A35
S31500002C200AF1FF32C8F3C069069209F1FF32079232
S31500002C30BCF1000F48F38072C8F380760892BFF6A5
S31500002C403EAF6FF000429B184CF1000C37E700BF17
S31500002C5094A8F5707BBEAF63F2CBA24D6CAC162F79
S31500002C60A4AA5211B72A5802010000C0ABAAAA2A88
S31500002C7011FE0A000199DDF810B0002900F0D58395
S31500002C80B1FA81F3994001F10041C3F12303139393
S31500002C9011F100434FEAE17141F100015B0843EA9B
S31500002CA0C1736D4A4910584202FB0100A3FB02247E
S31500002CB020446A4C121960F10000002804DA6FF013
S31500002CC00044121940F10000D20F42EA400202F11C
S31500002CD05A3202FB01F4D01703FB0044A2FB035057
S31500002CE015F1804544EB0000ED0F45EA4005C5F1BE
S31500002CF00055002D82FB050480F21F83574D4019B5
S31500002D0064F10004002C04DA6FF00045401944F128
S31500002D100004C00F40EA440012EB800240F18783B2
S31500002D2001264FF0FF374D4D02FB01F4D01703FB90
S31500002D300044A2FB030C4019644444EB0707002F30
S31500002D4004DA6FF00044001947F10007C00F40EAAB
S31500002D504700C0F10050C40FB4420CBF00254FF02D
S31500002D60FF353E4C08BF4FF08044C2FB0045002DA6
S31500002D7004DA6FF00040241845F10005E40F44EA38
S31500002D804504B4F1005FC0F2C2824FF080440025D2
S31500002D9002F10042013A02FB01F1D01703FB0011D8
S31500002DA0A2FB03361B19314441EB0505002D04DA5D
S31500002DB06FF000415B1845F100054FF0FF34DB0F63
S31500002DC043EA45032549C3F1005303FB00F0DD1731
S31500002DD002FB0500A3FB02355B18284440EB040404
S31500002DE0002C04DA6FF000415B1844F10004DB0F9D
S31500002DF043EA4403B3F1005FC0F279826FF0004307
S31500002E001A44B2F1804FA8BF1293C0F22A83029BE4
S31500002E10002B40F3D381129BDDF8A8A0002BB3BF93
S31500002E204FF0FF334FF0804200230C4ACDF810B02C
S31500002E30CDE915230123189AD3460192009AD20FA1
S31500002E401792139A9340013B14935B101993013325
S31500002E501B931A9B90E100BFC4C3C3C3010000C00B
S31500002E60289A17999340DA0F8A42CB4A0BBF4FF044
S31500002E708041114600224FF0FF32009CC3FB041232
S31500002E80002A104604DA6FF00042891840F100006B
S31500002E90CA0F009942EA40028B4200F0AC814FF023
S31500002EA08040002742F07F435C019B1A04F1805466
S31500002EB0C3F30066C3F34065711EC4FB0407C3F386
S31500002EC080690591691EC3F3C068069109F1FF3157
S31500002ED0079108F1FF310891002F43F300710B951C
S31500002EE0C3F3807EC3F3007A099104DA6FF00041E0
S31500002EF0401847F10007C00F40EA4700FF1700FBE4
S31500002F0007F10D46A0FB001C11F180414CEB450C6E
S31500002F10BCF1000F0A9004DA6FF0004549194CF134
S31500002F20000CB2FA82F20B9D04FB07F76D425209C0
S31500002F300B950AF1FF35C90F0D95C8F10005C2F1D1
S31500002F40000841EA4C010F954FEAE47C28F0004561
S31500002F5000FB0C770C954FEAD078A4FB0050119536
S31500002F600EF1FF35C3F340730E95CEF1000501F067
S31500002F70030C384476425F1EC9F100098910013AF4
S31500002F804FEAD47A5B4210950029C0F231814FF0A6
S31500002F90010EE645804DB8BF0131D04513BFAC46A2
S31500002FA04FF0804C4FF0000E4FF0FF3E119D1CEB92
S31500002FB0050C4EEB0000002805DA6FF0004E1CEB06
S31500002FC00E0C40F100004FEADC7C4CEA400C6144F8
S31500002FD00029ACBF4FF0000C4FF0FF3C6E48A8BF75
S31500002FE04FF080406D4DC1FB050CBCF1000F04DABB
S31500002FF06FF0004140184CF1000C0A99C00F40EAEE
S315000030004C0001440846491002D4C50748BF0131A7
S315000030100C44002CACBF00204FF0FF305E49A8BF27
S315000030204FF080415E4DC4FB0510002804DA6FF0B6
S315000030300044091940F10000C90F41EA400101F1BD
S31500003040E2410598A1F52521A1F26C714FF0804E61
S3150000305001EA000C002074468046524D4FF0F20AF9
S31500003060C1FB0548E40F44EA48042640069986EA6F
S315000030700C0C0CEA0104064671464B4DCCFB0516BA
S31500003080C90F41EA4601F44606460B9D0D404749E5
S315000030906C40C4FB01C66146079DC90F41EA460163
S315000030A0254009EA0109089989EA050909EA01049E
S315000030B0054671463E4EC9FB0615C90F41EA450154
S315000030C00F9D3C4E05EA01080D9988EA040808EAB6
S315000030D0010405467146C8FB0615C90F41EA4501BC
S315000030E0099D354E0D406C4071460546C4FB0615DC
S315000030F0C90F41EA45010B4027407B40C3FB0AE06C
S315000031000E994FEADE7E0B4010994EEA400E01EA18
S315000031100E0E8EEA030E0C9B0EEA020282EA0308EA
S31500003120129ADDE91513C2FB0813002B04DA6FF0BF
S315000031300042891843F10003C90F41EA4301139A7B
S31500003140149B0B4011414DD4199A934200DD013175
S31500003150803911F17F0F48DB7E2900F3C68049B222
S31500003160019B039A8BF8001093420BF1010B25D0BB
S315000031701A4612F9013F0192049A9B1A299A934220
S31500003180BFF66EAE8023039A8BF80030019B0BF1DD
S31500003190010B9342ECD111E0010000C0ABAAAA2AB0
S315000031A094A8F5707BBEAF63F2CBA24D6CAC162F24
S315000031B0A4AA5211B72A580211FE0A00029A1899B7
S315000031C01C9B114418912A99013311442A910399A1
S315000031D01C9311441D9A03919A427FF480AB1FB051
S315000031E0BDE8F08F1B9A9342B1DC6FF07F01B7E721
S315000031F04FF0020ECDE6009BB3F1004F00F0B28017
S315000032004FF08040002742F07F435C019B1AC3F3D6
S31500003210807104F18054C3F30066C4FB0407C3F352
S3150000322040651091711EC3F3806C0591691EC3F34E
S31500003230C06806910CF1FF31079108F1FF31089142
S31500003240002F43F30071C3F3007A099104DA6FF09B
S315000032500041401847F10007C00F40EA4700A0FBB5
S31500003260001EFF1700FB07F911F180414EEB490ED6
S31500003270BEF1000F0A9005DA6FF0004911EB090163
S315000032804EF1000EB2FA82F26D4204FB07F75209C4
S315000032900B950AF1FF350D95C8F10005C2F100083E
S315000032A0CCF100090F954FEAE47C28F0004500FBBD
S315000032B00C770C954FEAD078A4FB00501195109D21
S315000032C0C90F013D0E95109D41EA4E01C3F34073AF
S315000032D06D4201F0030C384476425F1E8910013AB4
S315000032E04FEAD47A5B4210954EE67F2138E7B3F178
S315000032F0604F00F3AA8002F1004352001292B3F12C
S31500003300404F129BD8BF4FF0004312937FE5B4F1B4
S31500003310604F61DC4FF0FF35534C02F100423AE555
S3150000332000F08A800023DDF868B003214FF080406A
S3150000333013914FF05A3219464C4C10F1804044F12B
S315000033400004002C04DA6FF00045401944F1000433
S31500003350C00F40EA440002EB80024FF08045002790
S31500003360D60FE1E400234FF0FF324148414C119063
S315000033700A944FF40031994617461E469A469846D7
S315000033809C46CDE90F33CDE90B33CDE90823CDE9D2
S3150000339006223948394C0E920D920592F7E5002423
S315000033A04FF0FF364FF400326FF00041A346A446BB
S315000033B0A046A146CDE90E66CDE90C46CDE90A4404
S315000033C0CDE907642A4F2C4B2A4D2C4810961194B0
S315000033D009960696FFF7C0BB12EB840230D501258D
S315000033E04FF0FF36204CD01703FB00F702FB0171AC
S315000033F0A3FB02371B19394441EB0606002E04DAFB
S315000034006FF000415B1846F10006DB0F43EA460306
S31500003410C3F10053D90FA94208BF0024124914BFB3
S315000034204FF0FF344FF08041CFE4019B7DE700264B
S315000034304FF08045374677E4DDF868B0FFF762BAAB
S3150000344000254FF080442E46CDE702EB83035A0059
S31500003450B3F1804F1292FFF652AF6FF00043129312
S31500003460D5E453001293D2E4010000C04B4B4B0B42
S3150000347000010040F8FFFF01FFFF1F00E0FFFF0F04
S315000034802DE9F04F93B00192229ADDE91C49012AF9
S315000034900FFA84FE0FFA89FC06900E910F93CEEA7E
S315000034A00E4ECCEA0C4C40F334811E466FF0030AF4
S315000034B0209A00915142229A0123941E219A8B4010
S315000034C0103A22F00F0202F1100524F001023244F4
S315000034D004320792219A013BAAEB020A5200059296
S315000034E0209A0D9322EAE2720492B21C02920246DC
S315000034F02A440392219A5B1004320992219A0B9373
S31500003500013A01330C91119408950A92109301998E
S31500003510002900F0C9814A6851F8083B01912199B8
S315000035200F2940F3C78100990998069D039F0C183F
S31500003530CDF874905AF804B028684FEA3B294FEA50
S31500003540302854F8041C0AEB04062CFA8BFB2CFAE0
S3150000355089F92EFA80F02EFA88F820FB0B332CFA24
S3150000356081FB28FB0933D6F804904FEA31212CFA67
S3150000357081F120FB0B2028FB010069684FEA392BFB
S315000035804FEA31222CFA89F82CFA8BFBD4F80090FA
S315000035902EFA81F12EFA82F221FB08332CFA89F8F1
S315000035A022FB0B3BB3684FEA39292CFA89F921FB38
S315000035B0080822FB0988A9684FEA33294FEA312017
S315000035C062682CFA83F32CFA89F92EFA81F12EFA25
S315000035D080F021FB03BB2CFA82F320FB09BBD6F853
S315000035E00C904FEA32222CFA82F221FB038820FB50
S315000035F00280EE684FEA39234FEA3622D4F8088073
S3150000360010352CFA89F92CFA83F32EFA86F62EFA5F
S3150000361082F126FB09BB2CFA88F921FB03B34FEA9A
S3150000362038282CFA88F826FB090021FB0802BD423F
S3150000363004F110047FF47EAF089800990746DDF880
S315000036407490039C0D182199B94215DDCF1B0A9978
S31500003650DDF870806E1E27440D4414F9011B16F91F
S31500003660010F4144484401FB003315F9010FBC42E8
S31500003670484401FB0022F0D14FF080410020049C19
S315000036801F9DA340C3FB0510CB0F209943EA4003BF
S31500003690002940F3E8800499002B02FA01F2C0F2F7
S315000036A00D814FF0804100201F9CC4FB0210C90F02
S315000036B051EA400100F1F4801E9A05981344114422
S315000036C0239A9342B8BF13469142B8BF1146009A57
S315000036D00244249800928342A8BF03468142A8BFB1
S315000036E00146029A02F8023C079B0232934202927A
S315000036F002F8031C7FF40BAF119B059A5B0803FBD2
S3150000370002220E99013311440F9A0E9102EB4303E4
S315000037100F93229BDB0740F1A280019B002B00F058
S31500003720EB801A68219B0F2B40F3E880A3F1100869
S315000037304FEA1818069B08F101080E994FEA081A75
S3150000374003EB08150E6818684FEA36242CFA86F63D
S315000037502CFA84F74FEA30242EFA80F02EFA84F4FD
S3150000376020FB062224FB07244E685A684FEA3620BF
S315000037702CFA86F62CFA80F74FEA32202EFA82F2DD
S315000037802EFA80F022FB064220FB07208E689A68FC
S315000037904FEA36242CFA86F62CFA84F74FEA3224BE
S315000037A02EFA82F22EFA84F422FB060224FB072468
S315000037B0CF68DA684FEA37264FEA322010311033E5
S315000037C02CFA87F72CFA86F62EFA82F22EFA80F079
S315000037D022FB074220FB0622AB42B3D10E9B534489
S315000037E00E934FEA0813219999420EDDCB1A0E99D2
S315000037F01C9E481E2B4415F9014B10F9011F344439
S3150000380049449D4204FB0122F5D14FF0804100203E
S31500003810209B23EAE3739A401F9BC2FB0310CB0F46
S3150000382043EA4002209B002B0DDC01215B429940BC
S31500003830013902EA01001A414FEA610148BF01312C
S315000038408842C8BF01321E9B1344239A9342B8BFD5
S315000038501346249A9342A8BF13460F9A137000206A
S3150000386013B0BDE8F08F0D9D0C9E03EA05003341B1
S3150000387030D4A2404FF0804100241F9FC7FB0214A2
S31500003880C90F41EA44010B9C0D403141A0420B9AFD
S31500003890C8BF0133002905DBAA42B8BF01310BE7D7
S315000038A000252A460132F7E72199019B0F291A467E
S315000038B03FF739AE0027009D069CC4E600254FF071
S315000038C0804128461F9CC4FB0210C90F2A4641EAC4
S315000038D04001DFE7049900258A404FF080411F9E92
S315000038E0109CC6FB02150D9AC90F41EA450102EA72
S315000038F001050C9A1141C9E7019A13E70023069DB9
S3150000390071E700BF2DE9F04F1D688BB09046DDE9E9
S31500003910146ADDE91829DDF858B01A9F3DB30C4644
S31500003920D9F80C30DAF80010D4E9030C0693D8F86D
S3150000393004E00591CDF820C0A368D8F800C0079030
S31500003940CDF810E0D4E90010CDE9023CCDE9001035
S315000039503B46304659461892FFF792FDDAF80010BA
S31500003960D9F80C30013D189A0E441F44DCD10020D2
S315000039700BB0BDE8F08F00BF0020704782B0019108
S3150000398091B10B46DFED0A7AB0EC017A013B77EE96
S31500003990877AF9D19DED017AB8EE477AC7EE876A44
S315000039A0C2ED006A02B07047DFED017AF2E700BFB0
S315000039B00000000000B583B0019119B30B469FEDDE
S315000039C0177AF0EC017A67EEA77A013B37EE277A91
S315000039D0F7D1DDED017AF8EE677A87EE270AB5EEC4
S315000039E0C00AF1EE10FA4FF000030EDBB5EE400A06
S315000039F0F1EE10FA0BD4F1EEC07AC2ED007A03B004
S31500003A005DF804FB9FED057AE3E71360F7E70192A3
S31500003A100DF056FC019AF0EE407AEEE70000000049
S31500003A200388B0F802C049680CFB03F342683BB157
S31500003A30F2EC017A67EE807A013BE1EC017AF7D18C
S31500003A4000207047F0B5B0F800E04C68468845683D
S31500003A504FEA8E0CB70004EB8E0E234646B1324673
S31500003A60294651F8040B013A18606344F9D13D44E4
S31500003A7004347445F1D10020F0BD00BF002070472A
S31500003A802DE9F041B1F5805F0C46054617460379EE
S31500003A9082B00FD3012B1ED101AE3B78002202214A
S31500003AA030468DF804408DF80530FCF7F7FB02B080
S31500003AB0BDE8F081002BEFD00022072301AE0221E2
S31500003AC030468DF805208DF80430FCF7E7FB00281A
S31500003AD0EDD12871E1E707234FF0010801AE00227E
S31500003AE0022130468DF804308DF80580FCF7D6FBB0
S31500003AF00028DCD185F80480CFE700BF10B502238B
S31500003B00044682B03E2101AA8DF80430FFF7B8FFC3
S31500003B10E3689A681868D36998470023236002B05F
S31500003B2010BD00BF002310B582B03D2101AA044696
S31500003B308DF80430FFF7A4FF08B102B010BD802352
S31500003B403F21204601AA8DF80430FFF799FF00288F
S31500003B50F3D18DF804003E21204601AAFFF790FF1D
S31500003B600028EAD141F20A012046621DFFF788FFCC
S31500003B700028E2D141F20B012046A21DFFF780FF8B
S31500003B800028DAD141F209012046E21DFFF778FF4D
S31500003B900028D2D14021204604F10A02FFF770FF27
S31500003BA00028CAD13B21204604F10902FFF768FF2D
S31500003BB00028C2D10C233D21204601AA8DF80430ED
S31500003BC0FFF75EFFB9E700BF38B50B464FF0030CB1
S31500003BD00446002209689D68C160998880F804C07F
S31500003BE001824561587B93F80CC000F018000CF078
S31500003BF0070C40EA0C002072187C93F80FC000F006
S31500003C0038000CF0070C40EA0C00A2716071D87CF9
S31500003C1093F812C000F018000CF0070C40EA0C00F4
S31500003C20E071187D00F00300A072D87D93F815C0EE
S31500003C3020F07F000CF0100C40EA0C0093F816C040
S31500003C4093F811E00CF0040C40EA0C0093F80EC057
S31500003C500EF0020303430CF0010003436372AB68EA
S31500003C602868DB6998470A200BF0C2FD63690122C8
S31500003C709868218AC5691868A84740F252300BF047
S31500003C80B7FD2046FFF74EFF08B9014B236038BD4C
S31500003C909584137638B504464369018A9D680022E7
S31500003CA01868EB6998470A200BF0A2FD6369218A20
S31500003CB098680122C5691868A84740F252300BF08F
S31500003CC097FD2046BDE83840FFF72CBF70B5037955
S31500003CD00D4682B0E3B901AE0122342330461146C7
S31500003CE08DF80430FCF7DAFA08B102B070BD02466E
S31500003CF001216846FCF7FCFA0028F6D19DF9003050
S31500003D0007EE903AF8EEE77AC5ED007A02B070BD9C
S31500003D100022072301AE0446022130468DF8052015
S31500003D208DF80430FCF7BAFA0028DED12071D3E70B
S31500003D30F0B51C4603790E46154685B0002B55D1C5
S31500003D4001222023114601A88DF80430FCF7A6FABB
S31500003D5008B105B0F0BD082102460DEB0100FCF7E5
S31500003D60C7FA0028F5D19DF809209DF808309DF87E
S31500003D700AC003EB02231BB206EE103A9DF80B3085
S31500003D809DF80F200CEB032C0FFA8CF306EE903AFD
S31500003D909DF80CC09DF80D30DFED1C5A0CEB032C82
S31500003DA00FFA8CF307EE103A9DF80E30B8EEC66A9D
S31500003DB003EB02231BB207EE903AF8EEE66AB8EE82
S31500003DC0C77AF8EEE77A26EE256A66EEA56A27EE4A
S31500003DD0257A67EEA57A0A9B86ED006AC5ED006A2C
S31500003DE084ED007AC3ED007A05B0F0BD072300220A
S31500003DF00746022102A88DF808308DF80920FCF745
S31500003E004DFA0028A5D138719AE700BF0000803826
S31500003E10F0B51C4603790E46154685B0002B3CD1FD
S31500003E2001220E23114601A88DF80430FCF736FA5C
S31500003E3008B105B0F0BD0246062102A8FCF758FA03
S31500003E400028F6D19DF809209DF808309DF80AC093
S31500003E5003EB02231BB207EE903A9DF80B30F8EE07
S31500003E60E76A0CEB032C0FFA8CFC07EE90CA9DF860
S31500003E700D309DF80CC0B8EEE77A0CEB032C0FFA68
S31500003E808CFC07EE90CAF8EEE77AC6ED006A85ED7F
S31500003E90007AC4ED007A05B0F0BD0723002207467C
S31500003EA0022102A88DF808308DF80920FCF7F6F9F2
S31500003EB00028BED13871B3E7F0B51C4603790E462B
S31500003EC0154685B0002B3CD101220823114601A8D6
S31500003ED08DF80430FCF7E2F908B105B0F0BD0246F2
S31500003EE0062102A8FCF704FA0028F6D19DF809205D
S31500003EF09DF808309DF80AC003EB02231BB207EEBB
S31500003F00903A9DF80B30F8EEE76A0CEB032C0FFAAB
S31500003F108CFC07EE90CA9DF80D309DF80CC0B8EEEB
S31500003F20E77A0CEB032C0FFA8CFC07EE90CAF8EE3E
S31500003F30E77AC6ED006A85ED007AC4ED007A05B031
S31500003F40F0BD072300220746022102A88DF808309B
S31500003F508DF80920FCF7A2F90028BED13871B3E725
S31500003F60F0B51C4603790E46154685B0002B3CD1AC
S31500003F7001221423114601A88DF80430FCF78EF9AE
S31500003F8008B105B0F0BD0246062102A8FCF7B0F95B
S31500003F900028F6D19DF809209DF808309DF80AC042
S31500003FA003EB02231BB207EE903A9DF80B30F8EEB6
S31500003FB0E76A0CEB032C0FFA8CFC07EE90CA9DF80F
S31500003FC00D309DF80CC0B8EEE77A0CEB032C0FFA17
S31500003FD08CFC07EE90CAF8EEE77AC6ED006A85ED2E
S31500003FE0007AC4ED007A05B0F0BD0723002207462B
S31500003FF0022102A88DF808308DF80920FCF74EF949
S315000040000028BED13871B3E7F0B51E4603790C46D9
S31500004010154685B0002B44D101221A23114601A86A
S315000040208DF80430FCF73AF908B105B0F0BD024648
S31500004030062102A8FCF75CF90028F6D19DF80920B4
S315000040409DF808309DF80AC003EB02231BB206EE6A
S31500004050903A9DF80B309FED1A6A0CEB032C0FFA81
S315000040608CF307EE103A9DF80CC09DF80D30F8EE73
S31500004070E66A0CEB032C0FFA8CF307EE903AB8EED7
S31500004080C77AF8EEE77A66EE866A27EE067A67EE74
S31500004090867AC6ED006A85ED007AC4ED007A05B031
S315000040A0F0BD072300220746022102A88DF808303A
S315000040B08DF80920FCF7F2F80028B6D13871ABE785
S315000040C00000803D022800D07047024B0248596824
S315000040D008F0E2BEC4B80100000E002010B5044688
S315000040E0006808B1237B0BB9204610BDFDF780FDA3
S315000040F0204610BD10B50968046812681868920059
S3150000410004EB810111F032FB002010BDFFFFFFFF21
S315000041102DE9F04F2DED0A8B04468FB010EE900A74
S3150000412010EE105A0D920B930C910FF08FFDB8A361
S31500004130D3E900230FF0E2FD064628460F460FF0AE
S3150000414085FD02460B46304639460FF001FF41EC2D
S31500004150100B0CF075FF51EC100B10F0C7F808EEC1
S31500004160100A0FF073FD631006460F461846042129
S315000041701D460393FDF73AFD0346042128460693A0
S31500004180FDF734FD0346042128460593FDF72EFD71
S315000041900346042128460793FDF728FD034604211C
S315000041A028460893FDF722FD034604212846099375
S315000041B0FDF71CFD28EE088A0A90002D00F0968077
S315000041C020460FF031FD02460B460FF0E1FB069B41
S315000041D032460493059B41EC1A0B029330463B464C
S315000041E039460FF0D5FBF7EE007A77EEC87A41EC48
S315000041F01B0B17EE900A0FF029FD02460B460FF037
S31500004200C7FB02460B4618EE100A43EC1C2B0FF0B8
S315000042101DFD4FF0000841EC190B4FF0000ADDF8C8
S315000042201C90DFF8F4B140460FF0FEFC02460B4648
S315000042300FF0AEFB52465B460FF0AAFB74A3D3E920
S3150000424000230FF05BFD53EC1A2B0FF081FE41ECBF
S31500004250100B0CF0A1FE51EC100B10F047F80FF00C
S31500004260F5FC53EC1B2B0FF049FD53EC192B0646BE
S315000042700F460FF08DFB52465B460FF089FB10F0A0
S3150000428035F807EE100AC8EE077A049B08F1010814
S31500004290E3EC017A04930FF0D9FC04460D4622465E
S315000042A02B4651EC1C0B0FF053FE10F01FF8029931
S315000042B0324641F8040B3B46029151EC190B0FF0C4
S315000042C065FB52465B460FF063FB01F1004100902F
S315000042D001912B46DDE9000122460FF039FE10F070
S315000042E005F8039B49F8040B43459CD10B9B002B17
S315000042F075D0059A03990C9B02EB810200920B9AEA
S315000043000293DDF834B003EB82030493029BF3ECD3
S31500004310017A0293039BEBEC017A002B5BD0DDE97B
S3150000432005A6099C079F0A9DDDF8209001E05BED3C
S31500004330017A95ED006AB7EC018AFAEC016A94ED10
S31500004340007A28EE068AA6EE878A38EE278A89ED55
S31500004350008A54F8040B0FF079FC02460B460FF066
S3150000436017FB02460B4618EE100A43EC182B0FF00B
S315000043706DFC02460B4651EC180B0FF009FB02468A
S315000043800B4655F8040B43EC182B0FF05FFC024666
S315000043900B4651EC180B0FF0FBFA02460B4656F88B
S315000043A0048B43EC182B40460FF050FC0B4602469C
S315000043B051EC180B0FF0A2FC0FF098FF4BF8040C11
S315000043C054F8043C45F8043C59F8043B44F8043CD2
S315000043D0009B9A45ABD1049B029A934296D10698CC
S315000043E0FDF706FC0598FDF703FC0798FDF700FCB2
S315000043F00898FDF7FDFB0998FDF7FAFB0A980FB040
S31500004400BDEC0A8BBDE8F04FFDF7F2BBAFF30080C1
S31500004410182D4454FB2109400000F03FFFFFFFFF29
S315000044202DE9F04F2DED0A8B04468FB010EE900A61
S3150000443010EE105A0D920B930C910FF007FCB8A3D7
S31500004440D3E900230FF05AFC064628460F460FF024
S31500004450FDFB02460B46304639460FF079FD41EC2E
S31500004460100B0CF0EDFD51EC100B0FF03FFF08EEBA
S31500004470900A0FF0EBFB631006460F461846042120
S315000044801D460393FDF7B2FB034604212846069317
S31500004490FDF7ACFB0346042128460593FDF7A6FB72
S315000044A00346042128460793FDF7A0FB0346042193
S315000044B028460893FDF79AFB0346042128460993EC
S315000044C0FDF794FB68EEA88A0A90002D00F098800C
S315000044D020460FF0A9FB02460B460FF059FA069B41
S315000044E041EC1A0B0493059B32460293B7EE008A01
S315000044F03B46304639460FF04BFA78EE687A02466C
S315000045000B4617EE900A43EC1B2B0FF09FFB02465F
S315000045100B460FF03DFA02460B4618EE900A43ECA6
S315000045201C2B0FF093FB4FF0000841EC190B4FF0DA
S31500004530000ADDF81C90DFF8F0B140460FF074FB7E
S3150000454002460B460FF024FA52465B460FF020FA5D
S3150000455073A3D3E900230FF0D1FB53EC1A2B0FF012
S31500004560F7FC41EC100B0CF017FD51EC100B0FF0A3
S31500004570BDFE0FF06BFB53EC1B2B0FF0BFFB53EC98
S31500004580192B06460F460FF003FA52465B460FF00C
S31500004590FFF90FF0ABFE07EE100AC8EE077A049B90
S315000045A008F10108E3EC017A04930FF04FFB04468F
S315000045B00D4622462B4651EC1C0B0FF0C9FC0FF0A2
S315000045C095FE0299324641F8040B3B46029151ECA6
S315000045D0190B0FF0DBF952465B460FF0D9F901F1E2
S315000045E00041009001912B46DDE9000122460FF0C3
S315000045F0AFFC0FF07BFE039B49F8040B43459CD1AF
S315000046000B9B002B75D0059A03990C9B02EB81023C
S3150000461000920B9A0293DDF834B003EB8203049305
S31500004620029BB3EC017A0293039BABEC017A002B5D
S315000046305BD0DDE905A6099C079F0A9DDDF8209061
S3150000464001E01BED017AD5ED005AF7EC017ABAECE0
S31500004650016AD4ED006A67EEA57AE6EE267A77EE71
S31500004660877AC9ED007A17EE900A0FF0EFFA024644
S315000046700B4654F8040B43EC182B0FF0E7FA0246EE
S315000046800B460FF085F902460B4651EC180B0FF05E
S315000046907DF902460B4655F8040B43EC182B0FF038
S315000046A0D5FA02460B4651EC180B0FF071F902468B
S315000046B00B4656F8048B43EC182B40460FF0C6FA0F
S315000046C00B46024651EC180B0FF018FB0FF00EFECE
S315000046D04BF8040C54F8043C45F8043C59F8043BE8
S315000046E044F8043C009B9A45ABD1049B029A934242
S315000046F096D10698FDF77CFA0598FDF779FA0798A2
S31500004700FDF776FA0898FDF773FA0998FDF770FA3F
S315000047100A980FB0BDEC0A8BBDE8F04FFDF768BAFA
S31500004720182D4454FB2109400000F03F08B530B174
S3150000473030F8023CC01ABDE80840FDF759BA5A21C4
S31500004740024B034A034809F0DFF900BFF0AF01004E
S31500004750F4AF010020B00100431E034210B514D18E
S31500004760044680B179B1481C20440121FDF73EFA88
S31500004770024640B1631C0344644203EA0400821A01
S3150000478020F8022C10BD002010BD3721024B034A31
S31500004790034809F0B9F900BFA4B00100C0B0010098
S315000047A020B00100F8B50D4617461E460446FDF733
S315000047B041F92369C5E90001124898470546C8B979
S315000047C0A3689847E3683860A0789847306094F902
S315000047D00130012B01D02846F8BDE36820799847BF
S315000047E0079AE3681060E07898470346069A2846D9
S315000047F01360F8BD01460448FDF72CF96FF005007B
S31500004800F8BD00BF59470000F8B0010070B5531E4F
S3150000481003EBD37382B0B1EB630F0D4604468DED07
S31500004820000ACDED010A4FDA8E465E1000E0E6463C
S315000048300EF101034FEA430C0CF1FF3104EB0313B5
S3150000484004EBC10093ED017AD0ED017AB4EE677AFC
S31500004850F1EE10FAC4BF8C46034604EBCE0EB44507
S3150000486093E803008EE80300E1DBD10731D50CF1B4
S31500004870FF3000EBD070AC459DED000A9DED017A4E
S315000048804FEA600008DC19E0844693E803006545BA
S315000048908EE8030012DA104604EBC003D3ED017A6A
S315000048A0B4EEE77AF1EE10FA00F1FF3202EBD272C3
S315000048B004EBCC0E4FEA6202E6D4734683ED000A9F
S315000048C083ED017A02B070BDD30714D48C4600EB99
S315000048D0C103023A02EBD272BCEB620FC7D14FEAB8
S315000048E04C0C0CF1010C04EBCC0292E8030083E8BB
S315000048F003001346BBE7B0EE607A04EBC503DDE7C1
S315000049003AB1012A09D0022A04BF0B6803600020CD
S315000049107047034B0360002070470160002070471A
S315000049205CB501003AB1012A09D0022A04BF0B681E
S31500004930036000207047034B03600020704701604E
S315000049400020704728B501002DE9F04717460A1ADE
S31500004950802A82B040F3CE800646002F00F0998070
S315000049609A468E4600F1080800F11009AEEB0602E1
S31500004970D30F03EBE2035B1006EBC30396ED037A5A
S31500004980D3ED017AB4EEE77AF1EE10FA5EED016A44
S3150000499007F1FF3749DDF4EEE67AF1EE10FA6BDC4B
S315000049A0B4EEE67AF1EE10FA49DC98E80300D6EDAB
S315000049B0016AC6ED036A336886E803005EED017A94
S315000049C0B36096ED017A4B464446F446B4EEE67A79
S315000049D0F1EE10FA254623D4B4EEE77AF1EE10FA9A
S315000049E0ACF1080239DDACF110018C46D1ED017A4B
S315000049F0B4EEE77AF1EE10FAA1F10801F5DC6445B0
S31500004A002ED29CE803001A4652F8085D82E803009D
S31500004A10CCED016A5CED017A96ED017ACCF8005096
S31500004A20D3ED016A08340833D0E7B4EEE67AF1EE46
S31500004A3010FABADCF4EEE67AF1EE10FA1CDD1EE9A5
S31500004A400300D6ED017A336886E803004EED017A5D
S31500004A504EF8083CD6ED036AB3E794466445D0D3D6
S31500004A603A46534671462046FFF76EFFA21B802A40
S31500004A7040DD7FB1A64679E77468326893E80300A3
S31500004A8086E803005C60D6ED036A5EED017A1A6083
S31500004A9097E70D46D410A4F102086F464FEA68085E
S31500004AA001E008F1FF3806EBC80393E8030087E846
S31500004AB00300224641469DED000ADDED010A30461F
S31500004AC0FFF7A4FEB8F1000FEBD1083D95E803000F
S31500004AD087E8030096E80300AC1B85E803009DED1C
S31500004AE0000ADDED010A00213046E210FFF78EFED6
S31500004AF0082CEADC02B0BDE8F08700BF884254D03B
S31500004B002DE9F84300F10805A9422DED028B064672
S31500004B10884646D000F1100413E0AE4254F8089CD3
S31500004B2005D03146AA1B06F1080010F02CFEB84548
S31500004B3086ED018AC6F8009004F1080405F108051F
S31500004B402FD014ED018AD6ED017AB4EEE78AF1EEA4
S31500004B5010FA2A462746E0DC54ED037AB4EEE78ADB
S31500004B60F1EE10FA54F808CC11DDA4F1100303F1AC
S31500004B70080293E8030082E803001A4653ED017A1F
S31500004B80B4EEE78AF1EE10FAA3F10803EFDCB845BC
S31500004B9082ED018AC2F800C004F1080405F1080597
S31500004BA0CFD1BDEC028BBDE8F8837047F0B5446801
S31500004BB087B001210546A000FDF718F801230394EC
S31500004BC08DF8143004930290002866D06B689C42DE
S31500004BD058D10346002C5DD00024A9682B6804FB3D
S31500004BE001F001AA03EB8000FEF7C8FE02986A688E
S31500004BF000EB840301990134A24219600346ECD804
S31500004C0003998A4244D10499012941D10026002AF8
S31500004C1040D0AF682B68BC0006FB043008B3029B8B
S31500004C2003EB860393ED007A67B100210346221851
S31500004C30D3ED007A77EEC77AE3EC017A9A42F7D1A0
S31500004C4061B96A680136B242E3D80024029810B10D
S31500004C509DF81430BBB9204607B0F0BDFCF7C8FF7D
S31500004C60EFE701212046FCF7C1FF40B1029B03EBB1
S31500004C70860393ED007A002FF0D00121D6E7029843
S31500004C80094CE4E7084CFCF7B3FF204607B0F0BD3B
S31500004C90054CDCE718460024D9E7044CDBE702A8FC
S31500004CA0FFF71CFA0BF07EFB14FCFFFF16FCFFFF60
S31500004CB0836810B5044613B103220146984720467F
S31500004CC010BD00BF2DE9F04F05680868A968126895
S31500004CD0B0FBF1FAB2FBF1F21B6887B00093EB6808
S31500004CE0986900FB0AFA00FB02A2924501922DD2B6
S31500004CF04FF000084FF0010B19B3009B002403EBA3
S31500004D00880608F1010705E0A9680134A14206F109
S31500004D10040615D9D5E900031B5D07EB04085344C7
S31500004D2003938368CDE904B6A3B1D0F80C9005AB24
S31500004D3004AA03A9C8470028E6D007B0BDE8F08F4B
S31500004D40EB689A699244019A5245D5D8002007B07B
S31500004D50BDE8F08FFDF7B2FD2DE9F04F2DED048B88
S31500004D600746D2E902A08B468BB0524911F080FD6E
S31500004D70D7F8108000280CBF01260326B8F1000FD3
S31500004D807FD04FF000099FED4C8ADFED4C8A9FEDF6
S31500004D904C9ADFED4C9ACDF80490B8F5806F4546F5
S31500004DA028BF4FF4806505FB0AF001218000FCF75F
S31500004DB01DFF0123CDE9075A8DF8243006900028FF
S31500004DC069D0BB68CDE903950590002B6AD03846BB
S31500004DD0FC6805AB04AA03A9A047DDF818C0B8F122
S31500004DE0000F41D000226146DBF80000019C0EE076
S31500004DF027EE287AA6EE097AA6EEA97A013200EB0A
S31500004E008403954283ED007A04F101042BD9F1EC79
S31500004E10017AFCEEE77A17EE903AC3F3074E07EEF7
S31500004E2010EAC3F3072EDBB206EE90EA07EE903ADD
S31500004E30B8EEC77AF8EEE66AF8EEE77A032E87EE62
S31500004E40086A86EE887AC7EE886AD1D1013200EB0D
S31500004E508403954283ED006A83ED017AC3ED026A0D
S31500004E6004F10304D3D80194A8EB0508BCF1000FA4
S31500004E7002D09DF8243053B93B6909F580694B454A
S31500004E808BD800200BB0BDEC048BBDE8F08F6046DC
S31500004E90FCF7AEFEF0E7A0F2EA300BB0BDEC048BF7
S31500004EA0BDE8F08FFDF70AFD06A8FFF717F90BF02E
S31500004EB079FA00BF2CB1010000007F43A245163FDE
S31500004EC08716993ED578E93D2DE9F043D0E901E210
S31500004ED00EFB02F4054683B004F1FF39002C47D1DE
S31500004EE04FF0010C60462F6807EB8C03D3ED007A78
S31500004EF0634603E0F0EE477AD5E901E2B3FBF2F14F
S31500004F0002FB11330EFB03134FEA531E54F82E60B7
S31500004F1003F01F0200FA02F107EB830831439C45B8
S31500004F2098ED007AC8ED007A44F82E10E2D100FA26
S31500004F3002F20A420DD04B4503F101020DD213468F
S31500004F40520954F8221003F01F0200FA02F20A4234
S31500004F50F1D19C46D5E901E2C6E7D5E90123C5E9C9
S31500004F60013214B12046FCF743FE03B0BDE8F083DE
S31500004F7004F11F025209920010460192FCF734FE1A
S31500004F80019A044628B1002110F017FCD5E901E288
S31500004F90A6E7D5E901E2A3E72DE9F04F2DED028B57
S31500004FA08BB0169E740801349C4240F0A580804662
S31500004FB00F46B00001211546FCF718FE012208969F
S31500004FC0CDE906028DF82420002800F08E80B74235
S31500004FD028BF374641464FEA8708424610F0C6FBCF
S31500004FE00698F71B0021BA00404410F0E6FB202E7D
S31500004FF067D0402E65D0802E63D0B6F5807F60D016
S31500005000B6F5007F5DD0B6F5806F5AD0B6F5006F65
S3150000501057D0B6F5805F54D0E4002046069FFCF7D3
S31500005020E3FD834600286FD0002305AA0092304690
S315000050301A461946FDF7E4FA0390002861D039466E
S315000050405A46FDF7C1FBDA469FED358A5C44DAF82D
S3150000505000000EF0FBFD8046DAF8040089460EF0EB
S31500005060F5FD02460B460EF049FE424606460F4641
S315000050704B46404649460EF041FE02460B46304638
S3150000508039460EF085FC0FF031F900EE100AB5EE48
S31500005090C00AF1EE10FA31DBB5EE400AF1EE10FA75
S315000050A034D4F1EEC07A0AF1080A5445E5EC017AE7
S315000050B0CDD10398FCF79CFD5846FCF799FD0024DA
S315000050C000E0184C069810B19DF824302BB9204604
S315000050D00BB0BDEC028BBDE8F08FFCF789FD2046D6
S315000050E00BB0BDEC028BBDE8F08F0F4C20460BB029
S315000050F0BDEC028BBDE8F08F0C4CE8E7F0EE487A89
S31500005100D1E75846FCF774FD074CDBE70CF0D8F8FE
S31500005110F0EE407AC7E706A8FEF7E0FF0BF042F98B
S315000051200000000008FCFFFF16FCFFFF11FCFFFF5C
S315000051302DE9F04F9846436885B0012B40F0C080BA
S315000051404B680C46012B40F0BB8093681746012B39
S3150000515040F0B6805368D8F80490013B994540F07A
S31500005160AF80D8F80860012E40F0AA8082688B686C
S3150000517005469A4240F0A48031464FEA8900FCF782
S3150000518035FDCDF80890CDE900068DF80C600028B5
S3150000519000F089807B683146013B9800FCF726FDCC
S315000051A0002800F08B80A268002A00F08E8000267E
S315000051B0F7EE006A3146D4F800907C68D5F800B066
S315000051C0DDF800A0013C8B0009EB810191ED007A2E
S315000051D0CCB100218C463D6805EB8C0EDEED007AE5
S315000051E0F4EEC77AF1EE10FA4FEA8C0C06D8DEED33
S315000051F0017AF4EEC77AF1EE10FA3CDC013189B29D
S31500005200A1428C46E8D30136B6B296423146DAD38D
S315000052102CB3002200261346009FD8F8005006E063
S31500005220013292B22B44A2421E60134617D200EB03
S315000052308301D1ED007AF5EE407AF1EE10FA4FEAED
S315000052408303EDD0F918D1ED006A86EEA77A013214
S3150000525092B22B44A24283ED007A1346E7D3FCF7C1
S31500005260C7FC0024009810B19DF80C3003BB204603
S3150000527005B0BDE8F08F5B4493ED007A0AEB0C03B2
S31500005280D3ED007A77EE877AC3ED007A8444DCEDBD
S31500005290007A77EEA67A0136B6B29642CCED007A5F
S315000052A0314690D3B4E70D4C204605B0BDE8F08FEB
S315000052B0FCF79EFC204605B0BDE8F08F074CD1E711
S315000052C0074C204605B0BDE8F08F7C68013C9FE79F
S315000052D06846FEF703FF0BF065F800BF16FCFFFFFC
S315000052E014FCFFFF2DE9F04F2DED028B1F4643689E
S315000052F097B0012B40F093814B688846012B40F014
S315000053008E817B089B4603938B680BF10105AB42AC
S3150000531040F0858153681446012B40F080819268E5
S31500005320954240F07C810268002A00F09881096865
S31500005330002900F094812168002900F09081CDE9D0
S31500005340062300238668B0EE408ABE4208968DF892
S315000053502430C0F02E813E4688BF0897029701216F
S31500005360B000FCF743FC01230C96CDE90A038DF847
S315000053703430002800F04E81029B5BB14FF07E5224
S31500005380029B013B99B2031D03EB810340F8042BFA
S315000053908342FBD1F7EE006A07EE907A86EE887AB2
S315000053A0F8EEE77A67EE877A236886EEA77A002416
S315000053B0A2B207EE902AF8EE677A67EE877AA146E0
S315000053C00134A542E3EC017AF2D101210420FCF775
S315000053D00DFC01230E90CDE90F338DF844300028E3
S315000053E000F0FC80079B012B40F04A8100250899BC
S315000053F0069B05FB01F012AA03EB8000FEF7BEFA3E
S315000054000E98079B00EB850212990135AB4211609D
S31500005410EDD80F9A934240F00481109A012A40F089
S31500005420008123B30026DDF820A006984FEA8A05FE
S3150000543006FB0500002800F0C2800E9A02EB8602E9
S3150000544092ED007ABAF1000F0ED000220346054411
S31500005450D3ED007A77EEC77AE3EC017A9D42F7D175
S31500005460002A40F0A980079B0136B342DBD8012110
S31500005470E000FCF7BBFB039B04464B45069D089EDC
S3150000548040F00081B74240F2D3800121B800FCF71A
S31500005490ADFB01221497CDE912028DF854200028A5
S315000054A000F0C180BE4228BF3E462946B5002A46C6
S315000054B010F05CF91298BE1B28440021B20010F0CF
S315000054C07CF9202F129D00F0C780402F00F0C48089
S315000054D0802F00F0C180B7F5807F00F0BD80B7F562
S315000054E0007F00F0B980B7F5806F00F0B580B7F5A2
S315000054F0006F00F0BA80B7F5805F00F0B680002339
