S0200000627269636B4D4C5F496E666572656E63655F467573696F6E2E737265639F
S31500000000E0380120C9E60000F5E40000C5E600007E
S31500000010C5E60000C5E60000C5E60000C5E600002E
S31500000020000000000000000000000000CD8100007C
S31500000030C5E6000000000000E58100004D820000DA
S31500000040EDCF000061CF000079D00000B9D00000EC
S31500000050F5D9000031DB00001DDC0000E1DC00000A
S31500000060E1E20000199A0000499A00007D9A00001A
S315000000709D9A0000BD9A00000000000000000000EC
S31500000080000000000000000000000000000000006A
S31500000090000000000000000000000000000000005A
S315000000A0000000000000000000000000000000004A
S315000000B0000000000000000000000000000000003A
S315000000C0000000000000000000000000000000002A
S315000000D0000000000000000000000000000000001A
S315000000E0000000000000000000000000000000000A
S315000000F000000000000000000000000000000000FA
S3150000010000000000000000000000000000000000E9
S3150000011000000000000000000000000000000000D9
S3150000012000000000000000000000000000000000C9
S3150000013000000000000000000000000000000000B9
S3150000014000000000000000000000000000000000A9
S315000001500000000000000000000000000000000099
S315000001600000000000000000000000000000000089
S315000001700000000000000000000000000000000079
S315000001800000000000000000000000000000000069
S315000001900000000000000000000000000000000059
S315000001A00000000000000000000000000000000049
S315000001B00000000000000000000000000000000039
S315000001C0FFFFFFFFFFFFFFFFFFFFFFFFFFFFFFFF39
S315000001D0FFFFFFFFFFFFFFFFFFFFFFFFFFFFFFFF29
S315000001E0FFFFFFFFFFFFFFFFFFFFFFFFFFFFFFFF19
S315000001F0FFFFFFFFFFFFFFFFFFFFFFFFFFFFFFFF09
S3150000020010B5054C237833B9044B13B1044800E00C
S3150000021000BF0123237010BDC005002000000000B0
S315000002203CE1010008B5034B1BB10349034800E05C
S3150000023000BF08BD00000000C40500203CE101002D
S31500000240F8B5114B05469E681F68346838465968EC
S31500000250A047B8B90122294638463369984704466B
S3150000026000210A4B5022C3E90011C3E902110848D4
S3150000027016F0C1F807480EF0A1FB0246064B2046D1
S315000002801A60F8BD0446EBE7B0CA01002C06002050
S31500000290DC050020500600204C06002030B58C46B8
S315000002A08646104913460A6883B001320A600E4A30
S315000002B0916810688C6862467146A047044668B922
S315000002C04FF47A750949034601220868082100950A
S315000002D00EF09CFB10F0080F08BF1224204603B056
S315000002E030BD00BF48060020B0CA01004C06002001
S315000002F030B58C468646104913460A6883B00132EB
S315000003000A600E4A916810684C6862467146A047BA
S31500000310044668B94FF47A7509490346012208680C
S31500000320042100950EF072FB10F0040F08BF122492
S31500000330204603B030BD00BF44060020B0CA01000D
S315000003404C06002010B504464FF0010C124B2279E2
S3150000035082B01968114801AB0CFA02F210F04AFC9F
S315000003602379022B05D0032B0FD0012B07D002B027
S3150000037010BD0B4A13880133138002B010BD094A21
S3150000038013880133138002B010BD074A1388013366
S31500000390138002B010BD00BF4C060020C5EB000064
S315000003A03E0600203C06002040060020044B1B6849
S315000003B08B42A3BF034B03EBC10148680020704783
S315000003C02C0B0020DC0A0020014800EB811070474E
S315000003D06C060020024801EB410100EB81007047EA
S315000003E070090020164B174A70B51C681268641A0B
S315000003F094420D4611D2144E3368092B15D80121AB
S31500000400284601F0A7FD0446A8B133680F4A591CD7
S31500000410316042F82300204670BD0A46204600217E
S315000004201C6015F0E8FF204670BD0024084801F066
S31500000430C5FC204670BD2946064801F0BFFCEAE728
S31500000440000B0020FC0A0020300B0020040B0020CB
S3150000045028AD0100A8AD0100F8B5104D2B68032B9F
S3150000046011D80F461446FFF7BDFF034680B12E682C
S315000004700020721C2A600A4A266042F8367002EB97
S31500000480C6025360F8BD074801F098FC0120F8BD8C
S315000004903946054801F092FC0120F8BD2C0B0020DE
S315000004A0DC0A0020E0AD010038AE01002DE9F04F76
S315000004B003464FF4907110208DB09847754B186025
S315000004C0002800F0E18084460B20734A73491060CF
S315000004D07348744C10647448916050647348946314
S315000004E0106573480B465065DFF8E4A17149724AFE
S315000004F00CF59070E1464FF00008704CCAF800C049
S315000005000190086002F5847E18E051685960216008
S315000005109BE8030085E8030093F83010012906D113
S315000005205169D1E9005069684068D960186118328C
S31500000530724503F1400304F10C0434D0D2E90206FB
S3150000054011785778022903F1300502F1100B1F705C
S3150000055083F82D8019759E61986027726060D4D1EA
S31500000560DBE90001556803F1300765445D6087E803
S31500000570030093F830102560012906D15169D1E9AD
S31500000580007079684068D96018613544A94502F160
S3150000059018023CBFA946CAF80050724503F1400351
S315000005A004F10C04CAD1019B4B4566D3DFF82491B4
S315000005B004A800F009FDCC4604AF0FCFACE80F004D
S315000005C03F4E97E80F008CE80F0004A802970196AB
S315000005D000F080FD04A804464FF0000C09F120024B
S315000005E003920FCC039CDFF8F0800FC4DFF8ECB069
S315000005F0DFF8ECE0029B45460FCB674684E80F0028
S31500000600704659462F4A019C06F1900A4FEA4C1C47
S3150000061059F80C30C4E90002C4E90517E7611BB1BB
S3150000062000221D48984720612434544506D0D5E958
S315000006300402A96995F81CC01035E7E7002309EB09
S3150000064043139B68144C08F110081BB13146204631
S31500000650984778B9243656450BD098F80C3008F1EF
S31500000660100809EB43139B68002BEFD1243656453F
S31500000670F3D100200DB0BDE8F08F134801F09EFBCA
S3150000068001200DB0BDE8F08F104801F097FB012066
S31500000690F0E700BF2C090020F40900206C060020BA
S315000006A059040000E5030000AD030000C903000083
S315000006B0D5030000000B0020000000207009002078
S315000006C04C0A0020DCB6010094AE01006CAE0100BD
S315000006D0FC0A0020300900209CB6010080B601000B
S315000006E048B60100014B9868704700BFF409002026
S315000006F0024B986800F52070704700BFF40900208F
S3150000070000232DE9F0410B4C0B4D0C4EDFF83080E9
S3150000071004F1900706EB431321464046DB689847F1
S315000007202434103518B9BC4201D02B7BF2E7BDE862
S31500000730F08100BF4C0A00209CB601003009002061
S31500000740F409002070B500240A4A0B4E03461068CF
S3150000075098470A4A3368146043B1094D55F8040BAB
S3150000076001F0FAFB33680134A342F7D80020306069
S3150000077070BD00BF2C090020300B00202C0B002080
S31500000780040B0020084A094B126802F1400002F1EE
S3150000079010015A60C3F8AC00C3F8C420C3F8DC10DB
S315000007A0C3F8F420704700BF2C0900200000002089
S315000007B0002370B584B0019383790446013B092B6D
S315000007C00DD8DFE803F00C0C170C0C0C240C1905E3
S315000007D02A4B01A918680EF063FD012800D100BF5D
S315000007E0019B3BB14FF08052254B5A60BFF34F8FB0
S315000007F0BFF36F8F04B070BD224A0023106804F166
S31500000800080101AA0EF0D8FC0128E9D1E7E71E4D40
S3150000081002A92B6F9847BDF8083003F47F43B3F560
S31500000820005F1DD0B3F5045F21D0A38903F47F4395
S31500000830B3F5085FD4D1154E022231462046AB6C83
S3150000084098470028CCD1E2893388C2F3400162F38D
S31500000850000333803288019B61F341023280C0E796
S31500000860AB6C072220460A499847019BB9E7EB6C17
S315000008700722204606499847019BB2E7100E002042
S3150000088000ED00E0740D002050CD0100380B002073
S315000008908402002038B50B4B0B491B680B48984760
S315000008A0054660B90A4C2388DA0705D401200FF003
S315000008B059FC2388DB07F9D50122064B1A70284616
S315000008C038BD00BF50CD01000CCB0100305D0020CB
S315000008D0380B0020340B002070B50C460146134837
S315000008E08023C568164612482246A847054660B9C1
S315000008F06EB1721C0F4B0FD0A10A02311868C9B233
S315000009000EF0F8FD01280DD01225284670BD0120F5
S315000009100FF028FC284670BD314618680EF0EAFD37
S315000009200128F2D100BF284670BD00BF50CD01009E
S31500000930305D0020100E00202DE9F04F1D4B83B0D6
S315000009401B78019083B364298A4626D900251A4B61
S31500000950DFF87090D3F80C80184FAAEB050BBBF1AB
S31500000960640F28BF4FF0640B019B5E1980235A4623
S3150000097031463846C04704460028F7D10221D9F847
S3150000098000000EF0B7FD0128F0D100BF6435AA457E
S31500000990E3D8204603B0BDE8F08F0024FFF79CFFA4
S315000009A0204603B0BDE8F08F054C204603B0BDE8F5
S315000009B0F08F00BF340B002050CD0100305D0020C9
S315000009C0925F0100100E002010B5044608300DF0AD
S315000009D0F5FF034604F12401636001200EF09AFB43
S315000009E0E066BDE81040FFF755BF00BFF0B50668EA
S315000009F004460F4615460121C06E83B0BEB10EF007
S31500000A0079FD0128064601D003B0F0BD23682A46C9
S31500000A109D6818683946AB689847B0B100231A46F6
S31500000A201946E06E03B0BDE8F0400EF0A7BA0EF02E
S31500000A3061FD0128E8D1324629463846FFF77CFF9A
S31500000A40334632463146E06EECE7009603463246C0
S31500000A50042160680DF0DAFFE0E700BF0EB4002164
S31500000A6070B5ADF5037D87AC54F8046B05464FF4BD
S31500000A70FE7203A8029115F0BEFC324623464FF4DF
S31500000A80007102A8019417F017FC02A816F018FDD1
S31500000A90024602A92846D2B2FFF7A8FF0DF5037D4C
S31500000AA0BDE8704003B07047036810B5052B0446D7
S31500000AB003DD406808B110F02DF9204610BD00BFD7
S31500000AC0836B0BB12421184710B515F033FC00BF1A
S31500000AD02DE9F047D1F8108096B0B8F1000F00F07C
S31500000AE006814D690C46002D00F00181824B0646B9
S31500000AF01A6800F0EDFF0746002836D07F4B2146E6
S31500000B0030461A6800F0E4FF814608B37C4B214664
S31500000B101A68304601F014F87A4B214682461A6864
S31500000B20304600F0F1FF0446002800F09680387841
S31500000B302378834278D199F800209A4218D001256B
S31500000B403046736970499847284616B0BDE8F08765
S31500000B5043236E497469304600916D4A6D49A0473A
S31500000B600125284616B0BDE8F08740236A49F1E71B
S31500000B704FF0FF3329783046C8F820303B46CDE9A0
S31500000B800248CDF804A0CDF8009000F041FA0546E1
S31500000B900028E6D13B78092BE3D1D9F8087057F83D
S31500000BA0042B052A0A926FDC92000BA8394615F031
S31500000BB0FBFBA76857F8044B052C109456DCA400E1
S31500000BC011A82246394615F0EFFB109B022B40F088
S31500000BD08C800A9B5A1E7CD4052B41DD0B9B53F857
S31500000BE0222001230692129A06A8CDE9073309921C
S31500000BF003F076F8011E57DD3046336C08F120020B
S31500000C0098470446002854D1109B052B03DD119804
S31500000C1008B110F07FF80A9B052BA2DD0B9800287F
S31500000C209FD010F077F89CE7776901F09DF80346AE
S31500000C3020781C4601F098F884460125374B30464B
S31500000C400193374BCDE9024C0093314A492335498C
S31500000C50B847284616B0BDE8F0874723324979E7FA
S31500000C6016AB03EB820252F82C2CBAE76FF0604306
S31500000C709C423FDAA400204610F0B8FB109B11906E
S31500000C80052BD8BF11A89CE76FF060439A422ADA79
S31500000C9092001046059210F0A9FB0A9B0B90052BBB
S31500000CA0059AD8BF0BA881E74FF0FF33C8F820306C
S31500000CB0AAE7109B052B03DD119808B110F02AF85E
S31500000CC00A9B052B03DD0B9808B110F023F8254687
S31500000CD047E715F02FFB10A8FFF7E6FE0AA8FFF777
S31500000CE0E3FE10F019F810F0CFF815F023FB15F01D
S31500000CF021FBF3E710F0C8F8DCB90100E4B9010004
S31500000D00D8B90100E0B90100ECB701008CB70100C9
S31500000D1014B7010060B7010078B70100D0B7010031
S31500000D20E0B70100B4B70100A0B701002DE9F04F0C
S31500000D30B5B0DDF8FC9082460C4622A849461D4611
S31500000D40904600F09DF9229B022B40F0B580DDE92C
S31500000D5023B6294628A800F093F9289B5A1E00F1CD
S31500000D60BB80052B40F39980299B53F8227041469E
S31500000D702EA800F085F901230021CDE90E33CDE937
S31500000D801233CDE91533CDE91A3362691793A36897
S31500000D9052422093E3681D92A2692193236852422E
S31500000DA01E920993E2696368CDE91077CDE90B11CC
S31500000DB0CDF834B0CDF864B0149618961C961F92F0
S31500000DC00A93216A002904DB5046DAF84430984732
S31500000DD00B90B8F1000F75D0D8F80030002D6FD009
S31500000DE03E992A68002969D03E990968B9F1000F31
S31500000DF05BD0D9F8000019AF15AE11AC069004917E
S31500000E00029200930597039601940DAB09AA1DA9BA
S31500000E100BA802F02BFF002845D03E992A68D8F887
S31500000E2000300968DAF81450B9F1000F01D0D9F88A
S31500000E300090CDE90361CDE901420093CDE9057942
S31500000E400DAB09AA1DA90BA802F010FF03460293D9
S31500000E5000230393214B50460193214B214A0093D3
S31500000E602149A623A84701242E9B052B03DD2F9895
S31500000E7008B10FF04FFF289B052B03DD299808B119
S31500000E800FF048FF229B052B03DD239808B10FF0D6
S31500000E9041FF204635B0BDE8F08F34AB03EB82024C
S31500000EA052F82C7C63E70446DEE74846A3E722A80F
S31500000EB0FFF7FAFD0FF030FF15F03CFA15F03AFA9D
S31500000EC015F038FA15F036FA2EA8FFF7EDFD28A82A
S31500000ED0FFF7EAFDEBE7FAE715F02CFA84B8010014
S31500000EE098B8010014B7010068B801002DE9F04177
S31500000EF04B6982B0002B5AD02E4B04461A68002844
S31500000F0055D00B680D4603EB82035968436D98472D
S31500000F10294A2B681268064603EB82035968204665
S31500000F20636D9847254B2A681B68804602EB83024F
S31500000F305168636D20469847214B6A681B680746CF
S31500000F4002EB830251682046636D9847296971B3A5
S31500000F50357A032D11D0092D1DD0012D284667693C
S31500000F600ED000F001FF01250246337A20461549CE
S31500000F70B847284602B0BDE8F08128466769F0E721
S31500000F8000F0F2FE337A02460E492046B84728465C
S31500000F9002B0BDE8F08101904346324620460097F4
S31500000FA0FFF7C4FE0546284602B0BDE8F08115F0FD
S31500000FB0C1F900BFDCB90100E4B90100D8B90100EC
S31500000FC0E0B90100BCB901000D4B002210B5844602
S31500000FD09E4604460B495A6019600B49C3E9042230
S31500000FE099600A49C3E90622D960BEE80F00ACE859
S31500000FF00F009EE80F008CE80F00204610BD00BFD2
S315000010003C0B0020C10A0000D10A0000ED0E0000D2
S31500001010F0B5012A85B00D9E02D1002005B0F0BDC5
S315000010201C469FED157B0C9B0F46009302AB01936C
S315000010302146DDE90A2305468DED027B00F09CFD85
S315000010400028EBD19DED020B3046311D00F094FCDB
S315000010500A9B22691B693946C6E905230C9B28466B
S315000010601A6906F10C03F26100930C9A06F1080363
S3150000107000F002FE05B0F0BD000000000000000018
S3150000108030B5044683B071B14D6865B155F8042B8F
S31500001090052A02600CDC9200201D294615F084F911
S315000010A0204603B030BD00232046236003B030BD88
S315000010B06FF060439A420ADA92001046019210F0ED
S315000010C095F92368019A052B6060E6DCE4E70FF0EA
S315000010D0DBFE00BF10B58646F446054C0FCCACE8E7
S315000010E00F0094E80F008CE80F00704610BD00BF9B
S315000010F0E8B901002DE9F04F91B0002800F0C38057
S315000011000D46002900F0BF800A68436D5168044609
S3150000111098476A68064651682046636D98472A696B
S315000011200746002A00F0AF80357A6B1E082B06D8DA
S31500001130DFE803F017051505050513052400284605
S31500001140676900F011FE337A0246574920460125A9
S31500001150B847284611B0BDE8F08F0720F0E7032016
S31500001160EEE70120676900F0FFFD337A02464E493B
S315000011702046B847284611B0BDE8F08F037A072B02
S315000011806AD0D2E9025B314604A8D2F81880FFF78C
S3150000119077FF39460AA8FFF773FF049A002A02F17F
S315000011A0FF301FDDDDE90A190023DDF814A098429F
S315000011B015D0052ADBBF04AC04EB830C5AF823E0F8
S315000011C0DCF804E0994262DD0529DBBF0AAC04EBDA
S315000011D0830C59F823C0DCF804C0E64555D1013329
S315000011E09A42E4D1002854DB052A37DC002A3EDD8A
S315000011F00DF1140C01210023984218BF5CF823401E
S3150000120003F1010318BF61439A42F5D1052A2FDD88
S31500001210059B53F820200A9B98423CDA052B20DDDB
S315000012200B9B53F820309A423BD13B683068CDE99E
S315000012300183CDF800B02B4601F0F6FC0A9B052B86
S3150000124003DD0B9808B10FF065FD049B052B03DD4C
S31500001250059808B10FF05EFD00257AE7DDF814C0A9
S31500001260C8E710AB03EB800050F8143CDBE7012124
S3150000127010AB03EB800353F82C2CCCE704A8FFF744
S3150000128013FC0FF049FD15F055F815F053F815F05D
S3150000129051F815F04FF815F04DF80AA8FFF704FCC1
S315000012A0ECE715F047F800BFBCB90100836B0BB142
S315000012B03821184710B515F03DF800BFFFFFFFFFB6
S315000012C02DE9F04F2DED0C8B0B6806461A6889B098
S315000012D0012A11D00125A14B4469CDE90132A04A6A
S315000012E05D2300929F49A04A0395A047284609B06E
S315000012F0BDEC0C8BBDE8F08F4B680C461F68012FC8
S3150000130011D01546954B99494469CDE9027201936E
S3150000131000915E23944A9349A047284609B0BDEC44
S315000013200C8BBDE8F08F002200F0D2FB804600282F
S3150000133053D083681B68002B29DD002221463046E6
S3150000134000F0E2FB8246002867D0D4F81090B9F18D
S31500001350000F77D098F80050072D27D09AF8000094
S3150000136007283DD0A8424AD1092D646900F0D481EE
S31500001370012D40F0E3819AF80000012840F0F78142
S31500001380206813F081FA0025C9E90001AEE7612360
S31500001390774A3D463046746976490092724AA047BC
S315000013A0284609B0BDEC0C8BBDE8F08F40F2024137
S315000013B03046B36B9847002800F0BD81C9F8280075
S315000013C040F202413046B36B9847002800F0CC81CA
S315000013D098F80050C9F82C00C0E76023664AD8E7A1
S315000013E0092D00F08581072D1AD07523634974698C
S315000013F0304600915C4A5F49A047012576E7604B7D
S31500001400CDE902500193304678235E497469009114
S31500001410554A5449A047012568E763235A4AB8E765
S31500001420DAF810508DB1594B0027CDE901357D23EF
S31500001430574A7469304600924A494B4A0397012538
S31500001440A04753E76523534AA3E707EE905AD9F816
S315000014502870F8EEE7DADFED509ABAEE049ADFED7F
S315000014604F8ADFED4FAA9FED4FAA9FED4FBAA7F126
S31500001470020B0BE0F4EECB7AF1EE10FA48DD47F6FC
S31500001480FF73B5F5007F2BF8023F47D0B0EE49DA7F
S31500001490ADEEA9DA0135B0EE4D0A10F099FB07EE74
S315000014A0905AF8EEE7DA60EE287AB0EE490AADEE29
S315000014B0A90AF8FE67BA10F08BFBF0EE40CAB0EE50
S315000014C04D0A10F085FBB0EE408A28EE288AB8FE59
S315000014D0488A3DEE2A0A10F07BFBB6EE00CAACEE57
S315000014E0A88A60EE287A28EE0C8AF8FE677AB8FE9B
S315000014F0488A78EE677A67EE8C7AF8FE677A7BEE32
S31500001500E77AF4EECA7AF1EE10FAB3D5F0EE4A7A3B
S31500001510FDEEE77A17EE903A1BB2B2E7DFED237ADB
S315000015209FED1E7AB7EE005A47F6FF73D9F82C5096
S315000015309FED1F3A9FED1B2A9FED1B1ADFED1D1A2B
S31500001540F0EE673AB0EE456AF0EE474A012240F205
S315000015500120A7F80034A91E66E000BF8CBA01007E
S3150000156050BA010068B8010008BA010060BA01006B
S3150000157074BA010060B7010078B70100E8BA01004B
S31500001580D0B70100E0B70100A0B701004CD60100BA
S3150000159024BB010090BA01000000A03C00000047F7
S315000015A00000203C000000C700FEFF4600000000CF
S315000015B00000003B0000803A000000386F12033341
S315000015C0F4EEC17AF1EE10FA41DD47F6FF7301320F
S315000015D0824221F8023F40D007EE902A76EEA16AB9
S315000015E0B8EEE75AF0EE635A76EE866AE5EE035AEF
S315000015F0C6EE267AB8FE477A75EE865A67EEA46A74
S31500001600C6EE252AF0EE477AB6EE004AE2EEA47A56
S3150000161067EE847AF8FE666AF8FE677A77EEE67A0F
S3150000162067EE847AF8FE677AF0EE636A77EE677A99
S31500001630E5EE036AF4EEC27A76EE865AF1EE10FA19
S3150000164086EE257A27EE247ABAD5F0EE427AFDEEBA
S31500001650E77A17EE903A1BB2B9E74FF48043DAED1A
S31500001660037A6469A5F8003498F80050DAF8103067
S31500001670092DC9ED087AC9F81C3049D0072D7FF429
S3150000168077AE002B40F082801FED357AF4EEC77AF4
S31500001690F1EE10FA5FED376ACCBF37EEC77A37EE58
S315000016A0677AB4EEE67AF1EE10FA00F3B980D8F86C
S315000016B00C0013F0E9F8064620680F4613F0E4F82C
S315000016C002460B463046394613F036F98EA3D3E967
S315000016D0002313F05BFA09F1080841EC100B4046B1
S315000016E007A900F049F9079B0025C9F80C30FDE56C
S315000016F06469DAF810306E48834200F0AA80CDE9BA
S3150000170002306C4A74692B2330466B4901927EE69F
S315000017109AF800000728EED0092871D1DAF81030BF
S3150000172013F1800F39D065496FF07F07CDE90113BA
S31500001730614A30237DE66B23614A2AE628467769AB
S3150000174000F012FB04460120054600F00DFB5D4B40
S31500001750844601935C4B304600934E23CDE9024C00
S315000017605A4A5B49B847C1E56F235A4A11E6776979
S3150000177000F0FAFA0446284600F0F6FA514B844681
S315000017800193554B304600934F23E7E75349002713
S31500001790CDE90113484A25234BE6DFED517A9AED50
S315000017A0037AB4EE677AF1EE10FA7ED1D8F80C001F
S315000017B013F06AF80B460246206843EC182B13F028
S315000017C063F809F1080541EC100BB0EE481AF0EE8B
S315000017D0681A2946052007AA00F0EAF807991F2289
S315000017E0C9F80C10052000F031F913F03BF801F1AF
S315000017F00047394613F050FB0025C9F8180075E577
S31500001800776900F0B1FA0446092000F0ADFA354BCD
S3150000181084460193304B0125009330462F239DE7E4
S3150000182000224FF07C5317EE900ACDE9042313F003
S315000018302BF8804689462C4B304601932B4B234A86
S31500001840009374692623CDE9028929490125A04719
S315000018504CE5DFED287A9AED037AB4EEE77AF1EEFD
S3150000186010FADFED256ACCBF77EE677A77EEC77A96
S31500001870F4EEE67AF1EE10FA98DD00221F4B17EE31
S31500001880100ACDE9042312F0FFFF804689461C4B5F
S3150000189030460193154B0D4A009374692C23CDE90C
S315000018A0028913490125A04720E5312315499EE504
S315000018B00080FFFF84BB010024BB0100A4BB010024
S315000018C0ACBA0100D0BB0100E0B7010008BA0100C4
S315000018D0B4B70100C4BA0100D0B701004CD601006C
S315000018E00000803B98BB010060BB01006CBB01009F
S315000018F040BB0100000080376F1283320000F03ECB
S315000019008CBB0100ACBB0100140014001400243F82
S3150000191038B541EC100B18461C4615460FF068FF0B
S315000019200022144B51EC100B13F006F841EC100B8F
S315000019300FF096FF51EC100B13F096FB4FF0004C96
S315000019400022844572EB010E12DB914208BF60450E
S3150000195008D0034622681F3202DA002213462260AC
S315000019602B6038BD22684FF0804301322260F2E7D7
S3150000197014F0E0FC0000E0412DE9F04155EC104B7D
S3150000198006460F460022002310EE100A294613F0E1
S315000019903BFA20B1002333603B60BDE8F0813B4653
S315000019A0324620462946BDE8F041FFF7B1BF00BFE9
S315000019B02DE9F84F4FF0004323FA00F05BEC10AB33
S315000019C059EC118B14460D4612F04CFF4246064662
S315000019D00F464B465046594612F0AEFF02460B469E
S315000019E03046394612F0A8FF15A3D3E90023064670
S315000019F00F4613F031FAA0B9804639463046002228
S31500001A00114B13F029FAC0B13046394600220023A3
S31500001A1013F0FAF940B1C5F80080C4F80080BDE8BB
S31500001A20F88F07A7D7E9006723462A463046394686
S31500001A30FFF76EFF2368002BF1DA14F07BFC00BF82
S31500001A400000C0FFFFFFDF410000F03F2DE9F84333
S31500001A500124074604FA00F0013815460E4612F036
S31500001A6001FF8046E81B8946C0F12003A0F1200152
S31500001A7024FA03F304FA01F1194304FA00F012F010
S31500001A802DFF02460B464046494612F055FF0246D8
S31500001A900B46A6F12005C6F1200104FA05F524FA45
S31500001AA001F104FA06F0294314461D4612F016FF0A
S31500001AB002460B462046294613F068F841EC100B07
S31500001AC00FF012FE51EC100B13F0E6F9BDE8F883A7
S31500001AD00968002A10B451F8044B10DBA2420EDA52
S31500001AE051F8221000290ADB826822B102EB81102C
S31500001AF05DF8044B7047036D5DF8044B18470020F2
S31500001B005DF8044B704700BF4968002A10B451F8CD
S31500001B10044B10DB94420EDD51F8221000290ADB3B
S31500001B20826822B102EB81105DF8044B7047036DA9
S31500001B305DF8044B184700205DF8044B704700BF62
S31500001B400968002A10B451F8044B10DBA2420EDAE1
S31500001B5051F8221000290ADB826822B102EB8110BB
S31500001B605DF8044B7047036D5DF8044B1847002081
S31500001B705DF8044B704700BF2DE9F0412DED028B57
S31500001B8082B0054691ED038AD2ED038ADDF82880FE
S31500001B907BB318EE100A1C4612F076FE064618EEC7
S31500001BA0900A0F4612F070FE02460B463046394642
S31500001BB012F0C2FE0646E0680F4612F065FE0B46BE
S31500001BC002463946304612F0FFFC0246D8F80C00B1
S31500001BD0164621F0004712F057FE02460B463046E5
S31500001BE0394612F0D3FF22A3D3E9002313F020F9DC
S31500001BF008B328EE288AB5EEC08AF1EE10FA29DB82
S31500001C0018EE100A12F040FE0446D8F80C000D46F5
S31500001C1012F03AFE02460B462046294612F0B6FF5F
S31500001C2002460B4600200B99C1E9002302B0BDEC29
S31500001C30028BBDE8F0814FF4A273094928466C690E
S31500001C40084A00910849A047012002B0BDEC028B6A
S31500001C50BDE8F08140F251130449EFE7AFF300808D
S31500001C6024BC0100E0BB010060B7010048BC0100D4
S31500001C707B14AE47E17A943F30B592F800C083B04A
S31500001C80BCF1030F3DD0BCF1090F1FD0BCF1070F0B
S31500001C9011D147F6FF742F4D0129D2ED036A106961
S31500001CA01DD0032930D002294ED01D60069B1C6032
S31500001CB0002003B030BD284944694FF4C273009137
S31500001CC0264A2749A047012003B030BD01294FF01D
S31500001CD07F046FF07F05D2ED036A1069E1D19FEDB5
S31500001CE0217AC7EE267AF8FE677AFDEEE77A17EED6
S31500001CF0902A0244AA42B8BF2A461A60069B1C6074
S31500001D00D6E7FF240025C7E7DFED167AB1EE086AAD
S31500001D1087EEA67AC6EE267AB8FE477AF8FE677A86
S31500001D20BDEEC77AFDEEE77A17EE101A17EE902A87
S31500001D300144A9420244B8BF2946A242A8BF22468E
S31500001D401960069B1A60B3E7FFEE007AB7EE006AE9
S31500001D50DEE700BF0080FFFF64BC0100E0BB0100BE
S31500001D6060B701000000000010289ABF024B53F82C
S31500001D7020000248704700BF10BD01006CBC010086
S31500001D800020704708B50EF015FA034B0021A3FB9F
S31500001D900030800908BD00BFD34D621008B50EF0B3
S31500001DA009FA4FF47A73044A0021A2FB0020800945
S31500001DB003FB00F008BD00BFD34D62100FB4002135
S31500001DC030B5C3B046AC54F8045BFC2203A80291BC
S31500001DD014F011FB23462A464FF4807102A80194A1
S31500001DE016F06AFA43B0BDE8304004B0704700BF51
S31500001DF0B5EE400A2DE9F04FF1EE10FA2DED028B0B
S31500001E008BB000F09080B5EEC00AF1EE10FA10EE3D
S31500001E1010AA6CD40FF018FFFDEEC07A17EE906A88
S31500001E2002AF01979FED448B26EAE676504612F004
S31500001E302BFD45A3D3E900238046894613F00CF811
S31500001E4008B9002E65DB304612F00CFDB0EE480AEC
S31500001E50F0EE680A41EC110B0FF00EFE55EC104B3C
S31500001E600022002310EE100A294612F0F5FF88B36F
S31500001E704FF0FF3220462946314B12F0F7FF38B9B2
S31500001E804FF0FF32204629462D4B12F0D1FF08B302
S31500001E9022462B464046494612F078FE41EC100B8E
S31500001EA00FF022FC51EC100B12F0F6FF834612F0F5
S31500001EB0D9FC22462B4612F03FFD02460B46404611
S31500001EC0494612F081FB13F02FF882460BF1300BD6
S31500001ED007F801BB4EB907EE90AAF5EEC07AF1EE0F
S31500001EE010FAC4BF2E2307F8013B013E9EE78AF095
S31500001EF0004A02AB00EE10AA01930FF0A5FE2D23B7
S31500001F00FDEEC07A0DF1090717EE906A8DF80830DC
S31500001F1088E7387001990B48FFF750FF0BB0BDEC0E
S31500001F20028BBDE8F08F302302AA0192ADF808308B
S31500001F30F0E700BFAFF3008000000000000024407F
S31500001F40FFFFEF7F54BD0100F168E388B5F8E43E7A
S31500001F5014F00CBA14F0F8B914F010BA2DE9F04FD9
S31500001F602DED0A8B89B0DDE91C452668D4F804906E
S31500001F70039609FB06F7B9F1010F80460E46049257
S31500001F8000EBC70700F02E81049A04F1080104460D
S31500001F90039802FB03FA02FB00F24FEAC90BCDF8E5
S31500001FA01490CDF81880894690464FEACA0A314601
S31500001FB020464246CDE900955C440293FFF7CEFFEA
S31500001FC0A742029B5644F2D1DDE90598039B023BEA
S31500001FD0032B00F24483DFE813F0250162011102AE
S31500001FE006004FF0080B049C05F5847209FB04F308
S31500001FF002EBC30202EBC303D2ED003A92ED012AD3
S31500002000B9F1000F08EB4B0293ED003AD3ED012A2C
S3150000201008EB0B0002EB0B0340F3DF80E6000396B0
S31500002020F1EE421A4FF0000C2F462E460BF1080B2C
S3150000203004EB440E03EB0B0108F1080808300832E4
S3150000204008334FEACE0E4FEA041B4FEA441A0295B4
S31500002050D5ED434A10ED016AD5ED42CA50ED020AAC
S3150000206096ED43CA53ED016A24EEC64A2CEE861A53
S31500002070029C96ED425AD4ED43AAD7ED429AD7ED8B
S31500002080435A11ED017AD4ED42BA52ED017AA0EE2F
S31500002090A41AA0EEAC4A6CEE660A13ED02AA12ED83
S315000020A002BAF0EE448A6AEEE74A25EEC74A29EEFE
S315000020B0876A65EE266AB0EE607A6BEEA77A11ED56
S315000020C0029AAAEE057AEAEE0C6AEBEE2B4AEBEEE2
S315000020D02A7AB0EE445AA9EE256AA9EE295A74EE78
S315000020E0C75A77EEE69A18ED028A18ED010A74EEE1
S315000020F0870A65EEC2AA31EE067A22EEA9AA31EE69
S31500002100461A77EEA67A38EEC54A78EE856AA2EECA
S3150000211001AA25EEE29AF0EE484AB0EE405AF0EEF9
S31500002120485AB0EE406A61EE628AB0EE6A1AA1EED3
S31500002130849AA2EE841AE3EEA64AA3EE875AE3EE49
S31500002140265AA3EE076AB0EE684AE3EE204AA3EEEB
S31500002150275AA3EEA76A76EEA06A37EE277AE3EE51
S31500002160A05AA2EE294A77EE007A76EE886A35EE14
S31500002170490A34EECA8A75EE840A36EE017A74EE9E
S315000021808A4A35EE095A75EEC45A36EE416A039C00
S315000021900CF1010C2544029C083008320833083142
S315000021A05C44E14548ED026A48ED017A08F1080809
S315000021B000ED048A00ED030A029441ED044A01EDA4
S315000021C0035A764442ED040A02ED037A574443ED7E
S315000021D0045A03ED036A7FF43BAF09B0BDEC0A8BEA
S315000021E0BDE8F08F02FB03F34FEAC30C00F10803CE
S315000021F01A4696E80300974202E90300664402F194
S315000022000802F6D1039A023A032A00F2B18101A12B
S3150000221051F822F0292200006B25000065250000F8
S31500002220E31F000008F10803049AD10009F1010236
S3150000223008EBC20895ED436A58ED017A95ED425ACE
S3150000224058ED025A26EE677A53ED026AA5EE857AB4
S3150000225076EEC76A65EE277A48ED026AE5EE867A7B
S3150000226053ED016A76EEE76A48ED016A13ED026AFC
S3150000227053ED016A36EE077A76EEA77AB9F10109CF
S3150000228003F1080308F108080D4403ED047A43ED51
S31500002290037ACFD109B0BDEC0A8BBDE8F08F08F107
S315000022A008031C46049BAA46D9000291190103FBA8
S315000022B009F305EBC30595ED43AA0BF1040608EBFC
S315000022C00B0708EB0915464408EB4B0BF1EE4AAA3F
S315000022D0D046039104359AED435ADBED016A98ED39
S315000022E0436ADAED423A98ED424AD7ED017A56ED65
S315000022F0014A55ED015A25EE677A66EE668A63EE67
S31500002300A77A24EE268AA4EEA37AE4EE857AE5EE91
S31500002310848AA5EE868A029B54F8080C9A44039B8D
S3150000232077EE289A37EE889A77EE688A37EEC88A6B
S31500002330984412F0A9FA41EC1B0B19EE900A12F020
S31500002340A3FA0022CD4B12F0F7FA02460B4651ECE7
S315000023501B0B12F039F912F0E7FD083446F8040CAD
S3150000236054F80C0C12F090FA02460B4619EE100ABD
S3150000237043EC1B2B12F088FA0022C04B12F0DCFA59
S3150000238002460B4651EC1B0B12F01EF912F0CCFD67
S31500002390786014ED047A54ED037A37EE297A77EEF5
S315000023A0897A04ED047A44ED037A56ED017AEAEE71
S315000023B0087A45ED017AD7ED017AEAEEA87ACBEDF7
S315000023C0017A56ED017AEAEE887A46ED017AD7ED82
S315000023D0017AEAEE287AB9F1010907F1080706F150
S315000023E008060BF1080B05F1080547ED017A7FF4A5
S315000023F072AF09B0BDEC0A8BBDE8F08F08F1080397
S315000024004E4628460499D5F804E001EB4107FF0043
S315000024104FEAC10C4FEA011906EB460108EB4B02E5
S315000024200BF1040408EBC101029708EB0B05774694
S31500002430444482468046DDF808E09344043121E0B6
S3150000244036EEC65A35EEA77A76EE866A75EEE77AE6
S3150000245004ED015A85ED017A41ED016ACBED017A71
S31500002460013E03F1080305F10805604402F1080284
S31500002470C8440BF1080BF24404F1080401F1080109
S315000024803FF4ABAE98ED422ADAED424ADAED432A42
S31500002490D5ED017A9BED017AD0ED420A90ED438AA3
S315000024A098ED431AD2ED016A11ED014A14ED010AC5
S315000024B0D2ED001A22EE263A64EE873A20EEA76A9B
S315000024C022EEC77A68EE677A61EE666A13ED025A03
S315000024D053ED015AA4EE247AE1EE826AE4EE223A42
S315000024E0A0EE086AE0EE207AA1EE813A76EE854A01
S315000024F037EE872A33EE254A76EE232A03ED014A84
S3150000250043ED024A34EE624A74EEC24A82ED014A53
S31500002510C2ED004A75EE666A77EEC77A13ED025A87
S3150000252013ED017A35EE025A37EE227A75EEC35A6A
S3150000253036EE636A03ED025A03ED017A002F7FF44B
S315000025407FAF36EE865A35EEE77A76EEC66A75EED8
S31500002550A77A04ED015A85ED017A41ED016ACBEDCA
S31500002560017A7DE74FF0080B4AE74FF0080B98E633
S31500002570039B4FF0080BDC002B6820460593FFF702
S31500002580E7FC05F58473029303464FF0000E4546BB
S31500002590F246083CE2180792049A09FB02F20692F8
S315000025A0039A002A4BDD5446002203EBC20608EBD1
S315000025B0C40103C986E803000399013291424C44E1
S315000025C0F3D1F4462E4600272C1D221F93E8030064
S315000025D082E80300039A012A29D054ED016A96ED98
S315000025E0017A19460022059862448242A8BF121A4F
S315000025F00298D1ED037A00EBC200D0ED005AD0ED7F
S31500002600014A91ED025A25EEA76A64EEE77AA5EE35
S31500002610246AE5EE257A37EE067A76EEA76A0798FB
S315000026200831814244ED016A86ED017ADBD1069AD2
S3150000263001379444039A5E44BA425C44C5D1049A75
S315000026400AF1010AD14505F108059644A8D11846B4
S3150000265009B0BDEC0A8BBDE8F04FFFF77DBC039BCC
S31500002660DC002B6820460593FFF772FC05F58473A2
S31500002670B9F1000F0293034687DCE8E70000E03F6C
S315000026802DE9F04F2DED028B8A4600F1210183B032
S31500002690C90004460191002B00F01381002A00F0C6
S315000026A018811968019881427FD3154601991960EE
S315000026B0C5E9004ABAF1000F00F0CD80002C40F3C6
S315000026C00C810FF23C29D9E90089204612F0CAF89C
S315000026D0AB464FF0000A06460F46504612F0C2F8C7
S315000026E042464B4612F028F932463B4612F04EFA65
S315000026F041EC100B41EC180B0EF0A2FF51EC100B45
S3150000270012F012FCB0EE480AF0EE680ACBF80801A7
S315000027100FF0FAF851EC100B12F006FC0AF1010A60
S3150000272054450BF1080BCBF80401D6D147EC106BDE
S315000027300FF01AFA0EF0D8FF4FF004082B4605F1F9
S31500002740080A57EC106B45469846DFF8BCB194FB77
S31500002750F5F305FB1342F2B1022D39D0042D66D1F3
S3150000276000224FF080433046394612F057FB50BBEB
S31500002770E1072DD45246022104EBD4735B10032CDF
S3150000278042F8081BCAF804301BDD9246DA071ED44D
S31500002790022593FBF5F3D146012B49F8085B1C464D
S315000027A0CAF804300DDDCA46D1E7002518600E9B35
S315000027B00BB1019A1A60284603B0BDEC028BBDE846
S315000027C0F08F4546F3E7D1462546CA46BFE71C4685
S315000027D0002230463946464B12F020FB0028F2D143
S315000027E0444BD1460BFB0433B3F1553F2FD2424B3A
S315000027F0052C83FB04234FF00302A3EBE47349F893
S31500002800082BCAF80430DCDD3A4A0BFB0322B2F18E
S31500002810553F1BD20325CA4693FBF5F3D146012B40
S3150000282049F8085B1C46CAF80430BCDCC9E7023527
S31500002830284612F017F8D14602460B46304639466E
S3150000284012F0ECFA0028AED02546BEE71C46052558
S3150000285000222A4BF2E7002C3FDD0FF28C09D9E962
S315000028600089204611F0FEFFAB4606460F4650464D
S3150000287011F0F8FF42464B4612F05EF832463B46F0
S3150000288012F084F941EC100B41EC180B0EF0D8FE57
S3150000289051EC100B12F048FBB0EE480AF0EE680A55
S315000028A0CBF808010FF030F851EC100B12F03CFB9E
S315000028B00AF1010A54450BF1080BCBF80401D6D1F5
S315000028C034E70846FFF744FB054600283FF46FAFA0
S315000028D0EEE61546019A1A6069E7204611F0C2FF36
S315000028E006460F4622E700BF182D4454FB2119C0A7
S315000028F000000840AAAAAA2A5655555500001440B9
S31500002900182D4454FB211940ABAAAAAA70B59142CE
S31500002910044682B00AD0012300F10805CDE900542F
S3150000292010461A46FFF71AFB02B070BD00680D4646
S31500002930C000FFF70DFB04F10803CDE900340123C5
S3150000294006461A462946FFF709FB226828463146FD
S31500002950D20013F029FD304602B0BDE87040FFF703
S31500002960FBBA00BFFFFFFFFF2DE9F04F2DED028BF5
S31500002970002587B010F00104059540F0B5801F468C
S31500002980451005AB90462846224600940E46FFF7B2
S3150000299077FE059B03F10C0905EB450303EBD373A7
S315000029A05B1009EBC3030393002F00F0A7803B687D
S315000029B0039A9342C0F0A780039B3B60B8F1000FD7
S315000029C053D00020059908F10C021144C8E90021F2
S315000029D001EBC501C8F8081005AB00903146284642
S315000029E005EBD57AFFF74CFE4FEA6A09002E42D076
S315000029F0012D35DD0FF2301BDBE900AB284611F067
S31500002A0031FF06460F46D8F808500134204611F02B
S31500002A1029FF32463B4612F0B9F80022404B11F02E
S31500002A20D5FD52465B4611F087FF41EC100B41EC99
S31500002A30180B0EF005FE51EC100B12F075FAB0EE05
S31500002A40480AF0EE680A28600EF05EFF51EC100BA3
S31500002A5012F06AFA4C4505F1080545F8040CD4DB7A
S31500002A60129B13B1129B039A1A60404607B0BDEC45
S31500002A70028BBDE8F08F012DF2DD0FF29C0BDBE936
S31500002A8000AB284611F0EEFE04460D46D8F8087055
S31500002A900136304611F0E6FE22462B4612F076F855
S31500002AA000221F4B11F092FD52465B4611F044FF87
S31500002AB041EC100B41EC180B0EF0C2FD51EC100B63
S31500002AC012F032FAB0EE480AF0EE680A38600EF0FC
S31500002AD01BFF51EC100B12F027FA4E4507F10807C1
S31500002AE047F8040CD4DBBBE7A8460E48FFF766F9A7
S31500002AF0404607B0BDEC028BBDE8F08F1846FFF7E5
S31500002B0027FA80465AE7A04640463A6007B0BDEC31
S31500002B10028BBDE8F08F00BF182D4454FB2109C07D
S31500002B200000E03F58BD0100182D4454FB21094028
S31500002B30F0B5064600681446436883B0002B68D19A
S31500002B4072680768FFF7E2FE73680022D3ED007A29
S31500002B5093ED017A77EE876A77EEC77A04EBC701C1
S31500002B6007EBD775012FC4ED006A4FEAC70CC1ED1C
S31500002B70007A4FEA650562604A6048DDF6EE005A63
S31500002B804FF0010E2246B46803EB0C0050ED014AEB
S31500002B90D3ED036A93ED026A94ED015A10ED027AC1
S31500002BA094ED004A74EEA67A76EEE46A76EE474A2B
S31500002BB037EE067A25EE676A67EE847AA4EE846AB3
S31500002BC0E4EE857A77EE064A37EEA65A37EE467A6F
S31500002BD077EEE67A24EEA56A65EE256A27EE257A73
S31500002BE067EEA57A0EF1010E0839AE4502F108022C
S31500002BF082ED006AC2ED016A03F1080381ED007AF5
S31500002C00C1ED017AA0F1080004F10804BEDD03B0AD
S31500002C10F0BD03480191FFF7D1F8306801998FE7BD
S31500002C2074BD0100FEE700BF2DE9F04F9FB0009391
S31500002C300B1E189002921D9340F3858400231C936B
S31500002C40531EC3180393189A029992F9003001296A
S31500002C501A9340F319859B46039912F9013F9B4548
S31500002C60B8BF9B4691424FFA8BFBF6D100221899CA
S31500002C700192C1F101020592009A8E46D20F1A9B6B
S31500002C801292CDF810B086E0CB49C0FB0123002B91
S31500002C9004DA6FF00041521843F10003D20F00210D
S31500002CA042EA43024FF080438846184602F1E24268
S31500002CB0C24EA2F52522A2F26C72C2FB0608069D40
S31500002CC0C00F15400A9A40EA480002409846084656
S31500002CD05540BB4A109EC5FB028042462E40984690
S31500002CE00D46D20F42EA40020B98F2271040B54A31
S31500002CF04640C6FB028542460998D20F42EA450283
S31500002D002240304050400D461A46AF4E079CC0FB4D
S31500002D1006250440D20F0C9842EA450210400D46A3
S31500002D201A46AA4E4440C4FB0625D20F42EA450283
S31500002D300BEA020B0D461A460E98DFF89CC220409D
S31500002D408BEA0000C0FB0C250F9CD20F04401198A3
S31500002D5042EA450200EA020A8AEA040ACAFB073185
S31500002D600D9ADB0F0AEA020A089A43EA41031A405F
S31500002D7082EA0A0A4FEA2A331AF4006F18BF0133AF
S31500002D80019A1A440192059B029A73449A4240F3AF
S31500002D9025811EF9013F049A9B1A299A9A42F2DC70
S31500002DA0289A12999340DA0F8A420CBF00214FF0FD
S31500002DB0FF31874A08BF4FF080420098C3FB0021CD
S31500002DC0002904DA6FF00040121841F10001D20F19
S31500002DD042EA4101009A934200F0C1804FF08043DD
S31500002DE04FF0000C41F07F484FEA481000F1805048
S31500002DF0A8EB0108C0FB003CC8F3006A0AF1FF32E9
S31500002E00C8F3C069069209F1FF320792BCF1000FC0
S31500002E1048F38072C8F38076089204DA6FF00047B0
S31500002E20DB194CF1000CDB0F43EA4C03A3FB032434
S31500002E304FEAEC7C03FB0CF712F1804244EB4704AB
S31500002E40002C1D4604DA6FF00047D21944F1000445
S31500002E50D20F42EA440200FB0CFCCAF100040A94B9
S31500002E60C9F100040C94741E0D94C8F34066C4178F
S31500002E7003FB04CC48F34067C8F38064013EC8F303
S31500002E80007BC8F3407A0B9710964FEAD378661EFC
S31500002E90A0FB037309960BF1FF3602F003090E96A9
S31500002EA092100AF1FF360F96002ACAF10006634413
S31500002EB0C4F100044FEAD07CCBF1000B11964BDB3A
S31500002EC04FF0010ACA45424EB8BF0132E0450BBF7A
S31500002ED04FF0804CB4464FF000084FF0FF381CEB23
S31500002EE0070C48EB0303002B05DA6FF000471CEBD9
S31500002EF0070C43F100034FEADC7C4CEA430C6244C6
S31500002F00002AACBF00274FF0FF37314BA8BF4FF068
S31500002F108043304EC2FB0637002F04DA6FF00042C2
S31500002F209B1847F10007DB0F43EA47032B445A106F
S31500002F3002D4DE0748BF0132254B10440028B3BF38
S31500002F401A464FF0804200234FF0FF3300297FF4EA
S31500002F509BAE4FF4002313E74FF0020AB2E7009B43
S31500002F60B3F1004F00F0CF834FF080434FF0000CD9
S31500002F7041F07F484FEA481000F18050A8EB010865
S31500002F80C0FB003CC8F3006A0AF1FF32C8F3C0690F
S31500002F90069209F1FF320792BCF1000F48F38072E6
S31500002FA0C8F380760892BFF63EAF6FF000429B18DA
S31500002FB04CF1000C37E700BF94A8F5707BBEAF63F9
S31500002FC0F2CBA24D6CAC162FA4AA5211B72A580206
S31500002FD0010000C0ABAAAA2A11FE0A000199DDF879
S31500002FE010B0002900F0D583B1FA81F3994001F1C0
S31500002FF00041C3F12303139311F100434FEAE1713A
S3150000300041F100015B0843EAC1736D4A4910584219
S3150000301002FB0100A3FB022420446A4C121960F152
S315000030200000002804DA6FF00044121940F1000095
S31500003030D20F42EA400202F15A3202FB01F4D017E3
S3150000304003FB0044A2FB035015F1804544EB00004E
S31500003050ED0F45EA4005C5F10055002D82FB05043C
S3150000306080F21F83574D401964F10004002C04DAE6
S315000030706FF00045401944F10004C00F40EA4400D7
S3150000308012EB800240F1878301264FF0FF374D4D4A
S3150000309002FB01F4D01703FB0044A2FB030C40190A
S315000030A0644444EB0707002F04DA6FF0004400196C
S315000030B047F10007C00F40EA4700C0F10050C40FB7
S315000030C0B4420CBF00254FF0FF353E4C08BF4FF011
S315000030D08044C2FB0045002D04DA6FF0004024183E
S315000030E045F10005E40F44EA4504B4F1005FC0F27F
S315000030F0C2824FF08044002502F10042013A02FBF1
S3150000310001F1D01703FB0011A2FB03361B19314452
S3150000311041EB0505002D04DA6FF000415B1845F11F
S3150000312000054FF0FF34DB0F43EA45032549C3F1A1
S31500003130005303FB00F0DD1702FB0500A3FB02357D
S315000031405B18284440EB0404002C04DA6FF00041BD
S315000031505B1844F10004DB0F43EA4403B3F1005F5C
S31500003160C0F279826FF000431A44B2F1804FA8BFD3
S315000031701293C0F22A83029B002B40F3D381129B49
S31500003180DDF8A8A0002BB3BF4FF0FF334FF080420D
S3150000319000230C4ACDF810B0CDE915230123189A67
S315000031A0D3460192009AD20F1792139A9340013B8D
S315000031B014935B10199301331B931A9B90E100BF84
S315000031C0C4C3C3C3010000C0289A17999340DA0FFD
S315000031D08A42CB4A0BBF4FF08041114600224FF086
S315000031E0FF32009CC3FB0412002A104604DA6FF07B
S315000031F00042891840F10000CA0F009942EA4002D5
S315000032008B4200F0AC814FF08040002742F07F43B4
S315000032105C019B1A04F18054C3F30066C3F3406556
S31500003220711EC4FB0407C3F380690591691EC3F3CD
S31500003230C068069109F1FF31079108F1FF31089145
S31500003240002F43F300710B95C3F3807EC3F3007A1E
S31500003250099104DA6FF00041401847F10007C00FEA
S3150000326040EA4700FF1700FB07F10D46A0FB001CD4
S3150000327011F180414CEB450CBCF1000F0A9004DAC9
S315000032806FF0004549194CF1000CB2FA82F20B9D21
S3150000329004FB07F76D4252090B950AF1FF35C90F7A
S315000032A00D95C8F10005C2F1000841EA4C010F95E1
S315000032B04FEAE47C28F0004500FB0C770C954FEABA
S315000032C0D078A4FB005011950EF1FF35C3F340737F
S315000032D00E95CEF1000501F0030C384476425F1ED0
S315000032E0C9F100098910013A4FEAD47A5B42109578
S315000032F00029C0F231814FF0010EE645804DB8BF7E
S315000033000131D04513BFAC464FF0804C4FF0000E54
S315000033104FF0FF3E119D1CEB050C4EEB0000002804
S3150000332005DA6FF0004E1CEB0E0C40F100004FEA80
S31500003330DC7C4CEA400C61440029ACBF4FF0000C29
S315000033404FF0FF3C6E48A8BF4FF080406D4DC1FB6B
S31500003350050CBCF1000F04DA6FF0004140184CF187
S31500003360000C0A99C00F40EA4C0001440846491077
S3150000337002D4C50748BF01310C44002CACBF002065
S315000033804FF0FF305E49A8BF4FF080415E4DC4FB51
S315000033900510002804DA6FF00044091940F1000016
S315000033A0C90F41EA400101F1E2410598A1F5252145
S315000033B0A1F26C714FF0804E01EA000C00207446B9
S315000033C08046524D4FF0F20AC1FB0548E40F44EA2D
S315000033D048042640069986EA0C0C0CEA01040646C7
S315000033E071464B4DCCFB0516C90F41EA4601F44622
S315000033F006460B9D0D4047496C40C4FB01C661461D
S31500003400079DC90F41EA4601254009EA01090899C5
S3150000341089EA050909EA0104054671463E4EC9FBDB
S315000034200615C90F41EA45010F9D3C4E05EA010804
S315000034300D9988EA040808EA010405467146C8FBA6
S315000034400615C90F41EA4501099D354E0D406C40F0
S3150000345071460546C4FB0615C90F41EA45010B40F6
S3150000346027407B40C3FB0AE00E994FEADE7E0B4005
S3150000347010994EEA400E01EA0E0E8EEA030E0C9BE0
S315000034800EEA020282EA0308129ADDE91513C2FB6C
S315000034900813002B04DA6FF00042891843F1000389
S315000034A0C90F41EA4301139A149B0B4011414DD4B5
S315000034B0199A934200DD0131803911F17F0F48DB03
S315000034C07E2900F3C68049B2019B039A8BF800104F
S315000034D093420BF1010B25D01A4612F9013F0192D6
S315000034E0049A9B1A299A9342BFF66EAE8023039ADA
S315000034F08BF80030019B0BF1010B9342ECD111E0EC
S31500003500010000C0ABAAAA2A94A8F5707BBEAF63DF
S31500003510F2CBA24D6CAC162FA4AA5211B72A5802B0
S3150000352011FE0A00029A18991C9B114418912A99B7
S31500003530013311442A9103991C9311441D9A039156
S315000035409A427FF480AB1FB0BDE8F08F1B9A93427E
S31500003550B1DC6FF07F01B7E74FF0020ECDE6009BBE
S31500003560B3F1004F00F0B2804FF08040002742F0E8
S315000035707F435C019B1AC3F3807104F18054C3F34B
S315000035800066C4FB0407C3F340651091711EC3F3C4
S31500003590806C0591691EC3F3C06806910CF1FF317A
S315000035A0079108F1FF310891002F43F30071C3F32F
S315000035B0007A099104DA6FF00041401847F10007DC
S315000035C0C00F40EA4700A0FB001EFF1700FB07F9EB
S315000035D011F180414EEB490EBEF1000F0A9005DA5B
S315000035E06FF0004911EB09014EF1000EB2FA82F2BA
S315000035F06D4204FB07F752090B950AF1FF350D954D
S31500003600C8F10005C2F10008CCF100090F954FEA98
S31500003610E47C28F0004500FB0C770C954FEAD07847
S31500003620A4FB00501195109DC90F013D0E95109DEC
S3150000363041EA4E01C3F340736D4201F0030C384476
S3150000364076425F1E8910013A4FEAD47A5B421095A2
S315000036504EE67F2138E7B3F1604F00F3AA8002F10E
S31500003660004352001292B3F1404F129BD8BF4FF065
S31500003670004312937FE5B4F1604F61DC4FF0FF35F4
S31500003680534C02F100423AE500F08A800023DDF84F
S3150000369068B003214FF0804013914FF05A3219461B
S315000036A04C4C10F1804044F10004002C04DA6FF019
S315000036B00045401944F10004C00F40EA440002EB03
S315000036C080024FF080450027D60FE1E400234FF03B
S315000036D0FF324148414C11900A944FF4003199460B
S315000036E017461E469A4698469C46CDE90F33CDE9C5
S315000036F00B33CDE90823CDE906223948394C0E9221
S315000037000D920592F7E500244FF0FF364FF4003294
S315000037106FF00041A346A446A046A146CDE90E6639
S31500003720CDE90C46CDE90A44CDE907642A4F2C4B76
S315000037302A4D2C481096119409960696FFF7C0BBA1
S3150000374012EB840230D501254FF0FF36204CD017FE
S3150000375003FB00F702FB0171A3FB02371B19394477
S3150000376041EB0606002E04DA6FF000415B1846F1C5
S315000037700006DB0F43EA4603C3F10053D90FA94203
S3150000378008BF0024124914BF4FF0FF344FF08041A8
S31500003790CFE4019B7DE700264FF08045374677E46E
S315000037A0DDF868B0FFF762BA00254FF080442E4678
S315000037B0CDE702EB83035A00B3F1804F1292FFF676
S315000037C052AF6FF000431293D5E453001293D2E444
S315000037D0010000C04B4B4B0B00010040F8FFFF01FE
S315000037E0FFFF1F00E0FFFF0F2DE9F04F93B001929E
S315000037F0229ADDE91C49012A0FFA84FE0FFA89FC98
S3150000380006900E910F93CEEA0E4ECCEA0C4C40F386
S3150000381034811E466FF0030A209A00915142229A83
S315000038200123941E219A8B40103A22F00F0202F1D6
S31500003830100524F00102324404320792219A013B1A
S31500003840AAEB020A52000592209A0D9322EAE2722E
S315000038500492B21C029202462A440392219A5B10F9
S3150000386004320992219A0B93013A01330C91119477
S3150000387008950A9210930199002900F0C9814A68B7
S3150000388051F8083B019121990F2940F3C78100990E
S315000038900998069D039F0C18CDF874905AF804B049
S315000038A028684FEA3B294FEA302854F8041C0AEBF3
S315000038B004062CFA8BFB2CFA89F92EFA80F02EFAE4
S315000038C088F820FB0B332CFA81FB28FB0933D6F84A
S315000038D004904FEA31212CFA81F120FB0B2028FBC2
S315000038E0010069684FEA392B4FEA31222CFA89F830
S315000038F02CFA8BFBD4F800902EFA81F12EFA82F284
S3150000390021FB08332CFA89F822FB0B3BB3684FEAFC
S3150000391039292CFA89F921FB080822FB0988A968AC
S315000039204FEA33294FEA312062682CFA83F32CFAE6
S3150000393089F92EFA81F12EFA80F021FB03BB2CFACD
S3150000394082F320FB09BBD6F80C904FEA32222CFA00
S3150000395082F221FB038820FB0280EE684FEA3923BE
S315000039604FEA3622D4F8088010352CFA89F92CFA59
S3150000397083F32EFA86F62EFA82F126FB09BB2CFA81
S3150000398088F921FB03B34FEA38282CFA88F826FB7E
S31500003990090021FB0802BD4204F110047FF47EAF4A
S315000039A0089800990746DDF87490039C0D18219934
S315000039B0B94215DDCF1B0A99DDF870806E1E2744CB
S315000039C00D4414F9011B16F9010F4144484401FB4B
S315000039D0003315F9010FBC42484401FB0022F0D127
S315000039E04FF080410020049C1F9DA340C3FB05109F
S315000039F0CB0F209943EA4003002940F3E88004995D
S31500003A00002B02FA01F2C0F20D814FF08041002036
S31500003A101F9CC4FB0210C90F51EA400100F1F4805B
S31500003A201E9A059813441144239A9342B8BF13462D
S31500003A309142B8BF1146009A0244249800928342EC
S31500003A40A8BF03468142A8BF0146029A02F8023C7B
S31500003A50079B02329342029202F8031C7FF40BAFDB
S31500003A60119B059A5B0803FB02220E990133114450
S31500003A700F9A0E9102EB43030F93229BDB0740F153
S31500003A80A280019B002B00F0EB801A68219B0F2B74
S31500003A9040F3E880A3F110084FEA1818069B08F1D6
S31500003AA001080E994FEA081A03EB08150E68186804
S31500003AB04FEA36242CFA86F62CFA84F74FEA30249D
S31500003AC02EFA80F02EFA84F420FB062224FB07242B
S31500003AD04E685A684FEA36202CFA86F62CFA80F79A
S31500003AE04FEA32202EFA82F22EFA80F022FB0642AC
S31500003AF020FB07208E689A684FEA36242CFA86F651
S31500003B002CFA84F74FEA32242EFA82F22EFA84F443
S31500003B1022FB060224FB0724CF68DA684FEA372621
S31500003B204FEA3220103110332CFA87F72CFA86F63A
S31500003B302EFA82F22EFA80F022FB074220FB0622A2
S31500003B40AB42B3D10E9B53440E934FEA081321990F
S31500003B5099420EDDCB1A0E991C9E481E2B4415F970
S31500003B60014B10F9011F344449449D4204FB0122D4
S31500003B70F5D14FF080410020209B23EAE3739A4061
S31500003B801F9BC2FB0310CB0F43EA4002209B002B76
S31500003B900DDC01215B429940013902EA01001A411C
S31500003BA04FEA610148BF01318842C8BF01321E9BFE
S31500003BB01344239A9342B8BF1346249A9342A8BF4C
S31500003BC013460F9A1370002013B0BDE8F08F0D9DB9
S31500003BD00C9E03EA0500334130D4A2404FF08041E9
S31500003BE000241F9FC7FB0214C90F41EA44010B9C26
S31500003BF00D403141A0420B9AC8BF0133002905DBB5
S31500003C00AA42B8BF01310BE700252A460132F7E781
S31500003C102199019B0F291A463FF739AE0027009DCF
S31500003C20069CC4E600254FF0804128461F9CC4FB35
S31500003C300210C90F2A4641EA4001DFE70499002530
S31500003C408A404FF080411F9E109CC6FB02150D9ABC
S31500003C50C90F41EA450102EA01050C9A1141C9E77B
S31500003C60019A13E70023069D71E700BF2DE9F04F87
S31500003C701D688BB09046DDE9146ADDE91829DDF888
S31500003C8058B01A9F3DB30C46D9F80C30DAF800103C
S31500003C90D4E9030C0693D8F804E00591CDF820C0CA
S31500003CA0A368D8F800C00790CDF810E0D4E900105A
S31500003CB0CDE9023CCDE900103B4630465946189204
S31500003CC0FFF792FDDAF80010D9F80C30013D189A8A
S31500003CD00E441F44DCD100200BB0BDE8F08F00BFBE
S31500003CE00020704782B0019191B10B46DFED0A7A50
S31500003CF0B0EC017A013B77EE877AF9D19DED017A36
S31500003D00B8EE477AC7EE876AC2ED006A02B070471E
S31500003D10DFED017AF2E700BF0000000000B583B0D6
S31500003D20019119B30B469FED177AF0EC017A67EE15
S31500003D30A77A013B37EE277AF7D1DDED017AF8EE67
S31500003D40677A87EE270AB5EEC00AF1EE10FA4FF051
S31500003D5000030EDBB5EE400AF1EE10FA0BD4F1EEDD
S31500003D60C07AC2ED007A03B05DF804FB9FED057AD8
S31500003D70E3E71360F7E701920DF096FF019AF0EE84
S31500003D80407AEEE7000000000388B0F802C04968F8
S31500003D900CFB03F342683BB1F2EC017A67EE807AE2
S31500003DA0013BE1EC017AF7D100207047F0B5B0F89D
S31500003DB000E04C68468845684FEA8E0CB70004EB75
S31500003DC08E0E234646B13246294651F8040B013A77
S31500003DD018606344F9D13D4404347445F1D10020A0
S31500003DE0F0BD00BF002070472DE9F041B1F5805FBE
S31500003DF00C4605461746037982B00FD3012B1ED118
S31500003E0001AE3B780022022130468DF804408DF841
S31500003E100530FCF743FA02B0BDE8F081002BEFD085
S31500003E200022072301AE022130468DF805208DF8C9
S31500003E300430FCF733FA0028EDD12871E1E70723B7
S31500003E404FF0010801AE0022022130468DF8043001
S31500003E508DF80580FCF722FA0028DCD185F804806D
S31500003E60CFE700BF10B50223044682B03E2101AA67
S31500003E708DF80430FFF7B8FFE3689A681868D369CD
S31500003E8098470023236002B010BD00BF002310B581
S31500003E9082B03D2101AA04468DF80430FFF7A4FF45
S31500003EA008B102B010BD80233F21204601AA8DF83B
S31500003EB00430FFF799FF0028F3D18DF804003E2166
S31500003EC0204601AAFFF790FF0028EAD141F20A0135
S31500003ED02046621DFFF788FF0028E2D141F20B0160
S31500003EE02046A21DFFF780FF0028DAD141F2090122
S31500003EF02046E21DFFF778FF0028D2D14021204658
S31500003F0004F10A02FFF770FF0028CAD13B212046C0
S31500003F1004F10902FFF768FF0028C2D10C233D21F6
S31500003F20204601AA8DF80430FFF75EFFB9E700BF0F
S31500003F3038B50B464FF0030C0446002209689D680D
S31500003F40C160998880F804C001824561587B93F866
S31500003F500CC000F018000CF0070C40EA0C002072B0
S31500003F60187C93F80FC000F038000CF0070C40EAFC
S31500003F700C00A2716071D87C93F812C000F0180092
S31500003F800CF0070C40EA0C00E071187D00F003000D
S31500003F90A072D87D93F815C020F07F000CF0100CAD
S31500003FA040EA0C0093F816C093F811E00CF0040CEC
S31500003FB040EA0C0093F80EC00EF0020303430CF027
S31500003FC0010003436372AB682868DB6998470A20DF
S31500003FD00CF0C8F8636901229868218AC5691868D7
S31500003FE0A84740F252300CF0BDF82046FFF74EFFCE
S31500003FF008B9014B236038BD9584137638B504465D
S315000040004369018A9D6800221868EB6998470A206F
S315000040100CF0A8F86369218A98680122C5691868B6
S31500004020A84740F252300CF09DF82046BDE83840D3
S31500004030FFF72CBF70B503790D4682B0E3B901AE28
S3150000404001223423304611468DF80430FCF726F958
S3150000405008B102B070BD024601216846FCF748F976
S315000040600028F6D19DF9003007EE903AF8EEE77A8F
S31500004070C5ED007A02B070BD0022072301AE0446EA
S31500004080022130468DF805208DF80430FCF706F93C
S315000040900028DED12071D3E7F0B51C4603790E4621
S315000040A0154685B0002B55D101222023114601A8C3
S315000040B08DF80430FCF7F2F808B105B0F0BD082120
S315000040C002460DEB0100FCF713F90028F5D19DF827
S315000040D009209DF808309DF80AC003EB02231BB2A5
S315000040E006EE103A9DF80B309DF80F200CEB032CD2
S315000040F00FFA8CF306EE903A9DF80CC09DF80D3041
S31500004100DFED1C5A0CEB032C0FFA8CF307EE103A7A
S315000041109DF80E30B8EEC66A03EB02231BB207EE1B
S31500004120903AF8EEE66AB8EEC77AF8EEE77A26EE47
S31500004130256A66EEA56A27EE257A67EEA57A0A9BBA
S3150000414086ED006AC5ED006A84ED007AC3ED007A5B
S3150000415005B0F0BD072300220746022102A88DF80C
S3150000416008308DF80920FCF799F80028A5D1387198
S315000041709AE700BF00008038F0B51C4603790E466A
S31500004180154685B0002B3CD101220E23114601A80D
S315000041908DF80430FCF782F808B105B0F0BD024690
S315000041A0062102A8FCF7A4F80028F6D19DF80920FC
S315000041B09DF808309DF80AC003EB02231BB207EEF8
S315000041C0903A9DF80B30F8EEE76A0CEB032C0FFAE9
S315000041D08CFC07EE90CA9DF80D309DF80CC0B8EE29
S315000041E0E77A0CEB032C0FFA8CFC07EE90CAF8EE7C
S315000041F0E77AC6ED006A85ED007AC4ED007A05B06F
S31500004200F0BD072300220746022102A88DF80830D8
S315000042108DF80920FCF742F80028BED13871B3E7C3
S31500004220F0B51C4603790E46154685B0002B3CD1E9
S3150000423001220823114601A88DF80430FCF72EF858
S3150000424008B105B0F0BD0246062102A8FCF750F8F9
S315000042500028F6D19DF809209DF808309DF80AC07F
S3150000426003EB02231BB207EE903A9DF80B30F8EEF3
S31500004270E76A0CEB032C0FFA8CFC07EE90CA9DF84C
S315000042800D309DF80CC0B8EEE77A0CEB032C0FFA54
S315000042908CFC07EE90CAF8EEE77AC6ED006A85ED6B
S315000042A0007AC4ED007A05B0F0BD07230022074668
S315000042B0022102A88DF808308DF80920FBF7EEFFE1
S315000042C00028BED13871B3E7F0B51C4603790E4617
S315000042D0154685B0002B3CD101221423114601A8B6
S315000042E08DF80430FBF7DAFF08B105B0F0BD0246E1
S315000042F0062102A8FBF7FCFF0028F6D19DF809204D
S315000043009DF808309DF80AC003EB02231BB207EEA6
S31500004310903A9DF80B30F8EEE76A0CEB032C0FFA97
S315000043208CFC07EE90CA9DF80D309DF80CC0B8EED7
S31500004330E77A0CEB032C0FFA8CFC07EE90CAF8EE2A
S31500004340E77AC6ED006A85ED007AC4ED007A05B01D
S31500004350F0BD072300220746022102A88DF8083087
S315000043608DF80920FBF79AFF0028BED13871B3E714
S31500004370F0B51E4603790C46154685B0002B44D190
S3150000438001221A23114601A88DF80430FBF786FF97
S3150000439008B105B0F0BD0246062102A8FBF7A8FF4A
S315000043A00028F6D19DF809209DF808309DF80AC02E
S315000043B003EB02231BB206EE903A9DF80B309FEDFD
S315000043C01A6A0CEB032C0FFA8CF307EE103A9DF8E1
S315000043D00CC09DF80D30F8EEE66A0CEB032C0FFAD4
S315000043E08CF307EE903AB8EEC77AF8EEE77A66EE07
S315000043F0866A27EE067A67EE867AC6ED006A85ED4E
S31500004400007AC4ED007A05B0F0BD07230022074606
S31500004410022102A88DF808308DF80920FBF73EFF2F
S315000044200028B6D13871ABE70000803D022800D0E5
S315000044307047024B0248596808F0E0BF6CCA010099
S315000044406C0D002010B50446006808B1237B0BB93B
S31500004450204610BDFDF780FD204610BD10B5096849
S31500004460046812681868920004EB810111F09CFF41
S31500004470002010BDFFFFFFFF2DE9F04F2DED0A8B49
S3150000448004468FB010EE900A10EE105A0D920B9360
S315000044900C9110F0F9F9B8A3D3E9002310F04CFA07
S315000044A0064628460F4610F0EFF902460B46304600
S315000044B0394610F06BFB41EC100B0DF079FA51EC1C
S315000044C0100B10F031FD08EE100A10F0DDF9631044
S315000044D006460F46184604211D460393FDF73AFD8E
S315000044E00346042128460693FDF734FD03460421BE
S315000044F028460593FDF72EFD03460421284607931B
S31500004500FDF728FD0346042128460893FDF722FD02
S315000045100346042128460993FDF71CFD28EE088A68
S315000045200A90002D00F09680204610F09BF9024676
S315000045300B4610F04BF8069B32460493059B41EC64
S315000045401A0B029330463B46394610F03FF8F7EE19
S31500004550007A77EEC87A41EC1B0B17EE900A10F042
S3150000456093F902460B4610F031F802460B4618EE58
S31500004570100A43EC1C2B10F087F94FF0000841ECB1
S31500004580190B4FF0000ADDF81C90DFF8F4B1404635
S3150000459010F068F902460B4610F018F852465B46D2
S315000045A010F014F874A3D3E9002310F0C5F953EC06
S315000045B01A2B10F0EBFA41EC100B0DF0A5F951ECAB
S315000045C0100B10F0B1FC10F05FF953EC1B2B10F040
S315000045D0B3F953EC192B06460F460FF0F7FF524678
S315000045E05B460FF0F3FF10F09FFC07EE100AC8EED3
S315000045F0077A049B08F10108E3EC017A049310F0B2
S3150000460043F904460D4622462B4651EC1C0B10F08E
S31500004610BDFA10F089FC0299324641F8040B3B467C
S31500004620029151EC190B0FF0CFFF52465B460FF08B
S31500004630CDFF01F10041009001912B46DDE900011B
S31500004640224610F0A3FA10F06FFC039B49F8040B06
S3150000465043459CD10B9B002B75D0059A03990C9B67
S3150000466002EB810200920B9A0293DDF834B003EB61
S3150000467082030493029BF3EC017A0293039BEBEC17
S31500004680017A002B5BD0DDE905A6099C079F0A9DF0
S31500004690DDF8209001E05BED017A95ED006AB7EC5C
S315000046A0018AFAEC016A94ED007A28EE068AA6EEF3
S315000046B0878A38EE278A89ED008A54F8040B10F0B1
S315000046C0E3F802460B460FF081FF02460B4618EE52
S315000046D0100A43EC182B10F0D7F802460B4651ECA3
S315000046E0180B0FF073FF02460B4655F8040B43EC0C
S315000046F0182B10F0C9F802460B4651EC180B0FF0B8
S3150000470065FF02460B4656F8048B43EC182B4046D1
S3150000471010F0BAF80B46024651EC180B10F00CF9E3
S3150000472010F002FC4BF8040C54F8043C45F8043C29
S3150000473059F8043B44F8043C009B9A45ABD1049BD2
S31500004740029A934296D10698FDF706FC0598FDF766
S3150000475003FC0798FDF700FC0898FDF7FDFB099898
S31500004760FDF7FAFB0A980FB0BDEC0A8BBDE8F04FD7
S31500004770FDF7F2BBAFF30080182D4454FB2109402E
S315000047800000F03FFFFFFFFF2DE9F04F2DED0A8BF4
S3150000479004468FB010EE900A10EE105A0D920B934D
S315000047A00C9110F071F8B8A3D3E9002310F0C4F807
S315000047B0064628460F4610F067F802460B46304676
S315000047C0394610F0E3F941EC100B0DF0F1F851EC1D
S315000047D0100B10F0A9FB08EE900A10F055F86310C4
S315000047E006460F46184604211D460393FDF7B2FB05
S315000047F00346042128460693FDF7ACFB0346042135
S3150000480028460593FDF7A6FB034604212846079391
S31500004810FDF7A0FB0346042128460893FDF79AFB03
S315000048200346042128460993FDF794FB68EEA88AFF
S315000048300A90002D00F09880204610F013F80246EA
S315000048400B460FF0C3FE069B41EC1A0B0493059B27
S3150000485032460293B7EE008A3B46304639460FF0A1
S31500004860B5FE78EE687A02460B4617EE900A43ECE0
S315000048701B2B10F009F802460B460FF0A7FE024666
S315000048800B4618EE900A43EC1C2B0FF0FDFF4FF081
S31500004890000841EC190B4FF0000ADDF81C90DFF818
S315000048A0F0B140460FF0DEFF02460B460FF08EFEDB
S315000048B052465B460FF08AFE73A3D3E9002310F03D
S315000048C03BF853EC1A2B10F061F941EC100B0DF08C
S315000048D01BF851EC100B10F027FB0FF0D5FF53EC33
S315000048E01B2B10F029F853EC192B06460F460FF038
S315000048F06DFE52465B460FF069FE10F015FB07EEA3
S31500004900100AC8EE077A049B08F10108E3EC017A65
S3150000491004930FF0B9FF04460D4622462B4651EC90
S315000049201C0B10F033F910F0FFFA0299324641F8E9
S31500004930040B3B46029151EC190B0FF045FE524613
S315000049405B460FF043FE01F10041009001912B46BA
S31500004950DDE90001224610F019F910F0E5FA039B93
S3150000496049F8040B43459CD10B9B002B75D0059A47
S3150000497003990C9B02EB810200920B9A0293DDF8DD
S3150000498034B003EB82030493029BB3EC017A0293E7
S31500004990039BABEC017A002B5BD0DDE905A6099CF5
S315000049A0079F0A9DDDF8209001E01BED017AD5ED09
S315000049B0005AF7EC017ABAEC016AD4ED006A67EEA8
S315000049C0A57AE6EE267A77EE877AC9ED007A17EEB3
S315000049D0900A0FF059FF02460B4654F8040B43ECBD
S315000049E0182B0FF051FF02460B460FF0EFFD024663
S315000049F00B4651EC180B0FF0E7FD02460B4655F837
S31500004A00040B43EC182B0FF03FFF02460B4651EC0C
S31500004A10180B0FF0DBFD02460B4656F8048B43ECF1
S31500004A20182B40460FF030FF0B46024651EC180B90
S31500004A300FF082FF10F078FA4BF8040C54F8043C9F
S31500004A4045F8043C59F8043B44F8043C009B9A455D
S31500004A50ABD1049B029A934296D10698FDF77CFA55
S31500004A600598FDF779FA0798FDF776FA0898FDF7A5
S31500004A7073FA0998FDF770FA0A980FB0BDEC0A8B25
S31500004A80BDE8F04FFDF768BA182D4454FB210940E4
S31500004A900000F03F08B530B130F8023CC01ABDE85E
S31500004AA00840FDF759BA5A21024B034A034809F058
S31500004AB0E5FC00BF5CBE010060BE01008CBE0100CB
S31500004AC0431E034210B514D1044680B179B1481C87
S31500004AD020440121FDF73EFA024640B1631C03441F
S31500004AE0644203EA0400821A20F8022C10BD00205A
S31500004AF010BD3721024B034A034809F0BFFC00BF33
S31500004B0018BF010034BF01008CBE01002DE9F84F2B
S31500004B102DED048B0646DDE90E85144699469DF873
S31500004B204070FBF7EDFD002840F0B280FDF736F946
S31500004B30001B61EB09014FF47A720023C5E93C01C1
S31500004B4010F042FAC5F8E000002F48D196F8404030
S31500004B507CBB98F80030092B5FD0338ED8F8042040
S31500004B608BB39046D6F8A010DFF850B1DFF850911D
S31500004B7009E051F80A200134AA60A34205F10805AC
S31500004B8085ED018A1FD9B8EC018A4FEA840A002F05
S31500004B90EFD051F824105846FDF710F9B0EE480A48
S31500004BA0FDF726F94846FDF709F9D6F8A010338E29
S31500004BB0DFE796F948104B1E042B6CD8DFE803F0AC
S31500004BC0201A142614003748FBF7BCFDFDF7D8F869
S31500004BD0831C18BF0020BDEC048BBDE8F88F01468E
S31500004BE03148FDF7EBF8B1E73048FDF7E7F86FF02D
S31500004BF00900F0E72B48FBF7A5FD6FF01400EAE784
S31500004C002B48FDF7DBF86FF00900E4E7294804219B
S31500004C10FDF7D4F86FF00900DDE7D8ED047A338E9E
S31500004C2098ED039AF8EEE78AD8F80420002BCAD04C
S31500004C30D6F8A010DFF884A0DFF8849002F1FF38E0
S31500004C4008E08A580134A34285ED038AAA6005F17B
S31500004C500805B8D918F9012F08EE102AB8EEC88A47
S31500004C6038EE688AA20028EE098A002FE9D051F8AA
S31500004C7024105046FDF7A2F8B0EE480AFDF7B8F842
S31500004C804846FDF79BF8D6F8A010338EA200D8E769
S31500004C906FF002009FE70848FDF790F86FF00900F3
S31500004CA099E700BF954A00006CBF0100E4BF010010
S31500004CB08CBF010034C0010084C00100B8C00100EF
S31500004CC08CC50100F8B50D4617461E460446FDF78D
S31500004CD065F8C5E900015448FBF7E8FB05460028DE
S31500004CE071D1D4F88C3098470246D4F890302846D3
S31500004CF03A609847306094F94830012B0DD1D4F8CA
S31500004D00903094F84A009847079AD4F8903010608B
S31500004D1094F849009847069B1860444B1878002879
S31500004D2040D0396894F85C200878904258D13268AF
S31500004D3094F868501078A8424CD194F94850012D47
S31500004D4031D094F85D0098B191ED037AD4ED187ADC
S31500004D50B4EE677AF1EE10FA54D1D1ED047A94EDFF
S31500004D60197AF8EEE77AF4EE477AF1EE10FA4FD1B7
S31500004D7094F8691099B192ED037AD4ED1B7AB4EEEA
S31500004D80677AF1EE10FA49D1D2ED047A94ED1C7AE5
S31500004D90F8EEE77AF4EE477AF1EE10FA26D1002221
S31500004DA010461A70F8BD079D2D682D78854223D1CF
S31500004DB0069800680078A842C3D05D211C4B1D4AA6
S31500004DC01D4809F05BFB01461C48FCF7F7FF6FF036
S31500004DD00500F8BD5A211A4B164A174809F04EFB32
S31500004DE05921184B134A144809F048FB6521164B04
S31500004DF0104A114809F042FB5C21144B0D4A0E483B
S31500004E0009F03CFB6021124B0A4A0B4809F036FBBD
S31500004E106121104B074A084809F030FB64210E4B0C
S31500004E20044A054809F02AFBC14A00008C0200200A
S31500004E30CCC2010028C10100C4C10100C0C00100EC
S31500004E405CC20100F4C00100B8C3010090C20100B9
S31500004E5008C3010040C3010080C3010070B5531EA2
S31500004E6003EBD37382B0B1EB630F0D4604468DEDB1
S31500004E70000ACDED010A4FDA8E465E1000E0E646E6
S31500004E800EF101034FEA430C0CF1FF3104EB03135F
S31500004E9004EBC10093ED017AD0ED017AB4EE677AA6
S31500004EA0F1EE10FAC4BF8C46034604EBCE0EB445B1
S31500004EB093E803008EE80300E1DBD10731D50CF15E
S31500004EC0FF3000EBD070AC459DED000A9DED017AF8
S31500004ED04FEA600008DC19E0844693E80300654564
S31500004EE08EE8030012DA104604EBC003D3ED017A14
S31500004EF0B4EEE77AF1EE10FA00F1FF3202EBD2726D
S31500004F0004EBCC0E4FEA6202E6D4734683ED000A48
S31500004F1083ED017A02B070BDD30714D48C4600EB42
S31500004F20C103023A02EBD272BCEB620FC7D14FEA61
S31500004F304C0C0CF1010C04EBCC0292E8030083E864
S31500004F4003001346BBE7B0EE607A04EBC503DDE76A
S31500004F503AB1012A09D0022A04BF0B680360002077
S31500004F607047034B036000207047016000207047C4
S31500004F7008C701003AB1012A09D0022A04BF0B680A
S31500004F80036000207047034B0360002070470160F8
S31500004F9000207047D4C601002DE9F04717460A1ACB
S31500004FA0802A82B040F3CE800646002F00F099801A
S31500004FB09A468E4600F1080800F11009AEEB06028B
S31500004FC0D30F03EBE2035B1006EBC30396ED037A04
S31500004FD0D3ED017AB4EEE77AF1EE10FA5EED016AEE
S31500004FE007F1FF3749DDF4EEE67AF1EE10FA6BDCF5
S31500004FF0B4EEE67AF1EE10FA49DC98E80300D6ED55
S31500005000016AC6ED036A336886E803005EED017A3D
S31500005010B36096ED017A4B464446F446B4EEE67A22
S31500005020F1EE10FA254623D4B4EEE77AF1EE10FA43
S31500005030ACF1080239DDACF110018C46D1ED017AF4
S31500005040B4EEE77AF1EE10FAA1F10801F5DC644559
S315000050502ED29CE803001A4652F8085D82E8030047
S31500005060CCED016A5CED017A96ED017ACCF8005040
S31500005070D3ED016A08340833D0E7B4EEE67AF1EEF0
S3150000508010FABADCF4EEE67AF1EE10FA1CDD1EE94F
S315000050900300D6ED017A336886E803004EED017A07
S315000050A04EF8083CD6ED036AB3E794466445D0D380
S315000050B03A46534671462046FFF76EFFA21B802AEA
S315000050C040DD7FB1A64679E77468326893E803004D
S315000050D086E803005C60D6ED036A5EED017A1A602D
S315000050E097E70D46D410A4F102086F464FEA680808
S315000050F001E008F1FF3806EBC80393E8030087E8F0
S315000051000300224641469DED000ADDED010A3046C8
S31500005110FFF7A4FEB8F1000FEBD1083D95E80300B8
S3150000512087E8030096E80300AC1B85E803009DEDC5
S31500005130000ADDED010A00213046E210FFF78EFE7F
S31500005140082CEADC02B0BDE8F08700BF884254D0E4
S315000051502DE9F84300F10805A9422DED028B06461C
S31500005160884646D000F1100413E0AE4254F8089C7D
S3150000517005D03146AA1B06F1080011F022F9B84500
S3150000518086ED018AC6F8009004F1080405F10805C9
S315000051902FD014ED018AD6ED017AB4EEE78AF1EE4E
S315000051A010FA2A462746E0DC54ED037AB4EEE78A85
S315000051B0F1EE10FA54F808CC11DDA4F1100303F156
S315000051C0080293E8030082E803001A4653ED017AC9
S315000051D0B4EEE78AF1EE10FAA3F10803EFDCB84566
S315000051E082ED018AC2F800C004F1080405F1080541
S315000051F0CFD1BDEC028BBDE8F8837047F0B54468AB
S3150000520087B001210546A000FCF7A4FE0123039404
S315000052108DF8143004930290002866D06B689C4287
S3150000522058D10346002C5DD00024A9682B6804FBE6
S3150000523001F001AA03EB8000FEF754FD02986A68AC
S3150000524000EB840301990134A24219600346ECD8AD
S3150000525003998A4244D10499012941D10026002AA2
S3150000526040D0AF682B68BC0006FB043008B3029B35
S3150000527003EB860393ED007A67B1002103462218FB
S31500005280D3ED007A77EEC77AE3EC017A9A42F7D14A
S3150000529061B96A680136B242E3D80024029810B1B7
S315000052A09DF81430BBB9204607B0F0BDFCF754FE9C
S315000052B0EFE701212046FCF74DFE40B1029B03EBD0
S315000052C0860393ED007A002FF0D00121D6E70298ED
S315000052D0094CE4E7084CFCF73FFE204607B0F0BD5A
S315000052E0054CDCE718460024D9E7044CDBE702A8A6
S315000052F0FFF7A8F80BF010FD14FCFFFF16FCFFFFEC
S31500005300836810B5044613B1032201469847204628
S3150000531010BD00BF2DE9F04F05680868A96812683E
S31500005320B0FBF1FAB2FBF1F21B6887B00093EB68B1
S31500005330986900FB0AFA00FB02A2924501922DD25F
S315000053404FF000084FF0010B19B3009B002403EB4C
S31500005350880608F1010705E0A9680134A14206F1B3
S31500005360040615D9D5E900031B5D07EB0408534471
S3150000537003938368CDE904B6A3B1D0F80C9005ABCE
S3150000538004AA03A9C8470028E6D007B0BDE8F08FF5
S31500005390EB689A699244019A5245D5D8002007B025
S315000053A0BDE8F08FFDF73EFC2DE9F04F2DED048BA7
S315000053B00746D2E902A08B468BB0524912F076F826
S315000053C0D7F8108000280CBF01260326B8F1000F7D
S315000053D07FD04FF000099FED4C8ADFED4C8A9FEDA0
S315000053E04C9ADFED4C9ACDF80490B8F5806F45469F
S315000053F028BF4FF4806505FB0AF001218000FCF709
S31500005400A9FD0123CDE9075A8DF82430069000281E
S3150000541069D0BB68CDE903950590002B6AD0384664
S31500005420FC6805AB04AA03A9A047DDF818C0B8F1CB
S31500005430000F41D000226146DBF80000019C0EE01F
S3150000544027EE287AA6EE097AA6EEA97A013200EBB3
S315000054508403954283ED007A04F101042BD9F1EC23
S31500005460017AFCEEE77A17EE903AC3F3074E07EEA1
S3150000547010EAC3F3072EDBB206EE90EA07EE903A87
S31500005480B8EEC77AF8EEE66AF8EEE77A032E87EE0C
S31500005490086A86EE887AC7EE886AD1D1013200EBB7
S315000054A08403954283ED006A83ED017AC3ED026AB7
S315000054B004F10304D3D80194A8EB0508BCF1000F4E
S315000054C002D09DF8243053B93B6909F580694B45F4
S315000054D08BD800200BB0BDEC048BBDE8F08F604686
S315000054E0FCF73AFDF0E7A0F2EA300BB0BDEC048B16
S315000054F0BDE8F08FFDF796FB06A8FEF7A3FF0BF0BD
