S01E0000627269636B4D4C5F496E666572656E63655F54656D702E737265637F
S31500000000483701203DB1000069AF000039B100005A
S3150000001039B1000039B1000039B1000039B1000032
S315000000200000000000000000000000005150000029
S3150000003039B100000000000069500000D1500000F6
S31500000040719E0000E59D0000FD9E00003D9F0000A2
S3150000005079A80000B5A90000A1AA000065AB0000C0
S3150000006055AD00009D680000CD68000001690000E4
S315000000702169000041690000000000000000000046
S31500000080000000000000000000000000000000006A
S31500000090000000000000000000000000000000005A
S315000000A0000000000000000000000000000000004A
S315000000B0000000000000000000000000000000003A
S315000000C0000000000000000000000000000000002A
S315000000D0000000000000000000000000000000001A
S315000000E0000000000000000000000000000000000A
S315000000F000000000000000000000000000000000FA
S3150000010000000000000000000000000000000000E9
S3150000011000000000000000000000000000000000D9
S3150000012000000000000000000000000000000000C9
S3150000013000000000000000000000000000000000B9
S3150000014000000000000000000000000000000000A9
S315000001500000000000000000000000000000000099
S315000001600000000000000000000000000000000089
S315000001700000000000000000000000000000000079
S315000001800000000000000000000000000000000069
S315000001900000000000000000000000000000000059
S315000001A00000000000000000000000000000000049
S315000001B00000000000000000000000000000000039
S315000001C0FFFFFFFFFFFFFFFFFFFFFFFFFFFFFFFF39
S315000001D0FFFFFFFFFFFFFFFFFFFFFFFFFFFFFFFF29
S315000001E0FFFFFFFFFFFFFFFFFFFFFFFFFFFFFFFF19
S315000001F0FFFFFFFFFFFFFFFFFFFFFFFFFFFFFFFF09
S3150000020010B5054C237833B9044B13B1044800E00C
S3150000021000BF0123237010BD9805002000000000D8
S31500000220F48A010008B5034B1BB10349034800E0FB
S3150000023000BF08BD000000009C050020F48A0100F4
S31500000240F8B5114B05469E681F68346838465968EC
S31500000250A047B8B90122294638463369984704466B
S3150000026000210A4B5022C3E90011C3E902110848D4
S3150000027011F037FA07480BF0DBF80246064B20462A
S315000002801A60F8BD0446EBE74C7601000406002030
S31500000290B4050020280600202406002030B58C4630
S315000002A08646104913460A6883B001320A600E4A30
S315000002B0916810688C6862467146A047044668B922
S315000002C04FF47A750949034601220868082100950A
S315000002D00BF0D6F810F0080F08BF1224204603B022
S315000002E030BD00BF200600204C7601002406002009
S315000002F030B58C468646104913460A6883B00132EB
S315000003000A600E4A916810684C6862467146A047BA
S31500000310044668B94FF47A7509490346012208680C
S31500000320042100950BF0ACF810F0040F08BF12245E
S31500000330204603B030BD00BF1C0600204C760100ED
S315000003402406002010B504464FF0010C124B22790A
S3150000035082B01968114801AB0CFA02F20DF084F96B
S315000003602379022B05D0032B0FD0012B07D002B027
S3150000037010BD0B4A13880133138002B010BD094A21
S3150000038013880133138002B010BD074A1388013366
S31500000390138002B010BD00BF2406002039B600004D
S315000003A0160600201406002018060020044B1B68C1
S315000003B08B42A3BF034B03EBC10148680020704783
S315000003C0040B0020B40A0020014800EB811070479E
S315000003D044060020024801EB410100EB8100704712
S315000003E048090020164B174A70B51C681268641A33
S315000003F094420D4611D2144E3368092B15D80121AB
S31500000400284601F099FD0446A8B133680F4A591CE5
S31500000410316042F82300204670BD0A46204600217E
S315000004201C6011F05EF9204670BD0024084801F0FA
S31500000430B9FC204670BD2946064801F0B3FCEAE740
S31500000440D80A0020D40A0020080B0020DC0A00206D
S315000004500060010080600100F8B5104D2B68032B89
S3150000046011D80F461446FFF7BDFF034680B12E682C
S315000004700020721C2A600A4A266042F8367002EB97
S31500000480C6025360F8BD074801F08CFC0120F8BD98
S315000004903946054801F086FC0120F8BD040B002012
S315000004A0B40A0020B8600100106101002DE9F04F88
S315000004B00346F02110208DB09847754B1860002830
S315000004C000F0E18084460B20724A7349106073483D
S315000004D0734C10647348916050647348946310655C
S315000004E072480B465065DFF8E4A17149714A0CF178
S315000004F0F000E1464FF000086F4CCAF800C00190CA
S31500000500086002F5847E18E05168596021609BE816
S31500000510030085E8030093F83010012906D15169DC
S31500000520D1E9005069684068D9601861183272458F
S3150000053003F1400304F10C0434D0D2E90206117829
S315000005405778022903F1300502F1100B1F7083F86A
S315000005502D8019759E61986027726060D4D1DBE9A1
S315000005600001556803F1300765445D6087E80300C4
S3150000057093F830102560012906D15169D1E9007040
S3150000058079684068D96018613544A94502F11802B6
S315000005903CBFA946CAF80050724503F1400304F176
S315000005A00C04CAD1019B4B4566D3DFF8249104A8FD
S315000005B000F008FDCC4604AF0FCFACE80F003F4E6D
S315000005C097E80F008CE80F0004A80297019600F048
S315000005D081FD04A804464FF0000C09F120020392A5
S315000005E00FCC039CDFF8EC800FC4DFF8ECB0DFF82B
S315000005F0ECE0029B45460FCB674684E80F00704649
S3150000060059462F4A019C06F1900A4FEA4C1C59F8AC
S315000006100C30C4E90002C4E90517E7611BB10022EA
S315000006201C48984720612434544506D0D5E9040275
S31500000630A96995F81CC01035E7E7002309EB4313B9
S315000006409B68144C08F110081BB1314620469847A8
S3150000065078B9243656450BD098F80C3008F11008B6
S3150000066009EB43139B68002BEFD124365645F3D193
S3150000067000200DB0BDE8F08F124801F093FB012079
S315000006800DB0BDE8F08F104801F08CFB0120F0E7BB
S3150000069004090020CC09002044060020590400006B
S315000006A0E5030000AD030000C9030000D503000008
S315000006B0D80A00200000002048090020240A002053
S315000006C08C6601006C61010044610100D40A0020BF
S315000006D0080900204C66010030660100F86501003B
S315000006E0014B9868704700BFCC090020024B986800
S315000006F000F52070704700BFCC09002000232DE9CB
S31500000700F0410B4C0B4D0C4EDFF8308004F1900796
S3150000071006EB431321464046DB68984724341035E0
S3150000072018B9BC4201D02B7BF2E7BDE8F08100BFCF
S31500000730240A00204C66010008090020CC0900208C
S3150000074070B500240A4A0B4E0346106898470A4AB9
S315000007503368146043B1094D55F8040B01F0EEFB04
S3150000076033680134A342F7D80020306070BD00BF63
S3150000077004090020080B0020040B0020DC0A0020DE
S31500000780084A094B126802F1200102F11000596073
S31500000790C3F8AC20C3F8C410C3F8DC00C3F8F420D7
S315000007A0704700BF0409002000000020002370B538
S315000007B084B0019383790446013B092B0DD8DFE809
S315000007C003F00C0C170C0C0C240C19052A4B01A970
S315000007D018680BF09FFA012800D100BF019B3BB1BE
S315000007E04FF08052254B5A60BFF34F8FBFF36F8F88
S315000007F004B070BD224A0023106804F1080101AA62
S315000008000BF014FA0128E9D1E7E71E4D02A92B6F78
S315000008109847BDF8083003F47F43B3F5005F1DD059
S31500000820B3F5045F21D0A38903F47F43B3F5085FD2
S31500000830D4D1154E022231462046AB6C984700288B
S31500000840CCD1E2893388C2F3400162F300033380DE
S315000008503288019B61F341023280C0E7AB6C07220C
S3150000086020460A499847019BB9E7EB6C07222046C8
S3150000087006499847019BB2E79C0C002000ED00E07A
S31500000880000C0020EC780100100B002084020020F0
S3150000089038B50B4B0B491B680B489847054660B9A2
S315000008A00A4C2388DA0705D401200CF095F9238831
S315000008B0DB07F9D50122064B1A70284638BD00BF62
S315000008C0EC780100A8760100985B0020100B002050
S315000008D00C0B002070B50C46014613488023C568F2
S315000008E0164612482246A847054660B96EB1721CE4
S315000008F00F4B0FD0A10A02311868C9B20BF034FBB6
S3150000090001280DD01225284670BD01200CF064F98F
S31500000910284670BD314618680BF026FB0128F2D137
S3150000092000BF284670BD00BFEC780100985B002030
S315000009309C0C00202DE9F04F1D4B83B01B780190D5
S3150000094083B364298A4626D900251A4BDFF87090AE
S31500000950D3F80C80184FAAEB050BBBF1640F28BF28
S315000009604FF0640B019B5E1980235A463146384688
S31500000970C04704460028F7D10221D9F800000BF041
S31500000980F3FA0128F0D100BF6435AA45E3D8204622
S3150000099003B0BDE8F08F0024FFF79CFF204603B0AC
S315000009A0BDE8F08F054C204603B0BDE8F08F00BFD0
S315000009B00C0B0020EC780100985B0020925F010090
S315000009C09C0C002010B5044608300AF031FD0346A1
S315000009D004F12401636001200BF0D6F8E066BDE85F
S315000009E01040FFF755BF00BFF0B5066804460F4636
S315000009F015460121C06E83B0BEB10BF0B5FA0128D1
S31500000A00064601D003B0F0BD23682A469D681868E3
S31500000A103946AB689847B0B100231A461946E06ECE
S31500000A2003B0BDE8F0400AF0E3BF0BF09DFA0128E1
S31500000A30E8D1324629463846FFF77CFF3346324630
S31500000A403146E06EECE700960346324604216068C4
S31500000A500AF016FDE0E700BF0EB4002170B5ADF553
S31500000A60037D87AC54F8046B05464FF4FE7203A869
S31500000A70029110F036FE324623464FF4007102A86A
S31500000A80019412F085FD02A811F090FE024602A91B
S31500000A902846D2B2FFF7A8FF0DF5037DBDE87040EA
S31500000AA003B07047036810B5052B044603DD4068A4
S31500000AB008B10CF069FE204610BD00BF836B0BB178
S31500000AC02421184710B510F0ADFD00BF2DE9F04701
S31500000AD0D1F8108096B0B8F1000F00F006814D698C
S31500000AE00C46002D00F00181824B06461A6800F084
S31500000AF0EFFF0746002836D07F4B214630461A685E
S31500000B0000F0E6FF814608B37C4B21461A68304662
S31500000B1001F016F87A4B214682461A68304600F0F4
S31500000B20F3FF0446002800F0968038782378834245
S31500000B3078D199F800209A4218D001253046736979
S31500000B4070499847284616B0BDE8F08743236E499A
S31500000B507469304600916D4A6D49A04701252846C3
S31500000B6016B0BDE8F08740236A49F1E74FF0FF333E
S31500000B7029783046C8F820303B46CDE90248CDF802
S31500000B8004A0CDF8009000F043FA05460028E6D10F
S31500000B903B78092BE3D1D9F8087057F8042B052ABE
S31500000BA00A926FDC92000BA8394610F073FDA76815
S31500000BB057F8044B052C109456DCA40011A82246C5
S31500000BC0394610F067FD109B022B40F08C800A9B83
S31500000BD05A1E7CD4052B41DD0B9B53F822200123A2
S31500000BE00692129A06A8CDE90733099202F006FA90
S31500000BF0011E57DD3046336C08F120029847044643
S31500000C00002854D1109B052B03DD119808B10CF078
S31500000C10BBFD0A9B052BA2DD0B9800289FD00CF08C
S31500000C20B3FD9CE7776901F09FF8034620781C46E0
S31500000C3001F09AF884460125374B30460193374B2D
S31500000C40CDE9024C0093314A49233549B847284635
S31500000C5016B0BDE8F0874723324979E716AB03EBB8
S31500000C60820252F82C2CBAE76FF060439C423FDABE
S31500000C70A40020460DF0F4F8109B1190052BD8BF68
S31500000C8011A89CE76FF060439A422ADA9200104658
S31500000C9005920DF0E5F80A9B0B90052B059AD8BF37
S31500000CA00BA881E74FF0FF33C8F82030AAE7109B66
S31500000CB0052B03DD119808B10CF066FD0A9B052B88
S31500000CC003DD0B9808B10CF05FFD254647E710F0F1
S31500000CD0A9FC10A8FFF7E6FE0AA8FFF7E3FE0CF052
S31500000CE055FD0CF00BFE10F09DFC10F09BFCF3E79D
S31500000CF00CF004FE8C69010094690100886901000A
S31500000D00906901009C6701003C670100C466010010
S31500000D1010670100286701008067010090670100E5
S31500000D2064670100506701002DE9F04FB5B0DDF8AA
S31500000D30FC9082460C4622A849461D46904600F085
S31500000D409FF9229B022B40F0B580DDE923B62946A8
S31500000D5028A800F095F9289B5A1E00F1BB80052BA8
S31500000D6040F39980299B53F8227041462EA800F043
S31500000D7087F901230021CDE90E33CDE91233CDE900
S31500000D801533CDE91A3362691793A368524220934B
S31500000D90E3681D92A2692193236852421E92099329
S31500000DA0E2696368CDE91077CDE90B11CDF834B06F
S31500000DB0CDF864B0149618961C961F920A93216A71
S31500000DC0002904DB5046DAF8443098470B90B8F116
S31500000DD0000F75D0D8F80030002D6FD03E992A68E4
S31500000DE0002969D03E990968B9F1000F5BD0D9F89E
S31500000DF0000019AF15AE11AC069004910292009353
S31500000E000597039601940DAB09AA1DA90BA802F03C
S31500000E10BBF8002845D03E992A68D8F80030096802
S31500000E20DAF81450B9F1000F01D0D9F80090CDE9E5
S31500000E300361CDE901420093CDE905790DAB09AA1D
S31500000E401DA90BA802F0A0F8034602930023039302
S31500000E50214B50460193214B214A00932149A62359
S31500000E60A84701242E9B052B03DD2F9808B10CF013
S31500000E708BFC289B052B03DD299808B10CF084FC1C
S31500000E80229B052B03DD239808B10CF07DFC204640
S31500000E9035B0BDE8F08F34AB03EB820252F82C7C00
S31500000EA063E70446DEE74846A3E722A8FFF7FAFD14
S31500000EB00CF06CFC10F0B6FB10F0B4FB10F0B2FBBB
S31500000EC010F0B0FB2EA8FFF7EDFD28A8FFF7EAFD0E
S31500000ED0EBE7FAE710F0A6FB34680100486801006A
S31500000EE0C4660100186801002DE9F0414B6982B023
S31500000EF0002B5AD02E4B04461A68002855D00B6892
S31500000F000D4603EB82035968436D9847294A2B68BF
S31500000F101268064603EB820359682046636D9847BC
S31500000F20254B2A681B68804602EB83025168636D75
S31500000F3020469847214B6A681B68074602EB8302E6
S31500000F4051682046636D9847296971B3357A032D38
S31500000F5011D0092D1DD0012D284667690ED000F04D
S31500000F6003FF01250246337A20461549B84728462D
S31500000F7002B0BDE8F08128466769F0E700F0F4FEAC
S31500000F80337A02460E492046B847284602B0BDE8E5
S31500000F90F08101904346324620460097FFF7C4FE93
S31500000FA00546284602B0BDE8F08110F03BFB00BFC5
S31500000FB08C6901009469010088690100906901004B
S31500000FC06C6901000D4B002210B584469E4604460E
S31500000FD00B495A6019600B49C3E9042299600A4912
S31500000FE0C3E90622D960BEE80F00ACE80F009EE810
S31500000FF00F008CE80F00204610BD00BF140B002028
S31500001000BD0A0000CD0A0000E90E0000FFFFFFFF49
S31500001010F0B5012A85B00D9E02D1002005B0F0BDC5
S315000010201C469FED157B0C9B0F46009302AB01936C
S315000010302146DDE90A2305468DED027B00F09CFD85
S315000010400028EBD19DED020B3046311D00F094FCDB
S315000010500A9B22691B693946C6E905230C9B28466B
S315000010601A6906F10C03F26100930C9A06F1080363
S3150000107000F002FE05B0F0BD000000000000000018
S3150000108030B5044683B071B14D6865B155F8042B8F
S31500001090052A02600CDC9200201D294610F0FAFA9F
S315000010A0204603B030BD00232046236003B030BD88
S315000010B06FF060439A420ADA9200104601920CF0F1
S315000010C0CFFE2368019A052B6060E6DCE4E70CF0AE
S315000010D015FC00BF10B58646F446054C0FCCACE8AF
S315000010E00F0094E80F008CE80F00704610BD00BF9B
S315000010F0986901002DE9F04F91B0002800F0C380F7
S315000011000D46002900F0BF800A68436D5168044609
S3150000111098476A68064651682046636D98472A696B
S315000011200746002A00F0AF80357A6B1E082B06D8DA
S31500001130DFE803F017051505050513052400284605
S31500001140676900F011FE337A0246574920460125A9
S31500001150B847284611B0BDE8F08F0720F0E7032016
S31500001160EEE70120676900F0FFFD337A02464E493B
S315000011702046B847284611B0BDE8F08F037A072B02
S315000011806AD0D2E9025B314604A8D2F81880FFF78C
S3150000119077FF39460AA8FFF773FF049A002A02F17F
S315000011A0FF301FDDDDE90A190023DDF814A098429F
S315000011B015D0052ADBBF04AC04EB830C5AF823E0F8
S315000011C0DCF804E0994262DD0529DBBF0AAC04EBDA
S315000011D0830C59F823C0DCF804C0E64555D1013329
S315000011E09A42E4D1002854DB052A37DC002A3EDD8A
S315000011F00DF1140C01210023984218BF5CF823401E
S3150000120003F1010318BF61439A42F5D1052A2FDD88
S31500001210059B53F820200A9B98423CDA052B20DDDB
S315000012200B9B53F820309A423BD13B683068CDE99E
S315000012300183CDF800B02B4600F084FE0A9B052BF7
S3150000124003DD0B9808B10CF09FFA049B052B03DD18
S31500001250059808B10CF098FA00257AE7DDF814C075
S31500001260C8E710AB03EB800050F8143CDBE7012124
S3150000127010AB03EB800353F82C2CCCE704A8FFF744
S3150000128011FC0CF083FA10F0CDF910F0CBF910F048
S31500001290C9F910F0C7F910F0C5F90AA8FFF702FC62
S315000012A0ECE710F0BFF900BF6C690100836B0BB16E
S315000012B03821184710B510F0B5F900BFFFFFFFFF42
S315000012C02DE9F04F2DED0C8B0B6806461A6889B098
S315000012D0012A11D00125A14B4469CDE90132A04A6A
S315000012E05D2300929F49A04A0395A047284609B06E
S315000012F0BDEC0C8BBDE8F08F4B680C461F68012FC8
S3150000130011D01546954B99494469CDE9027201936E
S3150000131000915E23944A9349A047284609B0BDEC44
S315000013200C8BBDE8F08F002200F0D2FB804600282F
S3150000133053D083681B68002B29DD002221463046E6
S3150000134000F0E2FB8246002867D0D4F81090B9F18D
S31500001350000F77D098F80050072D27D09AF8000094
S3150000136007283DD0A8424AD1092D646900F0D481EE
S31500001370012D40F0E3819AF80000012840F0F78142
S3150000138020680EF0F9FB0025C9E90001AEE76123EC
S31500001390774A3D463046746976490092724AA047BC
S315000013A0284609B0BDEC0C8BBDE8F08F40F2024137
S315000013B03046B36B9847002800F0BD81C9F8280075
S315000013C040F202413046B36B9847002800F0CC81CA
S315000013D098F80050C9F82C00C0E76023664AD8E7A1
S315000013E0092D00F08581072D1AD07523634974698C
S315000013F0304600915C4A5F49A047012576E7604B7D
S31500001400CDE902500193304678235E497469009114
S31500001410554A5449A047012568E763235A4AB8E765
S31500001420DAF810508DB1594B0027CDE901357D23EF
S31500001430574A7469304600924A494B4A0397012538
S31500001440A04753E76523534AA3E707EE905AD9F816
S315000014502870F8EEE7DADFED509ABAEE049ADFED7F
S315000014604F8ADFED4FAA9FED4FAA9FED4FBAA7F126
S31500001470020B0BE0F4EECB7AF1EE10FA48DD47F6FC
S31500001480FF73B5F5007F2BF8023F47D0B0EE49DA7F
S31500001490ADEEA9DA0135B0EE4D0A0CF091FF07EE7C
S315000014A0905AF8EEE7DA60EE287AB0EE490AADEE29
S315000014B0A90AF8FE67BA0CF083FFF0EE40CAB0EE58
S315000014C04D0A0CF07DFFB0EE408A28EE288AB8FE61
S315000014D0488A3DEE2A0A0CF073FFB6EE00CAACEE5F
S315000014E0A88A60EE287A28EE0C8AF8FE677AB8FE9B
S315000014F0488A78EE677A67EE8C7AF8FE677A7BEE32
S31500001500E77AF4EECA7AF1EE10FAB3D5F0EE4A7A3B
S31500001510FDEEE77A17EE903A1BB2B2E7DFED237ADB
S315000015209FED1E7AB7EE005A47F6FF73D9F82C5096
S315000015309FED1F3A9FED1B2A9FED1B1ADFED1D1A2B
S31500001540F0EE673AB0EE456AF0EE474A012240F205
S315000015500120A7F80034A91E66E000BF3C6A01001E
S31500001560006A010018680100B8690100106A0100EC
S31500001570246A01001067010028670100986A0100CB
S31500001580806701009067010050670100DC8101005F
S31500001590D46A0100406A01000000A03C0000004738
S315000015A00000203C000000C700FEFF4600000000CF
S315000015B00000003B0000803A000000386F12033341
S315000015C0F4EEC17AF1EE10FA41DD47F6FF7301320F
S315000015D0824221F8023F40D007EE902A76EEA16AB9
S315000015E0B8EEE75AF0EE635A76EE866AE5EE035AEF
S315000015F0C6EE267AB8FE477A75EE865A67EEA46A74
S31500001600C6EE252AF0EE477AB6EE004AE2EEA47A56
S3150000161067EE847AF8FE666AF8FE677A77EEE67A0F
S3150000162067EE847AF8FE677AF0EE636A77EE677A99
S31500001630E5EE036AF4EEC27A76EE865AF1EE10FA19
S3150000164086EE257A27EE247ABAD5F0EE427AFDEEBA
S31500001650E77A17EE903A1BB2B9E74FF48043DAED1A
S31500001660037A6469A5F8003498F80050DAF8103067
S31500001670092DC9ED087AC9F81C3049D0072D7FF429
S3150000168077AE002B40F082801FED357AF4EEC77AF4
S31500001690F1EE10FA5FED376ACCBF37EEC77A37EE58
S315000016A0677AB4EEE67AF1EE10FA00F3B980D8F86C
S315000016B00C000EF061FA064620680F460EF05CFA42
S315000016C002460B46304639460EF0AEFA8EA3D3E9F3
S315000016D000230EF0D3FB09F1080841EC100B40463D
S315000016E007A900F049F9079B0025C9F80C30FDE56C
S315000016F06469DAF810306E48834200F0AA80CDE9BA
S3150000170002306C4A74692B2330466B4901927EE69F
S315000017109AF800000728EED0092871D1DAF81030BF
S3150000172013F1800F39D065496FF07F07CDE90113BA
S31500001730614A30237DE66B23614A2AE628467769AB
S3150000174000F012FB04460120054600F00DFB5D4B40
S31500001750844601935C4B304600934E23CDE9024C00
S315000017605A4A5B49B847C1E56F235A4A11E6776979
S3150000177000F0FAFA0446284600F0F6FA514B844681
S315000017800193554B304600934F23E7E75349002713
S31500001790CDE90113484A25234BE6DFED517A9AED50
S315000017A0037AB4EE677AF1EE10FA7ED1D8F80C001F
S315000017B00EF0E2F90B460246206843EC182B0EF0B9
S315000017C0DBF909F1080541EC100BB0EE481AF0EE12
S315000017D0681A2946052007AA00F0EAF807991F2289
S315000017E0C9F80C10052000F031F90EF0B3F901F13B
S315000017F0004739460EF0C8FC0025C9F8180075E503
S31500001800776900F0B1FA0446092000F0ADFA354BCD
S3150000181084460193304B0125009330462F239DE7E4
S3150000182000224FF07C5317EE900ACDE904230EF008
S31500001830A3F9804689462C4B304601932B4B234A0D
S31500001840009374692623CDE9028929490125A04719
S315000018504CE5DFED287A9AED037AB4EEE77AF1EEFD
S3150000186010FADFED256ACCBF77EE677A77EEC77A96
S31500001870F4EEE67AF1EE10FA98DD00221F4B17EE31
S31500001880100ACDE904230EF077F9804689461C4BF1
S3150000189030460193154B0D4A009374692C23CDE90C
S315000018A0028913490125A04720E5312315499EE504
S315000018B00080FFFF346B0100D46A0100546B010005
S315000018C05C6A0100806B010090670100B869010045
S315000018D064670100746A010080670100DC81010011
S315000018E00000803B486B0100106B01001C6B01007F
S315000018F0F06A0100000080376F1283320000F03E6C
S315000019003C6B01005C6B0100140014001400243FC2
S3150000191038B541EC100B18461C4615460CF04CFC2D
S315000019200022144B51EC100B0EF07EF941EC100B1B
S315000019300CF07AFC51EC100B0EF0EEFC4FF0004C64
S315000019400022844572EB010E12DB914208BF60450E
S3150000195008D0034622681F3202DA002213462260AC
S315000019602B6038BD22684FF0804301322260F2E7D7
S315000019700FF058FE0000E0412DE9F04155EC104B08
S3150000198006460F460022002310EE100A29460EF0E6
S31500001990B3FB20B1002333603B60BDE8F0813B46DA
S315000019A0324620462946BDE8F041FFF7B1BF00BFE9
S315000019B02DE9F84F4FF0004323FA00F05BEC10AB33
S315000019C059EC118B14460D460EF0C4F842460646F5
S315000019D00F464B46504659460EF026F902460B4630
S315000019E0304639460EF020F915A3D3E90023064602
S315000019F00F460EF0A9FBA0B98046394630460022B4
S31500001A00114B0EF0A1FBC0B130463946002200232F
S31500001A100EF072FB40B1C5F80080C4F80080BDE846
S31500001A20F88F07A7D7E9006723462A463046394686
S31500001A30FFF76EFF2368002BF1DA0FF0F3FD00BF0E
S31500001A400000C0FFFFFFDF410000F03F2DE9F84333
S31500001A500124074604FA00F0013815460E460EF03A
S31500001A6079F88046E81B8946C0F12003A0F12001E1
S31500001A7024FA03F304FA01F1194304FA00F00EF014
S31500001A80A5F802460B46404649460EF0CDF80246FA
S31500001A900B46A6F12005C6F1200104FA05F524FA45
S31500001AA001F104FA06F0294314461D460EF08EF89D
S31500001AB002460B46204629460EF0E0F941EC100B93
S31500001AC00CF0F6FA51EC100B0EF05EFBBDE8F88355
S31500001AD00968002A10B451F8044B10DBA2420EDA52
S31500001AE051F8221000290ADB826822B102EB81102C
S31500001AF05DF8044B7047036D5DF8044B18470020F2
S31500001B005DF8044B704700BF4968002A10B451F8CD
S31500001B10044B10DB94420EDD51F8221000290ADB3B
S31500001B20826822B102EB81105DF8044B7047036DA9
S31500001B305DF8044B184700205DF8044B704700BF62
S31500001B400968002A10B451F8044B10DBA2420EDAE1
S31500001B5051F8221000290ADB826822B102EB8110BB
S31500001B605DF8044B7047036D5DF8044B1847002081
S31500001B705DF8044B704700BF2DE9F0412DED028B57
S31500001B8082B0054691ED038AD2ED038ADDF82880FE
S31500001B907BB318EE100A1C460DF0EEFF064618EE53
S31500001BA0900A0F460DF0E8FF02460B4630463946CE
S31500001BB00EF03AF80646E0680F460DF0DDFF0B46DC
S31500001BC00246394630460DF077FE0246D8F80C003C
S31500001BD0164621F000470DF0CFFF02460B46304671
S31500001BE039460EF04BF922A3D3E900230EF098FAFA
S31500001BF008B328EE288AB5EEC08AF1EE10FA29DB82
S31500001C0018EE100A0DF0B8FF0446D8F80C000D4681
S31500001C100DF0B2FF02460B46204629460EF02EF97D
S31500001C2002460B4600200B99C1E9002302B0BDEC29
S31500001C30028BBDE8F0814FF4A273094928466C690E
S31500001C40084A00910849A047012002B0BDEC028B6A
S31500001C50BDE8F08140F251130449EFE7AFF300808D
S31500001C60D46B0100906B010010670100F86B010056
S31500001C707B14AE47E17A943F30B592F800C083B04A
S31500001C80BCF1030F3DD0BCF1090F1FD0BCF1070F0B
S31500001C9011D147F6FF742F4D0129D2ED036A106961
S31500001CA01DD0032930D002294ED01D60069B1C6032
S31500001CB0002003B030BD284944694FF4C273009137
S31500001CC0264A2749A047012003B030BD01294FF01D
S31500001CD07F046FF07F05D2ED036A1069E1D19FEDB5
S31500001CE0217AC7EE267AF8FE677AFDEEE77A17EED6
S31500001CF0902A0244AA42B8BF2A461A60069B1C6074
S31500001D00D6E7FF240025C7E7DFED167AB1EE086AAD
S31500001D1087EEA67AC6EE267AB8FE477AF8FE677A86
S31500001D20BDEEC77AFDEEE77A17EE101A17EE902A87
S31500001D300144A9420244B8BF2946A242A8BF22468E
S31500001D401960069B1A60B3E7FFEE007AB7EE006AE9
S31500001D50DEE700BF0080FFFF146C0100906B0100FE
S31500001D60106701000000000010289ABF024B53F8CC
S31500001D7020000248704700BFC06C01001C6C0100C7
S31500001D800020704708B50AF04FFF4FF47A73044AF3
S31500001D900021A2FB0020800903FB00F008BD00BF64
S31500001DA0D34D62100FB4002130B5C3B046AC54F821
S31500001DB0045BFC2203A802910FF093FC23462A46FB
S31500001DC04FF4807102A8019411F0E2FB43B0BDE824
S31500001DD0304004B0704700BFB5EE400A2DE9F04F21
S31500001DE0F1EE10FA2DED028B8BB000F09080B5EE7F
S31500001DF0C00AF1EE10FA10EE10AA6CD40CF01CFB1F
S31500001E00FDEEC07A17EE906A02AF01979FED448B04
S31500001E1026EAE67650460DF0AFFE45A3D3E9002349
S31500001E20804689460EF090F908B9002E65DB3046EB
S31500001E300DF090FEB0EE480AF0EE680A41EC110B88
S31500001E400CF046FA55EC104B0022002310EE100A57
S31500001E5029460EF079F988B34FF0FF32204629461D
S31500001E60314B0EF07BF938B94FF0FF322046294648
S31500001E702D4B0EF055F908B322462B4640464946EF
S31500001E800DF0FCFF41EC100B0CF012F951EC100BAD
S31500001E900EF07AF983460DF05DFE22462B460DF0D4
S31500001EA0C3FE02460B46404649460DF005FD0EF0C0
S31500001EB093F982460BF1300B07F801BB4EB907EEDA
S31500001EC090AAF5EEC07AF1EE10FAC4BF2E2307F8F9
S31500001ED0013B013E9EE78AF0004A02AB00EE10AAE3
S31500001EE001930CF0A9FA2D23FDEEC07A0DF1090736
S31500001EF017EE906A8DF8083088E7387001990B481C
S31500001F00FFF750FF0BB0BDEC028BBDE8F08F30231E
S31500001F1002AA0192ADF80830F0E700BFAFF30080E7
S31500001F200000000000002440FFFFEF7F046D010069
S31500001F30F168E388B5F8E43E0FF07CBB0FF094BB84
S31500001F40FEE700BF2DE9F04F9FB000930B1E1890DF
S31500001F5002921D9340F3858400231C93531EC318DD
S31500001F600393189A029992F9003001291A9340F3C3
S31500001F7019859B46039912F9013F9B45B8BF9B46BD
S31500001F8091424FFA8BFBF6D1002218990192C1F1CA
S31500001F9001020592009A8E46D20F1A9B1292CDF834
S31500001FA010B086E0CB49C0FB0123002B04DA6FF0AA
S31500001FB00041521843F10003D20F002142EA4302C6
S31500001FC04FF080438846184602F1E242C24EA2F51F
S31500001FD02522A2F26C72C2FB0608069DC00F1540B0
S31500001FE00A9A40EA48000240984608465540BB4ACD
S31500001FF0109EC5FB028042462E4098460D46D20FE3
S3150000200042EA40020B98F2271040B54A4640C6FB0A
S31500002010028542460998D20F42EA450222403040E4
S3150000202050400D461A46AF4E079CC0FB062504409D
S31500002030D20F0C9842EA450210400D461A46AA4EA7
S315000020404440C4FB0625D20F42EA45020BEA020BC6
S315000020500D461A460E98DFF89CC220408BEA000017
S31500002060C0FB0C250F9CD20F0440119842EA450292
S3150000207000EA020A8AEA040ACAFB07310D9ADB0F54
S315000020800AEA020A089A43EA41031A4082EA0A0A5D
S315000020904FEA2A331AF4006F18BF0133019A1A4423
S315000020A00192059B029A73449A4240F325811EF9D8
S315000020B0013F049A9B1A299A9A42F2DC289A1299AD
S315000020C09340DA0F8A420CBF00214FF0FF31874A56
S315000020D008BF4FF080420098C3FB0021002904DAB4
S315000020E06FF00040121841F10001D20F42EA41019F
S315000020F0009A934200F0C1804FF080434FF0000CED
S3150000210041F07F484FEA481000F18050A8EB0108E3
S31500002110C0FB003CC8F3006A0AF1FF32C8F3C0698D
S31500002120069209F1FF320792BCF1000F48F3807264
S31500002130C8F38076089204DA6FF00047DB194CF199
S31500002140000CDB0F43EA4C03A3FB03244FEAEC7CB1
S3150000215003FB0CF712F1804244EB4704002C1D46AA
S3150000216004DA6FF00047D21944F10004D20F42EAB4
S31500002170440200FB0CFCCAF100040A94C9F10004F5
S315000021800C94741E0D94C8F34066C41703FB04CC6C
S3150000219048F34067C8F38064013EC8F3007BC8F388
S315000021A0407A0B9710964FEAD378661EA0FB03730E
S315000021B009960BF1FF3602F003090E9692100AF10A
S315000021C0FF360F96002ACAF100066344C4F10004E4
S315000021D04FEAD07CCBF1000B11964BDB4FF0010A96
S315000021E0CA45424EB8BF0132E0450BBF4FF0804CA6
S315000021F0B4464FF000084FF0FF381CEB070C48EBD5
S315000022000303002B05DA6FF000471CEB070C43F1C4
S3150000221000034FEADC7C4CEA430C6244002AACBF64
S3150000222000274FF0FF37314BA8BF4FF08043304EA9
S31500002230C2FB0637002F04DA6FF000429B1847F105
S315000022400007DB0F43EA47032B445A1002D4DE078C
S3150000225048BF0132254B10440028B3BF1A464FF041
S31500002260804200234FF0FF3300297FF49BAE4FF4EA
S31500002270002313E74FF0020AB2E7009BB3F1004FC9
S3150000228000F0CF834FF080434FF0000C41F07F48C1
S315000022904FEA481000F18050A8EB0108C0FB003C53
S315000022A0C8F3006A0AF1FF32C8F3C069069209F161
S315000022B0FF320792BCF1000F48F38072C8F38076B4
S315000022C00892BFF63EAF6FF000429B184CF1000C2F
S315000022D037E700BF94A8F5707BBEAF63F2CBA24D83
S315000022E06CAC162FA4AA5211B72A5802010000C0DE
S315000022F0ABAAAA2A11FE0A000199DDF810B000293E
S3150000230000F0D583B1FA81F3994001F10041C3F1A0
S315000023102303139311F100434FEAE17141F10001E8
S315000023205B0843EAC1736D4A4910584202FB01003B
S31500002330A3FB022420446A4C121960F10000002815
S3150000234004DA6FF00044121940F10000D20F42EA9D
S31500002350400202F15A3202FB01F4D01703FB00449B
S31500002360A2FB035015F1804544EB0000ED0F45EA52
S315000023704005C5F10055002D82FB050480F21F8340
S31500002380574D401964F10004002C04DA6FF0004543
S31500002390401944F10004C00F40EA440012EB8002E9
S315000023A040F1878301264FF0FF374D4D02FB01F4C4
S315000023B0D01703FB0044A2FB030C4019644444EB12
S315000023C00707002F04DA6FF00044001947F10007F1
S315000023D0C00F40EA4700C0F10050C40FB4420CBF22
S315000023E000254FF0FF353E4C08BF4FF08044C2FB3E
S315000023F00045002D04DA6FF00040241845F1000571
S31500002400E40F44EA4504B4F1005FC0F2C2824FF023
S315000024108044002502F10042013A02FB01F1D01787
S3150000242003FB0011A2FB03361B19314441EB0505E2
S31500002430002D04DA6FF000415B1845F100054FF0FE
S31500002440FF34DB0F43EA45032549C3F1005303FB81
S3150000245000F0DD1702FB0500A3FB02355B182844DC
S3150000246040EB0404002C04DA6FF000415B1844F1E1
S315000024700004DB0F43EA4403B3F1005FC0F2798244
S315000024806FF000431A44B2F1804FA8BF1293C0F216
S315000024902A83029B002B40F3D381129BDDF8A8A070
S315000024A0002BB3BF4FF0FF334FF0804200230C4A9E
S315000024B0CDF810B0CDE915230123189AD346019221
S315000024C0009AD20F1792139A9340013B14935B1014
S315000024D0199301331B931A9B90E100BFC4C3C3C376
S315000024E0010000C0289A17999340DA0F8A42CB4A16
S315000024F00BBF4FF08041114600224FF0FF32009C87
S31500002500C3FB0412002A104604DA6FF00042891851
S3150000251040F10000CA0F009942EA40028B4200F0E7
S31500002520AC814FF08040002742F07F435C019B1A4C
S3150000253004F18054C3F30066C3F34065711EC4FB07
S315000025400407C3F380690591691EC3F3C068069149
S3150000255009F1FF31079108F1FF310891002F43F38C
S3150000256000710B95C3F3807EC3F3007A099104DAF8
S315000025706FF00041401847F10007C00F40EA4700DE
S31500002580FF1700FB07F10D46A0FB001C11F180416F
S315000025904CEB450CBCF1000F0A9004DA6FF00045D5
S315000025A049194CF1000CB2FA82F20B9D04FB07F7B5
S315000025B06D4252090B950AF1FF35C90F0D95C8F109
S315000025C00005C2F1000841EA4C010F954FEAE47C90
S315000025D028F0004500FB0C770C954FEAD078A4FB59
S315000025E0005011950EF1FF35C3F340730E95CEF1F1
S315000025F0000501F0030C384476425F1EC9F100095C
S315000026008910013A4FEAD47A5B4210950029C0F24C
S3150000261031814FF0010EE645804DB8BF0131D045FE
S3150000262013BFAC464FF0804C4FF0000E4FF0FF3E0C
S31500002630119D1CEB050C4EEB0000002805DA6FF02F
S31500002640004E1CEB0E0C40F100004FEADC7C4CEA1D
S31500002650400C61440029ACBF4FF0000C4FF0FF3C2A
S315000026606E48A8BF4FF080406D4DC1FB050CBCF114
S31500002670000F04DA6FF0004140184CF1000C0A9983
S31500002680C00F40EA4C0001440846491002D4C50771
S3150000269048BF01310C44002CACBF00204FF0FF3086
S315000026A05E49A8BF4FF080415E4DC4FB051000286F
S315000026B004DA6FF00044091940F10000C90F41EA3D
S315000026C0400101F1E2410598A1F52521A1F26C71C5
S315000026D04FF0804E01EA000C002074468046524DB1
S315000026E04FF0F20AC1FB0548E40F44EA48042640CD
S315000026F0069986EA0C0C0CEA0104064671464B4D17
S31500002700CCFB0516C90F41EA4601F44606460B9D69
S315000027100D4047496C40C4FB01C66146079DC90F81
S3150000272041EA4601254009EA0109089989EA0509AD
S3150000273009EA0104054671463E4EC9FB0615C90F56
S3150000274041EA45010F9D3C4E05EA01080D9988EACC
S31500002750040808EA010405467146C8FB0615C90FB8
S3150000276041EA4501099D354E0D406C4071460546CE
S31500002770C4FB0615C90F41EA45010B4027407B40C3
S31500002780C3FB0AE00E994FEADE7E0B4010994EEA33
S31500002790400E01EA0E0E8EEA030E0C9B0EEA0202B2
S315000027A082EA0308129ADDE91513C2FB0813002B0F
S315000027B004DA6FF00042891843F10003C90F41EAB9
S315000027C04301139A149B0B4011414DD4199A93421D
S315000027D000DD0131803911F17F0F48DB7E2900F3DE
S315000027E0C68049B2019B039A8BF8001093420BF105
S315000027F0010B25D01A4612F9013F0192049A9B1A41
S31500002800299A9342BFF66EAE8023039A8BF8003066
S31500002810019B0BF1010B9342ECD111E0010000C0CA
S31500002820ABAAAA2A94A8F5707BBEAF63F2CBA24DE1
S315000028306CAC162FA4AA5211B72A580211FE0A0030
S31500002840029A18991C9B114418912A990133114434
S315000028502A9103991C9311441D9A03919A427FF47D
S3150000286080AB1FB0BDE8F08F1B9A9342B1DC6FF0CE
S315000028707F01B7E74FF0020ECDE6009BB3F1004FA4
S3150000288000F0B2804FF08040002742F07F435C01A9
S315000028909B1AC3F3807104F18054C3F30066C4FB32
S315000028A00407C3F340651091711EC3F3806C059154
S315000028B0691EC3F3C06806910CF1FF31079108F158
S315000028C0FF310891002F43F30071C3F3007A099199
S315000028D004DA6FF00041401847F10007C00F40EAE4
S315000028E04700A0FB001EFF1700FB07F911F180410E
S315000028F04EEB490EBEF1000F0A9005DA6FF0004963
S3150000290011EB09014EF1000EB2FA82F26D4204FBA0
S3150000291007F752090B950AF1FF350D95C8F1000529
S31500002920C2F10008CCF100090F954FEAE47C28F0CB
S31500002930004500FB0C770C954FEAD078A4FB0050BD
S315000029401195109DC90F013D0E95109D41EA4E014E
S31500002950C3F340736D4201F0030C384476425F1EA8
S315000029608910013A4FEAD47A5B4210954EE67F21F0
S3150000297038E7B3F1604F00F3AA8002F1004352003A
S315000029801292B3F1404F129BD8BF4FF000431293FF
S315000029907FE5B4F1604F61DC4FF0FF35534C02F137
S315000029A000423AE500F08A800023DDF868B0032192
S315000029B04FF0804013914FF05A3219464C4C10F1AB
S315000029C0804044F10004002C04DA6FF00045401901
S315000029D044F10004C00F40EA440002EB80024FF0CD
S315000029E080450027D60FE1E400234FF0FF3241482F
S315000029F0414C11900A944FF40031994617461E46F1
S31500002A009A4698469C46CDE90F33CDE90B33CDE97E
S31500002A100823CDE906223948394C0E920D920592CB
S31500002A20F7E500244FF0FF364FF400326FF0004117
S31500002A30A346A446A046A146CDE90E66CDE90C46BE
S31500002A40CDE90A44CDE907642A4F2C4B2A4D2C4880
S31500002A501096119409960696FFF7C0BB12EB8402F6
S31500002A6030D501254FF0FF36204CD01703FB00F779
S31500002A7002FB0171A3FB02371B19394441EB060621
S31500002A80002E04DA6FF000415B1846F10006DB0FFA
S31500002A9043EA4603C3F10053D90FA94208BF0024F5
S31500002AA0124914BF4FF0FF344FF08041CFE4019B31
S31500002AB07DE700264FF08045374677E4DDF868B0BD
S31500002AC0FFF762BA00254FF080442E46CDE702EBB1
S31500002AD083035A00B3F1804F1292FFF652AF6FF0A4
S31500002AE000431293D5E453001293D2E4010000C0D0
S31500002AF04B4B4B0B00010040F8FFFF01FFFF1F008F
S31500002B00E0FFFF0F2DE9F04F93B00192229ADDE925
S31500002B101C49012A0FFA84FE0FFA89FC06900E91D1
S31500002B200F93CEEA0E4ECCEA0C4C40F334811E468F
S31500002B306FF0030A209A00915142229A0123941EB3
S31500002B40219A8B40103A22F00F0202F1100524F070
S31500002B500102324404320792219A013BAAEB020A8F
S31500002B6052000592209A0D9322EAE2720492B21C58
S31500002B70029202462A440392219A5B100432099279
S31500002B80219A0B93013A01330C91119408950A92FC
S31500002B9010930199002900F0C9814A6851F8083B51
S31500002BA0019121990F2940F3C78100990998069D43
S31500002BB0039F0C18CDF874905AF804B028684FEAB1
S31500002BC03B294FEA302854F8041C0AEB04062CFA79
S31500002BD08BFB2CFA89F92EFA80F02EFA88F820FB66
S31500002BE00B332CFA81FB28FB0933D6F804904FEA05
S31500002BF031212CFA81F120FB0B2028FB01006968AA
S31500002C004FEA392B4FEA31222CFA89F82CFA8BFB42
S31500002C10D4F800902EFA81F12EFA82F221FB0833C5
S31500002C202CFA89F822FB0B3BB3684FEA39292CFAB8
S31500002C3089F921FB080822FB0988A9684FEA33298C
S31500002C404FEA312062682CFA83F32CFA89F92EFABE
S31500002C5081F12EFA80F021FB03BB2CFA82F320FBD4
S31500002C6009BBD6F80C904FEA32222CFA82F221FBED
S31500002C70038820FB0280EE684FEA39234FEA3622AA
S31500002C80D4F8088010352CFA89F92CFA83F32EFA39
S31500002C9086F62EFA82F126FB09BB2CFA88F921FB6F
S31500002CA003B34FEA38282CFA88F826FB090021FBE3
S31500002CB00802BD4204F110047FF47EAF0898009923
S31500002CC00746DDF87490039C0D182199B94215DD6D
S31500002CD0CF1B0A99DDF870806E1E27440D4414F947
S31500002CE0011B16F9010F4144484401FB003315F955
S31500002CF0010FBC42484401FB0022F0D14FF0804155
S31500002D000020049C1F9DA340C3FB0510CB0F2099F8
S31500002D1043EA4003002940F3E8800499002B02FAB5
S31500002D2001F2C0F20D814FF0804100201F9CC4FBD0
S31500002D300210C90F51EA400100F1F4801E9A05986D
S31500002D4013441144239A9342B8BF13469142B8BF25
S31500002D501146009A0244249800928342A8BF034673
S31500002D608142A8BF0146029A02F8023C079B023242
S31500002D709342029202F8031C7FF40BAF119B059A53
S31500002D805B0803FB02220E99013311440F9A0E9140
S31500002D9002EB43030F93229BDB0740F1A280019BCA
S31500002DA0002B00F0EB801A68219B0F2B40F3E88084
S31500002DB0A3F110084FEA1818069B08F101080E99AE
S31500002DC04FEA081A03EB08150E6818684FEA36240E
S31500002DD02CFA86F62CFA84F74FEA30242EFA80F085
S31500002DE02EFA84F420FB062224FB07244E685A6838
S31500002DF04FEA36202CFA86F62CFA80F74FEA322074
S31500002E002EFA82F22EFA80F022FB064220FB0720E1
S31500002E108E689A684FEA36242CFA86F62CFA84F7DE
S31500002E204FEA32242EFA82F22EFA84F422FB0602AC
S31500002E3024FB0724CF68DA684FEA37264FEA3220A8
S31500002E40103110332CFA87F72CFA86F62EFA82F216
S31500002E502EFA80F022FB074220FB0622AB42B3D1BA
S31500002E600E9B53440E934FEA0813219999420EDDA7
S31500002E70CB1A0E991C9E481E2B4415F9014B10F9CE
S31500002E80011F344449449D4204FB0122F5D14FF011
S31500002E9080410020209B23EAE3739A401F9BC2FBDC
S31500002EA00310CB0F43EA4002209B002B0DDC0121CF
S31500002EB05B429940013902EA01001A414FEA610179
S31500002EC048BF01318842C8BF01321E9B1344239A72
S31500002ED09342B8BF1346249A9342A8BF13460F9A4B
S31500002EE01370002013B0BDE8F08F0D9D0C9E03EA11
S31500002EF00500334130D4A2404FF0804100241F9F8B
S31500002F00C7FB0214C90F41EA44010B9C0D40314135
S31500002F10A0420B9AC8BF0133002905DBAA42B8BFFD
S31500002F2001310BE700252A460132F7E72199019B7B
S31500002F300F291A463FF739AE0027009D069CC4E6C6
S31500002F4000254FF0804128461F9CC4FB0210C90F84
S31500002F502A4641EA4001DFE7049900258A404FF0FE
S31500002F6080411F9E109CC6FB02150D9AC90F41EAAF
S31500002F70450102EA01050C9A1141C9E7019A13E7D6
S31500002F800023069D71E700BF2DE9F04F1D688BB049
S31500002F909046DDE9146ADDE91829DDF858B01A9F74
S31500002FA03DB30C46D9F80C30DAF80010D4E9030C1E
S31500002FB00693D8F804E00591CDF820C0A368D8F8A8
S31500002FC000C00790CDF810E0D4E90010CDE9023C2E
S31500002FD0CDE900103B46304659461892FFF792FD60
S31500002FE0DAF80010D9F80C30013D189A0E441F4447
S31500002FF0DCD100200BB0BDE8F08F00BF0020704789
S315000030000129B0EC017A10B417D04FF0010C00245E
S31500003010F0EC017AF4EEC77AF1EE10FAC8BF644616
S315000030200CF1010CC8BFB0EE677A8C45F0D182ED89
S31500003030007A1C605DF8044B7047002482ED007A2C
S315000030401C605DF8044B704782B0019191B10B464C
S31500003050DFED0A7AB0EC017A013B77EE877AF9D197
S315000030609DED017AB8EE477AC7EE876AC2ED006A2F
S3150000307002B07047DFED017AF2E700BF0000000002
S315000030800129B0EC017A10B417D04FF0010C0024DE
S31500003090F0EC017AF4EEC77AF1EE10FA48BF644616
S315000030A00CF1010C48BFB0EE677A8C45F0D182ED89
S315000030B0007A1C605DF8044B7047002482ED007AAC
S315000030C01C605DF8044B704700B583B0019119B3DD
S315000030D00B469FED177AF0EC017A67EEA77A013B73
S315000030E037EE277AF7D1DDED017AF8EE677A87EECB
S315000030F0270AB5EEC00AF1EE10FA4FF000030EDB18
S31500003100B5EE400AF1EE10FA0BD4F1EEC07AC2ED3C
S31500003110007A03B05DF804FB9FED057AE3E71360E0
S31500003120F7E701920BF0B8F9019AF0EE407AEEE774
S31500003130000000000388B0F802C049680CFB03F3E6
S3150000314042683BB1F2EC017A67EE807A013BE1EC32
S31500003150017AF7D100207047F0B5B0F800E04C686E
S31500003160468845684FEA8E0CB70004EB8E0E234660
S3150000317046B13246294651F8040B013A18606344B9
S31500003180F9D13D4404347445F1D10020F0BD00BFAF
S31500003190022800D07047024B0248596807F070B801
S315000031A040760100F80B002010B50446006808B10F
S315000031B0237B0BB9204610BDFEF7C0FE204610BD8E
S315000031C010B50968046812681868920004EB81015A
S315000031D00EF060FA002010BD08B530B130F8023CA0
S315000031E0C01ABDE80840FEF7A9BE5A21024B034AA1
S315000031F0034807F07DFE00BF786D01007C6D01007D
S31500003200A86D0100431E034210B514D1044680B1D7
S3150000321079B1481C20440121FEF78EFE024640B1DA
S31500003220631C0344644203EA0400821A20F8022C59
S3150000323010BD002010BD3721024B034A034807F09A
S3150000324057FE00BF2C6E0100486E0100A86D0100FC
S315000032502DE9F84F2DED048B0646DDE90E85144663
S3150000326099469DF84070FDF749FA002840F0B28073
S31500003270FEF788FD001B61EB09014FF47A7200230B
S31500003280C5E93C010CF0F8FFC5F8E000002F48D175
S3150000329096F840407CBB98F80030092B5FD0338EFF
S315000032A0D8F804208BB39046D6F8A010DFF850B1BA
S315000032B0DFF8509109E051F80A200134AA60A342D0
S315000032C005F1080585ED018A1FD9B8EC018A4FEA98
S315000032D0840A002FEFD051F824105846FEF762FDFD
S315000032E0B0EE480AFEF778FD4846FEF75BFDD6F8D5
S315000032F0A010338EDFE796F948104B1E042B6CD8CE
S31500003300DFE803F0201A142614003748FDF718FAF0
S31500003310FEF736FD831C18BF0020BDEC048BBDE80C
S31500003320F88F01463148FEF73DFDB1E73048FEF71C
S3150000333039FD6FF00900F0E72B48FDF701FA6FF051
S315000033401400EAE72B48FEF72DFD6FF00900E4E7CD
S3150000335029480421FEF726FD6FF00900DDE7D8EDC8
S31500003360047A338E98ED039AF8EEE78AD8F80420AB
S31500003370002BCAD0D6F8A010DFF884A0DFF884901E
S3150000338002F1FF3808E08A580134A34285ED038A2A
S31500003390AA6005F10805B8D918F9012F08EE102A18
S315000033A0B8EEC88A38EE688AA20028EE098A002F8D
S315000033B0E9D051F824105046FEF7F4FCB0EE480A66
S315000033C0FEF70AFD4846FEF7EDFCD6F8A010338E50
S315000033D0A200D8E76FF002009FE70848FEF7E2FC7C
S315000033E06FF0090099E700BFD9310000806E010037
S315000033F0F86E0100A06E0100486F0100986F010091
S31500003400CC6F0100B8740100F8B50D4617461E468C
S315000034100446FEF7B7FCC5E900015448FDF746F837
S315000034200546002871D1D4F88C3098470246D4F866
S31500003430903028463A609847306094F94830012B1E
S315000034400DD1D4F8903094F84A009847079AD4F8EA
S315000034509030106094F849009847069B1860444BDA
S315000034601878002840D0396894F85C200878904293
S3150000347058D1326894F868501078A8424CD194F923
S315000034804850012D31D094F85D0098B191ED037A42
S31500003490D4ED187AB4EE677AF1EE10FA54D1D1ED84
S315000034A0047A94ED197AF8EEE77AF4EE477AF1EEBB
S315000034B010FA4FD194F8691099B192ED037AD4EDD0
S315000034C01B7AB4EE677AF1EE10FA49D1D2ED047A9E
S315000034D094ED1C7AF8EEE77AF4EE477AF1EE10FAFC
S315000034E026D1002210461A70F8BD079D2D682D784A
S315000034F0854223D1069800680078A842C3D05D2192
S315000035001C4B1D4A1D4807F0F3FC01461C48FEF7FC
S3150000351049FC6FF00500F8BD5A211A4B164A1748A8
S3150000352007F0E6FC5921184B134A144807F0E0FC53
S315000035306521164B104A114807F0DAFC5C21144B42
S315000035400D4A0E4807F0D4FC6021124B0A4A0B487C
S3150000355007F0CEFC6121104B074A084807F0C8FC6B
S3150000356064210E4B044A054807F0C2FC05320000F0
S315000035708C020020D87101003C700100D870010057
S31500003580D46F01006871010008700100C472010067
S315000035909C710100147201004C7201008C720100D2
S315000035A03AB1012A09D0022A04BF0B680360002041
S315000035B07047034B0360002070470160002070478E
S315000035C0947501003AB1012A09D0022A04BF0B689A
S315000035D0036000207047034B0360002070470160C2
S315000035E00020704760750100836810B5044613B16A
S315000035F0032201469847204610BD00BF2DE9F04F33
S3150000360005680868A9681268B0FBF1FAB2FBF1F226
S315000036101B6887B00093EB68986900FB0AFA00FB09
S3150000362002A2924501922DD24FF000084FF0010BF5
S3150000363019B3009B002403EB880608F1010705E097
S31500003640A9680134A14206F1040615D9D5E900039B
S315000036501B5D07EB0408534403938368CDE904B666
S31500003660A3B1D0F80C9005AB04AA03A9C84700285B
S31500003670E6D007B0BDE8F08FEB689A699244019AEC
S315000036805245D5D8002007B0BDE8F08FFEF758FCAC
S315000036902DE9F04F2DED048B0746D2E902A08B46AB
S315000036A08BB052490FF078F8D7F8108000280CBF7D
S315000036B001260326B8F1000F7FD04FF000099FEDD9
S315000036C04C8ADFED4C8A9FED4C9ADFED4C9ACDF893
S315000036D00490B8F5806F454628BF4FF4806505FB1A
S315000036E00AF001218000FEF727FC0123CDE9075AE5
S315000036F08DF824300690002869D0BB68CDE9039583
S315000037000590002B6AD03846FC6805AB04AA03A9CD
S31500003710A047DDF818C0B8F1000F41D0002261467D
S31500003720DBF80000019C0EE027EE287AA6EE097A67
S31500003730A6EEA97A013200EB8403954283ED007A66
S3150000374004F101042BD9F1EC017AFCEEE77A17EECD
S31500003750903AC3F3074E07EE10EAC3F3072EDBB227
S3150000376006EE90EA07EE903AB8EEC77AF8EEE66A09
S31500003770F8EEE77A032E87EE086A86EE887AC7EEB9
S31500003780886AD1D1013200EB8403954283ED006A49
S3150000379083ED017AC3ED026A04F10304D3D80194E0
S315000037A0A8EB0508BCF1000F02D09DF8243053B9F0
S315000037B03B6909F580694B458BD800200BB0BDEC01
S315000037C0048BBDE8F08F6046FEF7B8FBF0E7A0F289
S315000037D0EA300BB0BDEC048BBDE8F08FFEF7B0FB12
S315000037E006A8FFF7E1FC09F0D1FF00BF087301004E
S315000037F000007F43A245163F8716993ED578E93DDE
S315000038002DE9F04F2DED048B0446907C9DB0019080
S31500003810D07C137C0290107D95680F4692ED038A4A
S31500003820517C0590507D927D002B0693079114BF25
S315000038302B4600230390049201B12B44019A02B156
S315000038402B44029A02B12B44059A02B12B44039AE7
S3150000385002B12B44049A02B12B44D7E9012101FBA2
S3150000386002F29A4240F0CF8426690121B6FBF5F6B2
S3150000387006FB05F08000FEF75FFB0123CDE911652D
S315000038808DF84C301090002800F09984002308939E
S31500003890236918901493A368002B00F0F084204647
S315000038A018ABE46814AA08A9A047F7EE007AB4EEAC
S315000038B0678AF1EE10FA20D0119AB2F5803F80F0B7
S315000038C09484129BB3F5803F80F08F849BB2ADF851
S315000038D05230ADF86230109B92B2B0EE480A18A989
S315000038E014A8ADF85020ADF8602015931993FFF792
S315000038F021FC0446002840F07984DDE9115405FBDB
S3150000390004F6B60001213046DDF84080FEF714FBD0
S315000039100123CDE919458DF86C301890002800F088
S31500003920AB84B4F5803F80F29384B5F5803F80F296
S315000039308F84ADB2A4B2159014A90EA8ADF8385074
S31500003940ADF85250ADF83A40ADF85040CDF83C8055
S31500003950FFF702FC0546C8B118982C4620B19DF821
S315000039606C300BB1FEF7EAFAE5B12146B848FEF72E
S3150000397019FA109820B19DF84C30002B40F02D8498
S3150000398020461DB0BDEC048BBDE8F08F32464046A4
S3150000399018990DF07FFE189820B19DF86C300BB188
S315000039A0FEF7CCFA119B1FFA83F8BDF84830CDE933
S315000039B01138002B00F0F98300239FEDA78A01261A
S315000039C01D460093009B109A08FB03F312EB83033A
S315000039D000F0DB83149300238DF85C30069BCDE961
S315000039E01568002B40F09883079B002B40F06883F6
S315000039F0019B002B40F03583029B002B40F0058392
S31500003A00059B002B40F05C821498039B002B40F032
S31500003A102581049B002B00F0EA800023159A0DAC4B
S31500003A20012ACDE9196618948DF86C3040F0E483CC
S31500003A301C46F0EE088AAB468646DFF818A21699B1
S31500003A4001FB04F00EAA0EEB8000FFF7FDFA1699B3
S31500003A50DDF850E004FB01FC01290EEB8C0C40F272
S31500003A60E2808808DFED7C7A00F07F830CF110039A
S31500003A701A46804612ED047A52ED035A77EE877A9B
S31500003A8012ED026A77EEA57A52ED016A77EE867A32
S31500003A90B8F1010877EEA67A02F11002EAD111F028
S31500003AA003054FEA00190CEB001200F0CA80AB00C8
S31500003AB002EB8509B2EC017A4A4577EE877AF9D1AD
S31500003AC007EE101AF8EE474A87EEA45A002800F0CF
S31500003AD04F830CF110034FEA0019DFED5F7A0246BF
S31500003AE053ED045A13ED036A75EEC55A53ED026A97
S31500003AF036EE456AE5EEA57A13ED017A76EEC56AED
S31500003B00E6EE067A37EE457AE6EEA67A013AE7EE73
S31500003B10077A03F11003E3D1E1444DB1AB004B4406
S31500003B20B9EC017A37EE457A9945E7EE077AF7D18F
S31500003B3087EEA47A9DED0E5A27EE074ADFED467A08
S31500003B4040B302460CF1100353ED045A13ED036A19
S31500003B5075EEC55A53ED026A36EE456A65EEA55A0C
S31500003B6013ED017A76EEC56A26EE066AE5EEA57ACB
S31500003B7037EE457A66EEA66AE6EE067A27EE077A0D
S31500003B80E6EEA67A013AE7EE077A03F11003DBD1F7
S31500003B900CEB001C5DB10CEB8508BCEC017A37EE32
S31500003BA0457A27EE077AC445E7EE077AF5D1B5EEF2
S31500003BB0404AF1EE10FA30D087EEA47AC7EE047AC6
S31500003BC077EEE87A189A02EB8403C3ED007A159B28
S31500003BD00134A3423FF634AF5D463B6814689DF856
S31500003BE06C1003EB8B03704601351C6081B920B164
S31500003BF09DF85C30002B40F0BF82009B01331A46D3
S31500003C000093119B934240F2D082DDF84880D9E6BA
S31500003C101046FEF793F91498E9E7189A02EB840325
S31500003C20C3F800A0D3E707EE901A9DED0E5AF8EE02
S31500003C30E74A0029F1D0B0EE484ADFED077A0D4693
S31500003C40A9E707EE101AF8EE474A87EEA45A44E7AA
S31500003C5038730100000040C0000000004FF000086B
S31500003C60159B0DAC012BCDE9196618948DF86C8067
S31500003C7040F0CC824446AA46BB4616990EAA04FBDF
S31500003C8001F300EB8300FFF7DFF9169F149804FB9E
S31500003C9007F3012F00EB830040F2EF80B9085FEDD8
S31500003CA0127A00F06F8200F110031A468C4612ED6C
S31500003CB0047A52ED035A77EE877A12ED026A77EEAE
S31500003CC0A57A52ED016A77EE867ABCF1010C77EEA1
S31500003CD0A67A02F11002EAD117F003054FEA01199C
S31500003CE000EB011200F0D780AB0002EB850CB2ECC2
S31500003CF0017A624577EE877AF9D107EE107AB8EE47
S31500003D00479A87EE895A002900F0488200F110038D
S31500003D104FEA01195FED307A1A468C4652ED045A85
S31500003D2012ED036A75EEC55A52ED026A36EE456A21
S31500003D30E5EEA57A12ED017A76EEC56AE6EE067A2A
S31500003D4037EE457AE6EEA67ABCF1010CE7EE077A85
S31500003D5002F11002E2D100EB0902002D00F0A28070
S31500003D60AB0002EB030CB2EC017A37EE457A624502
S31500003D70E7EE077AF7D187EE897A27EE070ADDEDB7
S31500003D800E5A20EE070A002900F0678200F11003A0
S31500003D904FEA01190A465FED508A13ED046A53EDA6
S31500003DA0036A36EE656A13ED027A76EEE56A66EE2A
S31500003DB0063A53ED017A37EE657A26EEA64AE6EE26
S31500003DC0238A77EEE57A67EE074AE6EE848A27EEDF
S31500003DD0A75AE7EE248A013AE7EE858A03F1100333
S31500003DE0DBD148445DB1AB000344F0EC017A77EED9
S31500003DF0E57A27EEA77A9842E7EE878AF5D1B5EEFF
S31500003E00C00AF1EE10FA1DDBB5EE400AF1EE10FA2B
S31500003E1000F12682F1EEC07AF5EE407AF1EE10FA64
S31500003E2010D0C8EE896A86EEA77A189A013402EB9A
S31500003E30080383ED007A159B08F10408A3420CD908
S31500003E4014981AE7189A013402EB080383ED008AE6
S31500003E50159B08F10408A342F2D85546DBF800305A
S31500003E6010689DF86C1003EB8A035F4601351860F5
S31500003E70002940F0AB811498CBE507EE907ADDED92
S31500003E800E5AB8EEE79AB0EE480A5FED8D8A002F1B
S31500003E90C0D0BB00A8E707EE107AB8EE479A87EEC7
S31500003EA0895A37E787EE897A27EE070ADDED0E5A3B
S31500003EB020EE070A00297FF46DAF5FED998A9EE731
S31500003EC0DDF854A0BAF1010F40F0B88114984FF014
S31500003ED0000884460DF16009DDF858B0BBF1010F0A
S31500003EE040F289800BFB08F45FEA9B015FEDA67A3E
S31500003EF00CEB840400F0438104F110031A460846D3
S31500003F0012ED047A52ED035A77EE877A12ED026AC1
S31500003F1077EEA57A52ED016A77EE867A013877EE6A
S31500003F20A67A02F11002EBD11BF003004FEA011E44
S31500003F3004EB011262D0830002EB800EB2EC017A30
S31500003F40724577EE877AF9D107EE10BAF8EE474A4E
S31500003F5087EEA45A002900F0258104F110034FEAE8
S31500003F60011E0A465FEDC47A53ED045A13ED036A47
S31500003F7075EEC55A53ED026A36EE456AE5EEA57A48
S31500003F8013ED017A76EEC56AE6EE067A37EE457AE5
S31500003F90E6EEA67A013AE7EE077A03F11003E3D1DB
S31500003FA0744448B183002344B4EC017A37EE457A71
S31500003FB09C42E7EE077AF7D187EEA40AB5EEC00A6F
S31500003FC0F1EE10FAC0F20681B5EE400AF1EE10FAF3
S31500003FD000F14B81F1EEC07A08F10108C245E9EC27
S31500003FE0017A3FF679AF60463B68189A03EB850382
S31500003FF01A60013509E5B0EE480AEBE707EE10BA9C
S31500004000F8EE474A87EEA45AABE70023159A0DACA3
S31500004010012ACDE9196618948DF86C3040F01081AC
S315000040201C461699149B01FB04F00EAA03EB8000B4
S31500004030FFF74AF81898159B00EB84020E99013495
S31500004040A3421160EDD83B6801689DF86C2003EB34
S31500004050850319600135002A3FF4D2ACFDF76EFFE7
S31500004060CEE44FF000080EABCDE91836159B1A9634
S31500004070012B8DF86C8040F0D1800DAC1699149B05
S3150000408001FB08F00CAA03EB80002346FEF7B8FFFD
S315000040901898159B00EB88020C9908F10108434516
S315000040A01160EBD83B6801689DF86C2003EB850333
S315000040B019600135002A3FF49FACFDF73FFF9BE4F2
S315000040C000240EABCDE91836159B1A96012B8DF8F8
S315000040D06C4040F0AB801699149B01FB04F00AAAD1
S315000040E003EB80000BABFEF7CBFF1898159B00EB9C
S315000040F084020A990134A3421160ECD83B68016836
S315000041009DF86C2003EB850319600135002A3FF406
S315000041106FACFDF713FF6BE400240EAB4146CDE90F
S3150000412018361A968DF86C4000E0169901FB04F0DB
S31500004130149B09AA03EB8000FEF786FF1898159BCF
S3150000414000EB840209990134A3421160EDD83B6863
S31500004150026803EB85031A609DF86C300135002B6D
S315000041603FF442ACFDF7EAFE3EE462460D469EE4AD
S31500004170DFED4E7AE146D2E4FDF7E0FE3DE5584636
S315000041802246D8E602463D46AEE501214FEA8800C2
S31500004190FDF7D2FE8DF85C6014901FE4DFED437AE4
S315000041A00246DEE5DFED417AFDE60122D7E901139D
S315000041B001FB03F30024C7E90123FFF7DABB3C4CFC
S315000041C020461DB0BDEC048BBDE8F08F1046FDF710
S315000041D0B5FE50E6F0EE487AFEE6FDF7AFFE204665
S315000041E01DB0BDEC048BBDE8F08F324C2146324841
S315000041F0FDF7D8FDFFF7BDBB3B680D9A03EB8503C2
S315000042001A600135F3E42D4CFFF7BABB3B680D9AF3
S3150000421003EB85031A600135FFF7FBBB3B680E9A7B
S3150000422003EB85031A600135FFF7E6BB3B680E9A80
S3150000423003EB85031A600135FFF7DABB1498D3E662
S315000042403B680D9A03EB85031A600135FFF7D8BB6F
S31500004250FDF774FE174CFFF788BBDFED148AC3E544
S315000042600AF01AF9F0EE407AD6E50AF015F9DDE91A
S3150000427014CAF0EE407AAFE60D4CFFF776BBFDF7B9
S315000042805FFE02E018A8FEF78FFF10A8FEF78CFF6E
S3150000429009F07CFA18A8FEF787FF14A8FEF784FF3A
S315000042A0F3E7F7E7F6E7F5E7F4E7F3E700000000E2
S315000042B016FCFFFF0CFCFFFF1473010014FCFFFF4C
S315000042C02DE9F0418AB00646174698460D46FDF799
S315000042D059FD06AB019307ABCDE9080100933046C3
S315000042E005AB04AA08A9FFF78FF8044660B9049B3A
S315000042F0197803295ED009290AD0012949D04248F4
S31500004300FDF750FD6FF00C0420460AB0BDE8F081C1
S31500004310D5E9011201FB02F212B3864600E0049BC6
S315000043202A68D3ED036A02EB8E0292ED006AD3EDA2
S31500004330047A86EE267AF8EEE77AB8FE477A77EEC2
S31500004340877AFDEEE77A17EE90CA5B6803F80EC02F
S31500004350D5E9013202FB03F30EF1010E7345DED8F7
S31500004360059B30460093CDE90178DDE90823FEF789
S315000043706FFF0446FDF706FD089BC01AC7F8F0005C
S315000043802046099B61EB0301C7F8F4100AB0BDE8AB
S31500004390F081D5E9010202FB00F00028E0D02A688E
S315000043A05B6802EB800052F8041B904243F8041B42
S315000043B0F9D1D5E7D5E9012000FB02F2002A9ED00B
S315000043C022462968D6ED186A01EB820191ED006A52
S315000043D096ED197AC6EE267A77EE877AFCEEE77ABC
S315000043E0596817EE903A8B54D5E9013101FB03F376
S315000043F001329342049BE4D819780348FDF7D2FCB6
S315000044006FF00C0480E700BF607301002DE9F04FE8
S3150000441014462DED048B05469BB04FF48072204662
S3150000442089460021069407930DF05BF90FAB0193C3
S3150000443010AB009328460EAB0DAA14A9FEF7E4FFB5
S315000044400446002840F047810D9B1B78092B40F05D
S31500004450EE81FDF797FC0D9B0B915E682B69CDE90C
S315000044600930002E00F0DB810894D44BD4499B68B8
S31500004470D3E9023005930EF08FF9D9F810A0002881
S315000044800CBF4FF001084FF00308BAF1000F00F01F
S31500004490CE800023DFEDCB8A9FEDCB8A9FEDCB9AB2
S315000044A0DFEDCB9A9B460493BAF5806F574628BF3B
S315000044B04FF48067059C012104FB07F08000FDF79F
S315000044C03BFD0123179718948DF864301690002849
S315000044D000F06C81D9F80830CDE911B71390002BA4
S315000044E000F0A8814846D9F80C4013AB12AA11A9CE
S315000044F0A047BAF1000F00F08A80DFEDB64A9FEDC3
S31500004500B65A9FEDB64A002244F68B4E049C30E024
S31500004510D5ED183AF4EE683AF1EE10FAD5ED196ACF
S31500004520C3F3072140F0DD80F4EE456AF1EE10FAA0
S3150000453040F0D78049F2456000FB01F141F62F506B
S31500004540C3F3074C0EFB0C11DBB200FB03131B1469
S3150000455007EE903AF8EEE77A77EEC47AFDEEE77A60
S3150000456017EE903A03F307033355013401329742AD
S315000045704CD9169BB8F1030F03EB8203D3ED007AF7
S31500004580FCEEE77A17EE903AC2D1D5ED185AF4EE62
S31500004590685AF1EE10FAD5ED197AC3F3074140F0E7
S315000045A0C880F4EE457AF1EE10FA40F0C28006EECD
S315000045B0901AF8EEE66A76EEC46AFDEEE66AC3F392
S315000045C0072107EE101A16EE901A3155D5ED196A25
S315000045D0B8EEC77A37EE267ABDEEC77ADBB217EEAB
S315000045E0101A07EE903A30194170F8EEE77A95ED19
S315000045F0197AA31C77EE877AFDEEE77A17EE901A02
S3150000460001329742F15404F10304B2D80494169887
S31500004610AAEB070A20B19DF86430002B40F0C38056
S31500004620D9F810300BF5806B5B453FF63DAFFDF7D3
S31500004630A7FB831C044649D0FDF7A4FB0A9B069CF6
S31500004640C01A0B9B4FF47A7261EB0301C4E93A017D
S3150000465000230BF011FE079BC4F8DC001BB30146D8
S315000046605F48FDF79FFB099BD3B1099BDFF880816B
S315000046705F1E3744741E14F9013F95ED197A07EE53
S31500004680903AF8EEE77A95ED180A77EEC77A27EEB4
S31500004690800AFDF7A1FB4046FDF784FBBC42EAD148
S315000046A05048FDF77FFBFDF76DFB0246079B28464A
S315000046B00293069D0E9B019500930B46CDE91421AE
S315000046C0FEF7C6FD0446002800F09D801EB1089B3B
S315000046D0002B40F08F8020461BB0BDEC048BBDE85C
S315000046E0F08F05EE901AC3F30741DBB2F8EEE55AF8
S315000046F007EE903A06EE101A85EE887AB8EEC66A8C
S31500004700F8EEE77AC6EE085A87EE886A67EE097A07
S31500004710E5EEA97AE6EE247A87EEA37AF8FE477AE2
S3150000472076EEA76AFDEEE67A17EE903A3355013437
S315000047301CE706EE101AC3F30721DBB2B8EEC66A11
S3150000474007EE103A86EE083AB8EEC77A87EE086AA0
S3150000475083EE257AB8FE477A77EE877AFDEEE77A1A
S3150000476006EE901A17EE901AF8EEE66A3155C6EE86
S31500004770883AD5ED186AC3EEA67A95ED197AF8FE51
S31500004780677A77EE877AFDEEE77A17EE901A301998
S315000047904170D5ED186AC6EE267A95ED197AF8FEBF
S315000047A0677AA31C26E7FDF7C9FB39E70E490F48D0
S315000047B0FDF7F8FA6FF0040488E700BF98020020BE
S315000047C0087301008180803B00007F43A245163FAD
S315000047D08716993ED578E93D000000C300000043E6
S315000047E0AC730100B874010016FCFFFF847301006E
S315000047F04C7401003046FDF7A1FB20461BB0BDEC12
S31500004800048BBDE8F08FFDF7BDFA149BC01A159B0B
S31500004810C5F8F00061EB0301C5F8F41056E7184639
S315000048200121FDF789FB0123064608931DE66FF07B
S31500004830080450E7FDF784FB26B1089B13B1304608
S31500004840FDF77CFB08F0A2FF16A8FEF7ADFC002ED4
S31500004850F3D1F7E72DE9F0411546426F0446022AE7
S315000048600E461F4607D022F00202052A03D06FF03B
S315000048700900BDE8F08194F83210B9B994F85D30BA
S31500004880A3B1A36B012B11D1E36B5A68094B9A4272
S315000048900CD14FF4807228460CF023FF3B462A4683
S315000048A031462046BDE8F041FFF7B0BD6FF0080085
S315000048B0DFE700BF913600002DE9F04F2DED028BAA
S315000048C09FB00393436F0446022B894608EE102AD5
S315000048D000F0838023F00203052B7ED04FF4807214
S315000048E0002118EE100A0CF0FCFE25690121A80033
S315000048F0FDF722FB012309AA0B95099002928DF878
S3150000490030300A93FDF73EFAA36BCDE90401002B84
S3150000491000F0898000252E4635E0904B1B93904B86
S315000049201C93D9F81030B3FBF2F303FB07F715AB72
S31500004930119311AA92E8030019AA1D97174607AB0F
S3150000494083E8030082E8030094ED0D0A52463846D8
S315000049500DA9D847002840F0A580FDF711FA831C61
S31500004960074600F0A5801B9B1BB119A90322084628
S3150000497098470D9818B19DF84030002B4DD1A36B88
S315000049800135AB424FD9E26B05EB850352F8238024
S31500004990216902EB8303D8683246D3E901BA46445B
S315000049A08E421F69019000F29380099B13EB8203EC
S315000049B06CD00D9300238DF84030019BA269CDE9A0
S315000049C0159301230E9300239742CDE91774CDF872
S315000049D03C801B93A1D14F46B6E794F83230002BAA
S315000049E07FF47CAF94F85D30002B3FF477AFA36B78
S315000049F0012B7FF473AFE36B5A685A4B9A427FF4EC
S31500004A006DAF18EE102A49462046039B1FB0BDEC39
S31500004A10028BBDE8F04FFFF71DBFFDF78FFAA36BC2
S31500004A200135AB42AFD809AB0293FDF7ABF918EEEF
S31500004A30105A049B4FF47A72C01A059B61EB03016E
S31500004A40C5E93A0100230BF017FC039BC5F8DC000F
S31500004A50002B4DD109AB1946029318EE102A2046B9
S31500004A60039BFFF72DFC074628B9FDF789F90230AD
S31500004A7008BF6FF00107099810B19DF830307BBB75
S31500004A8038461FB0BDEC028BBDE8F08F09AB0121A3
S31500004A904FEA88000293FDF74FFA01230D908DF837
S31500004AA040308AE701463048FDF77CF96FF004078D
S31500004AB01B9B1BB119A90322084698470D9800288D
S31500004AC0D9D09DF84030002BD5D0FDF737FAD2E784
S31500004AD009AB26480293FDF765F96FF00407CAE7AC
S31500004AE0FDF72CFA38461FB0BDEC028BBDE8F08FFF
S31500004AF0014609AB1E480293FDF754F90B9B9BB187
S31500004B0000251C4E099B03EB850393ED000A09ABB8
S31500004B100293FDF761F909AB30460293FDF742F9BE
S31500004B200B9B0135AB42EDD809AB13480293FDF759
S31500004B3039F909AB11480293FDF734F98AE702986F
S31500004B40FEF732FB08F022FE19A8FEF74DFD0DA870
S31500004B50FEF72AFB09AB0293F1E700BFA13500007F
S31500004B60FD3500009136000084730100C07301001A
S31500004B70AC7301004C740100B87401008874010024
S31500004B80122370B5304AF0B03092304A02ADAA60B6
S31500004B902F4A07AE30AC94E80300EA6086E80300CB
S31500004BA085E80300A4222B4930462B610CF072FDE8
S31500004BB00123224630462946FFF77EFE0246264955
S31500004BC02648FBF749FFD4E93831D4F8DC202348DE
S31500004BD000912349FBF740FF22492048FBF73CFFA1
S31500004BE0214E224932681D48FBF736FFE0680AF07D
S31500004BF0C3FF02460B4619481D49FBF72DFF726895
S31500004C001A491648FBF728FF60690AF0B5FF024605
S31500004C100B4612481649FBF71FFFD4F8D0000AF0DE
S31500004C20ABFF02460B460D481249FBF715FFAB6872
S31500004C301BB1032229462846984770B070BD284606
S31500004C40FEF7D2FC08F0A2FDA80B0020C535000037
S31500004C50C13100009C7501009C740100340B0020DA
S31500004C60BC740100F0740100900200200075010080
S31500004C700875010010750100F0B5154883B0FBF703
S31500004C80A1FE0027134D144C144E286807F056FA5F
S31500004C9058B12368122BF8D1FFF772FF002328685A
S31500004CA0236007F04BFA0028F3D169460A222868E8
S31500004CB00097019707F096F82368DDF804C000997D
S31500004CC006EB83000233C0F800C041602360E1E7D1
S31500004CD0340B0020E80C0020A40B0020A80B0020B9
S31500004CE02DE9F04F3FA7D7E900674FF0000B4FF0D3
S31500004CF00009DFF8F8A0DFF8F880374D85B00EE040
S31500004D00DAF80040D8F80000039000230A22286849
S31500004D1002A9029406F06CFE142007F05DFF442001
S31500004D20CDF808B0CDF80CB0FBF78AFA00220121C5
S31500004D3001A88DF80490FBF7B1FA652007F04CFF47
S31500004D40042100220DEB0100FBF7D2FA0028D7D18F
S31500004D509DF8040000F03F039DF8050000EB0320DA
S31500004D6007EE900AF8EEE77A17EE900A0AF004FFCB
S31500004D7032463B460BF082F80022184B0AF054FFED
S31500004D800BF02AFA9DF8063004469DF80700CAF88B
S31500004D90004000EB0320C0F38D0007EE900AF8EE0A
S31500004DA0E77A17EE900A0AF0E7FE32463B460BF02A
S31500004DB065F807A3D3E900230AF036FF0022084B63
S31500004DC00AF07AFD0BF008FAC8F800009CE700BF6D
S31500004DD00000000000A06440E80C002000005940DC
S31500004DE0000044400000000080FFCF40F40B00208C
S31500004DF0F00B002010B50022032482B0174B0120CF
S31500004E001146009406F042FD154B1860C8B1002407
S31500004E100421144B1420144A009406F037FD134B5A
S31500004E200146186088B100241421114B0120114A53
S31500004E30009406F02BFD104B0146186040B102B0FD
S31500004E4010BD014600F054F8E1E700F051F8EAE73A
S31500004E5002B0BDE8104000F04BB800BFA00C002027
S31500004E609C0C0020040C00204C0C0020000C0020A0
S31500004E70EC0C0020340D0020E80C0020FFF7BABF30
S31500004E8000B583B0019000F035F8019803B05DF8E5
S31500004E9004EBFFF7F1BE00BF30B501240D480E4A02
S31500004EA003680E4D85B01919CDE901250C4B01603B
S31500004EB04FF400620B490C48009407F061FC0B4B61
S31500004EC0186008B105B030BD014605B0BDE83040F8
S31500004ED000F00EB87012002048370120900D002017
S31500004EE09876010088760100814E0000880D00202A
S31500004EF000BE704738B5164C4FF0FF31206807F0FA
S31500004F0033F8012803D000212068FFF7F1FF114B89
S31500004F101A7802B138BD01220F4D1A70FFF7AEFFA5
S31500004F202B68013B2B60002BF4D000232068194628
S31500004F301A4606F05DFD0128F2D000212068FFF731
S31500004F40D7FF2B68013B2B60002BEED138BD00BF8D
S31500004F5024120020201200207012002038B50023F1
S31500004F600C4D0D4C01214FF480700C4A2B602370C0
S31500004F7006F000FD0A4B186038B100F03BF8FFF769
S31500004F808BFF07F0FFFC002038BD0146FFF7B0FF9E
S31500004F90F3E700BF70120020201200202812002024
S31500004FA0241200204FF4006330B4034D034C056017
S31500004FB00C60136030BC70477852002074120020D9
S31500004FC04FF4006330B4034D034C05600C6013606E
S31500004FD030BC7047085700207432002000B583B0FB
S31500004FE00190FFF787FF019803B05DF804EBFFF728
S31500004FF077BE00BF30B501240D480E4A03680E4D3A
S3150000500085B01919CDE901250C4B01604FF480528A
S315000050100B490C48009407F0B3FB0B4B186008B122
S3150000502005B030BD014605B0BDE83040FFF760BFB2
S315000050307012002048570120C05B0020D476010082
S315000050409C760100DD4F0000BC5B002000BEFEE741
S315000050501EF0040F0CBFEFF30880EFF3098001493F
S3150000506008470000F55000000F4B1968EFF309825E
S315000050701EF0100F08BF22ED108A22E9F04FEFF361
S315000050800B8342F8043D0A604FF0100080F311884C
S31500005090BFF34F8FBFF36F8F07F0DCFD4FF00000BB
S315000050A080F3118800F002B864B400200748016854
S315000050B00A6802CA81F30B88B2E8F04F1EF0100F9F
S315000050C008BFB2EC108A82F30988704764B40020E6
S315000050D010B5EFF31184102383F3118807F0AAFDAE
S315000050E018B14FF08052024B5A6084F3118810BDFC
S315000050F000ED00E008B5836913F8023C022B02D0EC
S31500005100032B04D808BDBDE80840FFF7CFBF40F227
S315000051100541024B024A034805F0EAFEF877010012
S31500005120B87801000C78010070B440F8203C4FF0CC
S3150000513080756FF002040346084E283122F0010202
S3150000514040F80C6C40F8045C40F8244C40F8082CFD
S3150000515043F8481D184670BC704700BF4D5000000C
S3150000516008B5EFF31181102383F311880A4A1368F7
S315000051700133012B136000D008BD084A084B1160AB
S315000051805B68C3F30803002BF6D040F2F641054BEB
S31500005190054A064805F0ACFE546000205060002029
S315000051A000ED00E034780100A47801000C780100DD
S315000051B0094A08B513683BB1013B13601BB9074B9D
S315000051C01B6883F3118808BD40F2FF41044B054A72
S315000051D0054805F08DFE00BF546000205060002099
S315000051E07C780100907801000C78010000B3194A20
S315000051F000B5938918B2002899B21ADBBFF34F8F16
S3150000520030BFBFF36F8F62B6BFF36F8F72B60028E1
S315000052100CDA4AF202500F4AB2F8FE33A2F8FE0345
S315000052209BB243F425439181A2F8FE335DF804FB5B
S3150000523070474AF2025E4FF0000CB2F8FE33A2F855
S31500005240FEE39BB243F42543A2F80CC0A2F8FE335A
S31500005250D4E700BF00E0014008B572B607F0E0FBF6
S315000052600120FFF7C3FF62B6BDE8084007F0E0BBC8
S315000052700D4B0E4A1B68A2FB03239B09013BB3F1AE
S31500005280807F0FD24FF0E0224FF0F00C0020072174
S3150000529010B4074C536184F823C05DF8044B906149
S315000052A011617047704700BFF0730020D34D621044
S315000052B000ED00E0F02208B50B4B83F82220FFF743
S315000052C0D7FF0A4A536B43F04043536362B6BFF3BA
S315000052D06F8FEFF3148C2CF0040C8CF31488BFF34F
S315000052E06F8F02DF00BEFDE700ED00E000EF00E09B
S315000052F0EFF30383103B5BB2002B05DB03F1604346
S3150000530003F5614393F80033704700BF1C4B1B88BD
S31500005310012B00D0704790F8223010B5022B0CBF3D
S31500005320802182218AB0C26804698DF80630038D17
S31500005330121B042B03928DF8071013D0052B1AD0DD
S31500005340032B14D040F2DC53ADF8083090F824203B
S31500005350C36901A909208DF80420069302F044F8D8
S315000053600AB010BD40F2DE53ADF80830EEE7002378
S31500005370ADF80830EAE740F2DF53ADF80830E5E76C
S3150000538070620020164B1B88012B00D0704700B5B9
S3150000539090F822308BB0012B8DF806301CD0BBB1B3
S315000053A081238DF80730028D40F2DC53012A08BFB5
S315000053B0002390F824C0C26901A90A208DF804C010
S315000053C00692ADF8083002F00FF80BB05DF804FB5A
S315000053D082238DF80730E6E780238DF80730E2E771
S315000053E07062002010B5044631B900F007FEC3050F
S315000053F017D54FF4807010BD00F078FE204600F0FF
S315000054008DFE10F4807F204606D000F0CDFE800A87
S315000054100130800180B210BD00F0DCFEC0F30A004E
S3150000542010BD204600F01EFE00F07F0010BD00BF3C
S315000054302DE9F843594B90F82470044633F8173099
S315000054400D469BB2022B52D000F05AFC294620464C
S3150000545000F090FC2946204600F0DAFC294620465A
S3150000546001F0A2FF2946204600F040FE642207FB19
S3150000547002F2DFF8308105EB850302EB4303434478
S315000054805988AE001FFA87F9204600F063FEB9F18D
S31500005490010F6FD07319642607FB06F606EB430669
S315000054A046442046F18800F0B1FE2046318900F0DE
S315000054B0C5FE2046002100F019FE2946204600F0D0
S315000054C067FF2946204601F05BFF2946204600F08B
S315000054D001FF2946204600F0C9FC2946204600F077
S315000054E0E9FC29462046BDE8F84300F007BD2C4EEE
S315000054F056F8210008B105F059FF0023294646F861
